{
  "contractName": "BitCrafty_Contract",
  "abi": [
    {
      "inputs": [
        {
          "internalType": "contract UNIQ",
          "name": "token",
          "type": "address"
        }
      ],
      "stateMutability": "nonpayable",
      "type": "constructor"
    },
    {
      "anonymous": false,
      "inputs": [
        {
          "indexed": true,
          "internalType": "uint256",
          "name": "handicraftId",
          "type": "uint256"
        },
        {
          "indexed": false,
          "internalType": "address",
          "name": "seller",
          "type": "address"
        },
        {
          "indexed": false,
          "internalType": "address",
          "name": "owner",
          "type": "address"
        },
        {
          "indexed": false,
          "internalType": "uint256",
          "name": "price",
          "type": "uint256"
        },
        {
          "indexed": false,
          "internalType": "bool",
          "name": "sold",
          "type": "bool"
        }
      ],
      "name": "HandicraftCreated",
      "type": "event"
    },
    {
      "anonymous": false,
      "inputs": [
        {
          "indexed": false,
          "internalType": "address",
          "name": "to",
          "type": "address"
        },
        {
          "indexed": false,
          "internalType": "uint256",
          "name": "handicraftId",
          "type": "uint256"
        }
      ],
      "name": "Mint",
      "type": "event"
    },
    {
      "anonymous": false,
      "inputs": [
        {
          "indexed": false,
          "internalType": "address",
          "name": "seller",
          "type": "address"
        },
        {
          "indexed": false,
          "internalType": "address",
          "name": "owner",
          "type": "address"
        },
        {
          "indexed": false,
          "internalType": "uint256",
          "name": "handicraftId",
          "type": "uint256"
        }
      ],
      "name": "Transfer",
      "type": "event"
    },
    {
      "inputs": [
        {
          "internalType": "address",
          "name": "",
          "type": "address"
        }
      ],
      "name": "isPresent",
      "outputs": [
        {
          "internalType": "bool",
          "name": "",
          "type": "bool"
        }
      ],
      "stateMutability": "view",
      "type": "function",
      "constant": true
    },
    {
      "inputs": [],
      "name": "getTokens",
      "outputs": [],
      "stateMutability": "nonpayable",
      "type": "function"
    },
    {
      "inputs": [
        {
          "internalType": "string",
          "name": "tokenURI",
          "type": "string"
        },
        {
          "internalType": "uint256",
          "name": "price",
          "type": "uint256"
        }
      ],
      "name": "createHandicraftToken",
      "outputs": [
        {
          "internalType": "uint256",
          "name": "",
          "type": "uint256"
        }
      ],
      "stateMutability": "payable",
      "type": "function",
      "payable": true
    },
    {
      "inputs": [
        {
          "internalType": "uint256",
          "name": "handicraftId",
          "type": "uint256"
        }
      ],
      "name": "getTokenURI",
      "outputs": [
        {
          "internalType": "string",
          "name": "",
          "type": "string"
        }
      ],
      "stateMutability": "view",
      "type": "function",
      "constant": true
    },
    {
      "inputs": [
        {
          "internalType": "uint256",
          "name": "price",
          "type": "uint256"
        }
      ],
      "name": "getListingPrice",
      "outputs": [
        {
          "internalType": "uint256",
          "name": "",
          "type": "uint256"
        }
      ],
      "stateMutability": "pure",
      "type": "function",
      "constant": true
    },
    {
      "inputs": [
        {
          "internalType": "uint256",
          "name": "handicraftId",
          "type": "uint256"
        }
      ],
      "name": "createMarketSale",
      "outputs": [],
      "stateMutability": "payable",
      "type": "function",
      "payable": true
    },
    {
      "inputs": [
        {
          "internalType": "uint256",
          "name": "handicraftId",
          "type": "uint256"
        },
        {
          "internalType": "uint256",
          "name": "price",
          "type": "uint256"
        }
      ],
      "name": "resellHandicraft",
      "outputs": [],
      "stateMutability": "payable",
      "type": "function",
      "payable": true
    },
    {
      "inputs": [],
      "name": "fetchHandicrafts",
      "outputs": [
        {
          "components": [
            {
              "internalType": "uint256",
              "name": "handicraftId",
              "type": "uint256"
            },
            {
              "internalType": "address payable",
              "name": "seller",
              "type": "address"
            },
            {
              "internalType": "address payable",
              "name": "owner",
              "type": "address"
            },
            {
              "internalType": "uint256",
              "name": "price",
              "type": "uint256"
            },
            {
              "internalType": "bool",
              "name": "sold",
              "type": "bool"
            }
          ],
          "internalType": "struct BitCrafty_Contract.Handicraft[]",
          "name": "",
          "type": "tuple[]"
        }
      ],
      "stateMutability": "view",
      "type": "function",
      "constant": true
    },
    {
      "inputs": [],
      "name": "fetchMyHandicrafts",
      "outputs": [
        {
          "components": [
            {
              "internalType": "uint256",
              "name": "handicraftId",
              "type": "uint256"
            },
            {
              "internalType": "address payable",
              "name": "seller",
              "type": "address"
            },
            {
              "internalType": "address payable",
              "name": "owner",
              "type": "address"
            },
            {
              "internalType": "uint256",
              "name": "price",
              "type": "uint256"
            },
            {
              "internalType": "bool",
              "name": "sold",
              "type": "bool"
            }
          ],
          "internalType": "struct BitCrafty_Contract.Handicraft[]",
          "name": "",
          "type": "tuple[]"
        }
      ],
      "stateMutability": "view",
      "type": "function",
      "constant": true
    },
    {
      "inputs": [],
      "name": "fetchMyListedHandicrafts",
      "outputs": [
        {
          "components": [
            {
              "internalType": "uint256",
              "name": "handicraftId",
              "type": "uint256"
            },
            {
              "internalType": "address payable",
              "name": "seller",
              "type": "address"
            },
            {
              "internalType": "address payable",
              "name": "owner",
              "type": "address"
            },
            {
              "internalType": "uint256",
              "name": "price",
              "type": "uint256"
            },
            {
              "internalType": "bool",
              "name": "sold",
              "type": "bool"
            }
          ],
          "internalType": "struct BitCrafty_Contract.Handicraft[]",
          "name": "",
          "type": "tuple[]"
        }
      ],
      "stateMutability": "view",
      "type": "function",
      "constant": true
    },
    {
      "inputs": [],
      "name": "fetchRewards",
      "outputs": [
        {
          "internalType": "uint256",
          "name": "",
          "type": "uint256"
        }
      ],
      "stateMutability": "view",
      "type": "function",
      "constant": true
    },
    {
      "inputs": [
        {
          "internalType": "uint256",
          "name": "reward",
          "type": "uint256"
        }
      ],
      "name": "redeemReward",
      "outputs": [],
      "stateMutability": "payable",
      "type": "function",
      "payable": true
    },
    {
      "inputs": [
        {
          "internalType": "uint256",
          "name": "amount",
          "type": "uint256"
        },
        {
          "internalType": "address",
          "name": "to",
          "type": "address"
        }
      ],
      "name": "transferTokens",
      "outputs": [],
      "stateMutability": "payable",
      "type": "function",
      "payable": true
    }
  ],
  "bytecode": "0x60806040523480156200001157600080fd5b5060405162002505380380620025058339818101604052810190620000379190620000d7565b33600360006101000a81548173ffffffffffffffffffffffffffffffffffffffff021916908373ffffffffffffffffffffffffffffffffffffffff16021790555080600560006101000a81548173ffffffffffffffffffffffffffffffffffffffff021916908373ffffffffffffffffffffffffffffffffffffffff1602179055505062000165565b600081519050620000d1816200014b565b92915050565b600060208284031215620000ea57600080fd5b6000620000fa84828501620000c0565b91505092915050565b600062000110826200012b565b9050919050565b6000620001248262000103565b9050919050565b600073ffffffffffffffffffffffffffffffffffffffff82169050919050565b620001568162000117565b81146200016257600080fd5b50565b61239080620001756000396000f3fe6080604052600436106100c25760003560e01c8063aa6ca8081161007f578063d6077fbf11610059578063d6077fbf14610223578063df1c80e314610260578063ed21aa891461028b578063eef544c8146102b6576100c2565b8063aa6ca808146101d4578063be9af536146101eb578063d012c5f114610207576100c2565b8063278d2576146100c75780633bb3a24d146100f75780633d256d0e1461013457806351a71b171461015f578063761bdc1e1461017b57806390d18c53146101b8575b600080fd5b6100e160048036038101906100dc9190611907565b6102e1565b6040516100ee9190611dc0565b60405180910390f35b34801561010357600080fd5b5061011e6004803603810190610119919061195b565b610386565b60405161012b9190611cfe565b60405180910390f35b34801561014057600080fd5b5061014961042b565b6040516101569190611cc1565b60405180910390f35b6101796004803603810190610174919061195b565b61075b565b005b34801561018757600080fd5b506101a2600480360381019061019d91906118b5565b6108b6565b6040516101af9190611ce3565b60405180910390f35b6101d260048036038101906101cd91906119c0565b6108d6565b005b3480156101e057600080fd5b506101e9610ad1565b005b6102056004803603810190610200919061195b565b610b55565b005b610221600480360381019061021c9190611984565b610dc4565b005b34801561022f57600080fd5b5061024a6004803603810190610245919061195b565b610e78565b6040516102579190611dc0565b60405180910390f35b34801561026c57600080fd5b50610275610e9a565b6040516102829190611cc1565b60405180910390f35b34801561029757600080fd5b506102a0611138565b6040516102ad9190611dc0565b60405180910390f35b3480156102c257600080fd5b506102cb6111ee565b6040516102d89190611cc1565b60405180910390f35b60006102f56102ef83610e78565b30610dc4565b60016007546103049190611e86565b6007819055507f0f6798a560793a54c3bcfe86a93cde1e73087d944c0ea20544137d41213968853360075460405161033d929190611c98565b60405180910390a182600160006007548152602001908152602001600020908051906020019061036e92919061170e565b5061037b6007548361151e565b600754905092915050565b60606001600083815260200190815260200160002080546103a690612037565b80601f01602080910402602001604051908101604052809291908181526020018280546103d290612037565b801561041f5780601f106103f45761010080835404028352916020019161041f565b820191906000526020600020905b81548152906001019060200180831161040257829003601f168201915b50505050509050919050565b60606000600754905060008060005b838110156104da573373ffffffffffffffffffffffffffffffffffffffff166000806001846104699190611e86565b815260200190815260200160002060010160009054906101000a900473ffffffffffffffffffffffffffffffffffffffff1673ffffffffffffffffffffffffffffffffffffffff1614156104c7576001836104c49190611e86565b92505b80806104d29061209a565b91505061043a565b5060008267ffffffffffffffff81111561051d577f4e487b7100000000000000000000000000000000000000000000000000000000600052604160045260246000fd5b60405190808252806020026020018201604052801561055657816020015b610543611794565b81526020019060019003908161053b5790505b50905060005b84811015610750573373ffffffffffffffffffffffffffffffffffffffff1660008060018461058b9190611e86565b815260200190815260200160002060010160009054906101000a900473ffffffffffffffffffffffffffffffffffffffff1673ffffffffffffffffffffffffffffffffffffffff16141561073d5760006001826105e89190611e86565b905060008060008381526020019081526020016000209050806040518060a0016040529081600082015481526020016001820160009054906101000a900473ffffffffffffffffffffffffffffffffffffffff1673ffffffffffffffffffffffffffffffffffffffff1673ffffffffffffffffffffffffffffffffffffffff1681526020016002820160009054906101000a900473ffffffffffffffffffffffffffffffffffffffff1673ffffffffffffffffffffffffffffffffffffffff1673ffffffffffffffffffffffffffffffffffffffff168152602001600382015481526020016004820160009054906101000a900460ff161515151581525050848681518110610720577f4e487b7100000000000000000000000000000000000000000000000000000000600052603260045260246000fd5b60200260200101819052506001856107389190611e86565b945050505b80806107489061209a565b91505061055c565b508094505050505090565b678ac7230489e80000600260003373ffffffffffffffffffffffffffffffffffffffff1673ffffffffffffffffffffffffffffffffffffffff1681526020019081526020016000205410156107e5576040517f08c379a00000000000000000000000000000000000000000000000000000000081526004016107dc90611da0565b60405180910390fd5b344711610827576040517f08c379a000000000000000000000000000000000000000000000000000000000815260040161081e90611d20565b60405180910390fd5b3373ffffffffffffffffffffffffffffffffffffffff166108fc829081150290604051600060405180830381858888f1935050505015801561086d573d6000803e3d6000fd5b506000600260003373ffffffffffffffffffffffffffffffffffffffff1673ffffffffffffffffffffffffffffffffffffffff1681526020019081526020016000208190555050565b60046020528060005260406000206000915054906101000a900460ff1681565b813373ffffffffffffffffffffffffffffffffffffffff1660008083815260200190815260200160002060020160009054906101000a900473ffffffffffffffffffffffffffffffffffffffff1673ffffffffffffffffffffffffffffffffffffffff161461097a576040517f08c379a000000000000000000000000000000000000000000000000000000000815260040161097190611d60565b60405180910390fd5b61098c61098683610e78565b30610dc4565b8160008085815260200190815260200160002060030181905550600080600085815260200190815260200160002060040160006101000a81548160ff0219169083151502179055503060008085815260200190815260200160002060020160006101000a81548173ffffffffffffffffffffffffffffffffffffffff021916908373ffffffffffffffffffffffffffffffffffffffff1602179055503360008085815260200190815260200160002060010160006101000a81548173ffffffffffffffffffffffffffffffffffffffff021916908373ffffffffffffffffffffffffffffffffffffffff1602179055507fddf252ad1be2c89b69c2b068fc378daa952ba7f163c4a11628f55a4df523b3ef333085604051610aaf93929190611c1c565b60405180910390a16001600654610ac69190611f67565b600681905550505050565b600560009054906101000a900473ffffffffffffffffffffffffffffffffffffffff1673ffffffffffffffffffffffffffffffffffffffff1663865909f66040518163ffffffff1660e01b8152600401600060405180830381600087803b158015610b3b57600080fd5b505af1158015610b4f573d6000803e3d6000fd5b50505050565b6000806000838152602001908152602001600020600301549050600080600084815260200190815260200160002060010160009054906101000a900473ffffffffffffffffffffffffffffffffffffffff169050813414610beb576040517f08c379a0000000000000000000000000000000000000000000000000000000008152600401610be290611d40565b60405180910390fd5b3360008085815260200190815260200160002060020160006101000a81548173ffffffffffffffffffffffffffffffffffffffff021916908373ffffffffffffffffffffffffffffffffffffffff160217905550600160008085815260200190815260200160002060040160006101000a81548160ff021916908315150217905550600080600085815260200190815260200160002060010160006101000a81548173ffffffffffffffffffffffffffffffffffffffff021916908373ffffffffffffffffffffffffffffffffffffffff1602179055506001600654610cd19190611e86565b6006819055507fddf252ad1be2c89b69c2b068fc378daa952ba7f163c4a11628f55a4df523b3ef303385604051610d0a93929190611c1c565b60405180910390a1610d1c8282610dc4565b60008084815260200190815260200160002060030154600260003373ffffffffffffffffffffffffffffffffffffffff1673ffffffffffffffffffffffffffffffffffffffff16815260200190815260200160002054610d7c9190611e86565b600260003373ffffffffffffffffffffffffffffffffffffffff1673ffffffffffffffffffffffffffffffffffffffff16815260200190815260200160002081905550505050565b600560009054906101000a900473ffffffffffffffffffffffffffffffffffffffff1673ffffffffffffffffffffffffffffffffffffffff1663a9059cbb82846040518363ffffffff1660e01b8152600401610e21929190611c98565b602060405180830381600087803b158015610e3b57600080fd5b505af1158015610e4f573d6000803e3d6000fd5b505050506040513d601f19601f82011682018060405250810190610e7391906118de565b505050565b60006064600283610e899190611f0d565b610e939190611edc565b9050919050565b6060600060075490506000600654600754610eb59190611f67565b90506000808267ffffffffffffffff811115610efa577f4e487b7100000000000000000000000000000000000000000000000000000000600052604160045260246000fd5b604051908082528060200260200182016040528015610f3357816020015b610f20611794565b815260200190600190039081610f185790505b50905060005b8481101561112d573073ffffffffffffffffffffffffffffffffffffffff16600080600184610f689190611e86565b815260200190815260200160002060020160009054906101000a900473ffffffffffffffffffffffffffffffffffffffff1673ffffffffffffffffffffffffffffffffffffffff16141561111a576000600182610fc59190611e86565b905060008060008381526020019081526020016000209050806040518060a0016040529081600082015481526020016001820160009054906101000a900473ffffffffffffffffffffffffffffffffffffffff1673ffffffffffffffffffffffffffffffffffffffff1673ffffffffffffffffffffffffffffffffffffffff1681526020016002820160009054906101000a900473ffffffffffffffffffffffffffffffffffffffff1673ffffffffffffffffffffffffffffffffffffffff1673ffffffffffffffffffffffffffffffffffffffff168152602001600382015481526020016004820160009054906101000a900460ff1615151515815250508486815181106110fd577f4e487b7100000000000000000000000000000000000000000000000000000000600052603260045260246000fd5b60200260200101819052506001856111159190611e86565b945050505b80806111259061209a565b915050610f39565b508094505050505090565b6000600a600260003373ffffffffffffffffffffffffffffffffffffffff1673ffffffffffffffffffffffffffffffffffffffff16815260200190815260200160002054106111e657600060646001600260003373ffffffffffffffffffffffffffffffffffffffff1673ffffffffffffffffffffffffffffffffffffffff168152602001908152602001600020546111d19190611f0d565b6111db9190611edc565b9050809150506111eb565b600090505b90565b60606000600754905060008060005b8381101561129d573373ffffffffffffffffffffffffffffffffffffffff1660008060018461122c9190611e86565b815260200190815260200160002060020160009054906101000a900473ffffffffffffffffffffffffffffffffffffffff1673ffffffffffffffffffffffffffffffffffffffff16141561128a576001836112879190611e86565b92505b80806112959061209a565b9150506111fd565b5060008267ffffffffffffffff8111156112e0577f4e487b7100000000000000000000000000000000000000000000000000000000600052604160045260246000fd5b60405190808252806020026020018201604052801561131957816020015b611306611794565b8152602001906001900390816112fe5790505b50905060005b84811015611513573373ffffffffffffffffffffffffffffffffffffffff1660008060018461134e9190611e86565b815260200190815260200160002060020160009054906101000a900473ffffffffffffffffffffffffffffffffffffffff1673ffffffffffffffffffffffffffffffffffffffff1614156115005760006001826113ab9190611e86565b905060008060008381526020019081526020016000209050806040518060a0016040529081600082015481526020016001820160009054906101000a900473ffffffffffffffffffffffffffffffffffffffff1673ffffffffffffffffffffffffffffffffffffffff1673ffffffffffffffffffffffffffffffffffffffff1681526020016002820160009054906101000a900473ffffffffffffffffffffffffffffffffffffffff1673ffffffffffffffffffffffffffffffffffffffff1673ffffffffffffffffffffffffffffffffffffffff168152602001600382015481526020016004820160009054906101000a900460ff1615151515815250508486815181106114e3577f4e487b7100000000000000000000000000000000000000000000000000000000600052603260045260246000fd5b60200260200101819052506001856114fb9190611e86565b945050505b808061150b9061209a565b91505061131f565b508094505050505090565b8060008111611562576040517f08c379a000000000000000000000000000000000000000000000000000000000815260040161155990611d80565b60405180910390fd5b6040518060a001604052808481526020013373ffffffffffffffffffffffffffffffffffffffff1681526020013073ffffffffffffffffffffffffffffffffffffffff168152602001838152602001600015158152506000808581526020019081526020016000206000820151816000015560208201518160010160006101000a81548173ffffffffffffffffffffffffffffffffffffffff021916908373ffffffffffffffffffffffffffffffffffffffff16021790555060408201518160020160006101000a81548173ffffffffffffffffffffffffffffffffffffffff021916908373ffffffffffffffffffffffffffffffffffffffff1602179055506060820151816003015560808201518160040160006101000a81548160ff0219169083151502179055509050507fddf252ad1be2c89b69c2b068fc378daa952ba7f163c4a11628f55a4df523b3ef3330856040516116c293929190611c1c565b60405180910390a1827fc21cfd0d9c9fb774f22eea9a4809adf2815033c77141d2032225e05cab6cf5dd33308560006040516117019493929190611c53565b60405180910390a2505050565b82805461171a90612037565b90600052602060002090601f01602090048101928261173c5760008555611783565b82601f1061175557805160ff1916838001178555611783565b82800160010185558215611783579182015b82811115611782578251825591602001919060010190611767565b5b50905061179091906117f1565b5090565b6040518060a0016040528060008152602001600073ffffffffffffffffffffffffffffffffffffffff168152602001600073ffffffffffffffffffffffffffffffffffffffff168152602001600081526020016000151581525090565b5b8082111561180a5760008160009055506001016117f2565b5090565b600061182161181c84611e00565b611ddb565b90508281526020810184848401111561183957600080fd5b611844848285611ff5565b509392505050565b60008135905061185b81612315565b92915050565b6000815190506118708161232c565b92915050565b600082601f83011261188757600080fd5b813561189784826020860161180e565b91505092915050565b6000813590506118af81612343565b92915050565b6000602082840312156118c757600080fd5b60006118d58482850161184c565b91505092915050565b6000602082840312156118f057600080fd5b60006118fe84828501611861565b91505092915050565b6000806040838503121561191a57600080fd5b600083013567ffffffffffffffff81111561193457600080fd5b61194085828601611876565b9250506020611951858286016118a0565b9150509250929050565b60006020828403121561196d57600080fd5b600061197b848285016118a0565b91505092915050565b6000806040838503121561199757600080fd5b60006119a5858286016118a0565b92505060206119b68582860161184c565b9150509250929050565b600080604083850312156119d357600080fd5b60006119e1858286016118a0565b92505060206119f2858286016118a0565b9150509250929050565b6000611a088383611b96565b60a08301905092915050565b611a1d81611fad565b82525050565b611a2c81611f9b565b82525050565b6000611a3d82611e41565b611a478185611e64565b9350611a5283611e31565b8060005b83811015611a83578151611a6a88826119fc565b9750611a7583611e57565b925050600181019050611a56565b5085935050505092915050565b611a9981611fbf565b82525050565b611aa881611fbf565b82525050565b6000611ab982611e4c565b611ac38185611e75565b9350611ad3818560208601612004565b611adc8161219f565b840191505092915050565b6000611af4603e83611e75565b9150611aff826121b0565b604082019050919050565b6000611b17602f83611e75565b9150611b22826121ff565b604082019050919050565b6000611b3a601f83611e75565b9150611b458261224e565b602082019050919050565b6000611b5d602583611e75565b9150611b6882612277565b604082019050919050565b6000611b80603d83611e75565b9150611b8b826122c6565b604082019050919050565b60a082016000820151611bac6000850182611bfe565b506020820151611bbf6020850182611a14565b506040820151611bd26040850182611a14565b506060820151611be56060850182611bfe565b506080820151611bf86080850182611a90565b50505050565b611c0781611feb565b82525050565b611c1681611feb565b82525050565b6000606082019050611c316000830186611a23565b611c3e6020830185611a23565b611c4b6040830184611c0d565b949350505050565b6000608082019050611c686000830187611a23565b611c756020830186611a23565b611c826040830185611c0d565b611c8f6060830184611a9f565b95945050505050565b6000604082019050611cad6000830185611a23565b611cba6020830184611c0d565b9392505050565b60006020820190508181036000830152611cdb8184611a32565b905092915050565b6000602082019050611cf86000830184611a9f565b92915050565b60006020820190508181036000830152611d188184611aae565b905092915050565b60006020820190508181036000830152611d3981611ae7565b9050919050565b60006020820190508181036000830152611d5981611b0a565b9050919050565b60006020820190508181036000830152611d7981611b2d565b9050919050565b60006020820190508181036000830152611d9981611b50565b9050919050565b60006020820190508181036000830152611db981611b73565b9050919050565b6000602082019050611dd56000830184611c0d565b92915050565b6000611de5611df6565b9050611df18282612069565b919050565b6000604051905090565b600067ffffffffffffffff821115611e1b57611e1a612170565b5b611e248261219f565b9050602081019050919050565b6000819050602082019050919050565b600081519050919050565b600081519050919050565b6000602082019050919050565b600082825260208201905092915050565b600082825260208201905092915050565b6000611e9182611feb565b9150611e9c83611feb565b9250827fffffffffffffffffffffffffffffffffffffffffffffffffffffffffffffffff03821115611ed157611ed06120e3565b5b828201905092915050565b6000611ee782611feb565b9150611ef283611feb565b925082611f0257611f01612112565b5b828204905092915050565b6000611f1882611feb565b9150611f2383611feb565b9250817fffffffffffffffffffffffffffffffffffffffffffffffffffffffffffffffff0483118215151615611f5c57611f5b6120e3565b5b828202905092915050565b6000611f7282611feb565b9150611f7d83611feb565b925082821015611f9057611f8f6120e3565b5b828203905092915050565b6000611fa682611fcb565b9050919050565b6000611fb882611fcb565b9050919050565b60008115159050919050565b600073ffffffffffffffffffffffffffffffffffffffff82169050919050565b6000819050919050565b82818337600083830152505050565b60005b83811015612022578082015181840152602081019050612007565b83811115612031576000848401525b50505050565b6000600282049050600182168061204f57607f821691505b6020821081141561206357612062612141565b5b50919050565b6120728261219f565b810181811067ffffffffffffffff8211171561209157612090612170565b5b80604052505050565b60006120a582611feb565b91507fffffffffffffffffffffffffffffffffffffffffffffffffffffffffffffffff8214156120d8576120d76120e3565b5b600182019050919050565b7f4e487b7100000000000000000000000000000000000000000000000000000000600052601160045260246000fd5b7f4e487b7100000000000000000000000000000000000000000000000000000000600052601260045260246000fd5b7f4e487b7100000000000000000000000000000000000000000000000000000000600052602260045260246000fd5b7f4e487b7100000000000000000000000000000000000000000000000000000000600052604160045260246000fd5b6000601f19601f8301169050919050565b7f536d61727420636f6e74726163742062616c616e63652073686f756c6420617460008201527f206c656173742062652067726561746572207468616e20726577617264200000602082015250565b7f506c656173652070617920746865206d656e74696f6e65642076616c7565206660008201527f6f72207472616e73616374696f6e2e0000000000000000000000000000000000602082015250565b7f4f6e6c792068616e64696372616674206f776e65722063616e2073656c6c2e00600082015250565b7f506c6561736520656e7465722070726963652067726561746572207468616e2060008201527f7a65726f2e000000000000000000000000000000000000000000000000000000602082015250565b7f546f74616c2070757263686173652076616c75652073686f756c642061746c6560008201527f6173742062652067726561746572207468616e20313020457468657273000000602082015250565b61231e81611f9b565b811461232957600080fd5b50565b61233581611fbf565b811461234057600080fd5b50565b61234c81611feb565b811461235757600080fd5b5056fea2646970667358221220b369cb81f1d53ada8ff2cae33e4212276fa390e9635556212484118623a1710b64736f6c63430008040033",
  "immutableReferences": {},
  "source": "// SPDX-License-Identifier: MIT\r\npragma solidity ^0.8.4;\r\n\r\nimport \"./UNIQ.sol\";\r\n\r\ncontract BitCrafty_Contract {\r\n\r\n    mapping(uint256 => Handicraft) private idToHandicraft;\r\n    mapping(uint256 => string) private tokenUriMapping;\r\n\r\n    mapping(address => uint256) private totalPurchaseValue;\r\n\r\n    address private owner;\r\n\r\n    struct Handicraft {uint256 handicraftId;\r\n        address payable seller;\r\n        address payable owner;\r\n        uint256 price;\r\n        bool sold;}\r\n\r\n    mapping(address => bool) public isPresent;\r\n    UNIQ private uniq;\r\n\r\n    event HandicraftCreated (uint256 indexed handicraftId, address seller, address owner, uint256 price, bool sold);\r\n\r\n    event Transfer(address seller, address owner, uint256 handicraftId);\r\n    event Mint(address to, uint256 handicraftId);\r\n\r\n    uint private handicraftsSold;\r\n    uint private handicraftIds;\r\n\r\n    modifier priceGreaterThanZero(uint256 price){require(price > 0, \"Please enter price greater than zero.\");\r\n        _;}\r\n\r\n    modifier onlyItemOwner(uint256 handicraftId){require(idToHandicraft[handicraftId].owner == msg.sender, \"Only handicraft owner can sell.\");\r\n        _;}\r\n    modifier amountSpentIsGreaterThan10{require(totalPurchaseValue[msg.sender] >= 10000000000000000000, \"Total purchase value should atleast be greater than 10 Ethers\");\r\n        _;}\r\n\r\n    modifier ownerBalanceIsGreaterThanReward{require(address(this).balance > msg.value, \"Smart contract balance should at least be greater than reward \");\r\n        _;}\r\n\r\n\r\n    constructor(UNIQ token){\r\n        owner = msg.sender;\r\n        uniq = token;}\r\n\r\n    function getTokens() public{\r\n        uniq.registrationReward();\r\n    }\r\n\r\n    function createHandicraftToken(string memory tokenURI, uint256 price) public payable returns (uint) {transferTokens(getListingPrice(price), address(this));\r\n        handicraftIds = handicraftIds + 1;\r\n        emit Mint(msg.sender, handicraftIds);\r\n        tokenUriMapping[handicraftIds] = tokenURI;\r\n        createHandicraft(handicraftIds, price);\r\n        return handicraftIds;}\r\n\r\n    function createHandicraft(uint256 handicraftId, uint256 price) private priceGreaterThanZero(price) {idToHandicraft[handicraftId] = Handicraft(handicraftId, payable(msg.sender), payable(address(this)), price, false);\r\n        emit Transfer(msg.sender, address(this), handicraftId);\r\n        emit HandicraftCreated(handicraftId, msg.sender, address(this), price, false);}\r\n\r\n    function getTokenURI(uint256 handicraftId) public view returns (string memory) {return tokenUriMapping[handicraftId];}\r\n\r\n    function getListingPrice(uint256 price) public pure returns (uint256) {return (price * 2) / 100;}\r\n\r\n    function createMarketSale(uint256 handicraftId) public payable {uint price = idToHandicraft[handicraftId].price;\r\n        address seller = idToHandicraft[handicraftId].seller;\r\n        require(msg.value == price, \"Please pay the mentioned value for transaction.\");\r\n        idToHandicraft[handicraftId].owner = payable(msg.sender);\r\n        idToHandicraft[handicraftId].sold = true;\r\n        idToHandicraft[handicraftId].seller = payable(address(0));\r\n        handicraftsSold = handicraftsSold + 1;\r\n        emit Transfer(address(this), msg.sender, handicraftId);\r\n        transferTokens(price, seller);\r\n        //        payable(seller).transfer(msg.value);\r\n        totalPurchaseValue[msg.sender] = totalPurchaseValue[msg.sender] + idToHandicraft[handicraftId].price;}\r\n\r\n    function resellHandicraft(uint256 handicraftId, uint256 price) public payable onlyItemOwner(handicraftId) {transferTokens(getListingPrice(price), address(this));\r\n        idToHandicraft[handicraftId].price = price;\r\n        idToHandicraft[handicraftId].sold = false;\r\n        idToHandicraft[handicraftId].owner = payable(address(this));\r\n        idToHandicraft[handicraftId].seller = payable(msg.sender);\r\n        emit Transfer(msg.sender, address(this), handicraftId);\r\n        handicraftsSold = handicraftsSold - 1;}\r\n\r\n    function fetchHandicrafts() public view returns (Handicraft[] memory) {\r\n        uint itemCount = handicraftIds;\r\n        uint unsoldItemCount = handicraftIds - handicraftsSold;\r\n        uint currentIndex = 0;\r\n        Handicraft[] memory items = new Handicraft[](unsoldItemCount);\r\n        for (uint i = 0; i < itemCount; i++) {if (idToHandicraft[i + 1].owner == address(this)) {uint currentId = i + 1;\r\n            Handicraft storage currentItem = idToHandicraft[currentId];\r\n            items[currentIndex] = currentItem;\r\n            currentIndex += 1;}}\r\n        return items;}\r\n\r\n    function fetchMyHandicrafts() public view returns (Handicraft[] memory) {uint totalItemCount = handicraftIds;\r\n        uint itemCount = 0;\r\n        uint currentIndex = 0;\r\n        for (uint i = 0; i < totalItemCount; i++) {if (idToHandicraft[i + 1].owner == msg.sender) {itemCount += 1;}}\r\n        Handicraft[] memory items = new Handicraft[](itemCount);\r\n        for (uint i = 0; i < totalItemCount; i++) {if (idToHandicraft[i + 1].owner == msg.sender) {uint currentId = i + 1;\r\n            Handicraft storage currentItem = idToHandicraft[currentId];\r\n            items[currentIndex] = currentItem;\r\n            currentIndex += 1;}}\r\n        return items;}\r\n\r\n    function fetchMyListedHandicrafts() public view returns (Handicraft[] memory) {uint totalItemCount = handicraftIds;\r\n        uint itemCount = 0;\r\n        uint currentIndex = 0;\r\n        for (uint i = 0; i < totalItemCount; i++) {if (idToHandicraft[i + 1].seller == msg.sender) {itemCount += 1;}}\r\n        Handicraft[] memory items = new Handicraft[](itemCount);\r\n        for (uint i = 0; i < totalItemCount; i++) {if (idToHandicraft[i + 1].seller == msg.sender) {uint currentId = i + 1;\r\n            Handicraft storage currentItem = idToHandicraft[currentId];\r\n            items[currentIndex] = currentItem;\r\n            currentIndex += 1;}}\r\n        return items;}\r\n\r\n    function fetchRewards() public view returns (uint256) {if (totalPurchaseValue[msg.sender] >= 10) {uint reward = (totalPurchaseValue[msg.sender] * 1) / 100;\r\n        return reward;}\r\n        return 0;}\r\n\r\n    function redeemReward(uint reward) public amountSpentIsGreaterThan10 ownerBalanceIsGreaterThanReward payable {\r\n        //transferTokensFrom(reward, msg.sender, address(this));\r\n        payable(msg.sender).transfer(reward);\r\n        totalPurchaseValue[msg.sender] = 0;}\r\n\r\n\r\n    function transferTokens(uint256 amount, address to) public payable{\r\n        //uint256 erc20balance = uniq.balanceOf(msg.sender);\r\n        //require(amount <= erc20balance, \"balance is low\");\r\n        uniq.transfer(to, amount);}\r\n\r\n}",
  "sourcePath": "C:\\Data\\BitCrafty-UNIQ-Dapp\\bitcrafty-contract\\contracts\\BitCrafty_Contract.sol",
  "compiler": {
    "name": "solc",
    "version": "0.8.4+commit.c7e474f2.Emscripten.clang"
  },
  "schemaVersion": "3.4.6",
  "updatedAt": "2022-05-01T15:36:39.063Z",
  "networkType": "ethereum",
  "devdoc": {
    "kind": "dev",
    "methods": {},
    "version": 1
  },
  "userdoc": {
    "kind": "user",
    "methods": {},
    "version": 1
  }
}