{
  "contractName": "BitCrafty_Contract",
  "abi": [
    {
      "inputs": [
        {
          "internalType": "address",
          "name": "token",
          "type": "address"
        }
      ],
      "stateMutability": "nonpayable",
      "type": "constructor"
    },
    {
      "anonymous": false,
      "inputs": [
        {
          "indexed": true,
          "internalType": "uint256",
          "name": "handicraftId",
          "type": "uint256"
        },
        {
          "indexed": false,
          "internalType": "address",
          "name": "seller",
          "type": "address"
        },
        {
          "indexed": false,
          "internalType": "address",
          "name": "owner",
          "type": "address"
        },
        {
          "indexed": false,
          "internalType": "uint256",
          "name": "price",
          "type": "uint256"
        },
        {
          "indexed": false,
          "internalType": "bool",
          "name": "sold",
          "type": "bool"
        }
      ],
      "name": "HandicraftCreated",
      "type": "event"
    },
    {
      "anonymous": false,
      "inputs": [
        {
          "indexed": false,
          "internalType": "address",
          "name": "to",
          "type": "address"
        },
        {
          "indexed": false,
          "internalType": "uint256",
          "name": "handicraftId",
          "type": "uint256"
        }
      ],
      "name": "Mint",
      "type": "event"
    },
    {
      "anonymous": false,
      "inputs": [
        {
          "indexed": false,
          "internalType": "address",
          "name": "seller",
          "type": "address"
        },
        {
          "indexed": false,
          "internalType": "address",
          "name": "owner",
          "type": "address"
        },
        {
          "indexed": false,
          "internalType": "uint256",
          "name": "handicraftId",
          "type": "uint256"
        }
      ],
      "name": "Transfer",
      "type": "event"
    },
    {
      "inputs": [
        {
          "internalType": "address",
          "name": "",
          "type": "address"
        }
      ],
      "name": "isPresent",
      "outputs": [
        {
          "internalType": "bool",
          "name": "",
          "type": "bool"
        }
      ],
      "stateMutability": "view",
      "type": "function",
      "constant": true
    },
    {
      "inputs": [],
      "name": "uniqContract",
      "outputs": [
        {
          "internalType": "address",
          "name": "",
          "type": "address"
        }
      ],
      "stateMutability": "view",
      "type": "function",
      "constant": true
    },
    {
      "inputs": [],
      "name": "getTokens",
      "outputs": [],
      "stateMutability": "nonpayable",
      "type": "function"
    },
    {
      "inputs": [
        {
          "internalType": "string",
          "name": "tokenURI",
          "type": "string"
        },
        {
          "internalType": "uint256",
          "name": "price",
          "type": "uint256"
        }
      ],
      "name": "createHandicraftToken",
      "outputs": [
        {
          "internalType": "uint256",
          "name": "",
          "type": "uint256"
        }
      ],
      "stateMutability": "payable",
      "type": "function",
      "payable": true
    },
    {
      "inputs": [
        {
          "internalType": "uint256",
          "name": "handicraftId",
          "type": "uint256"
        }
      ],
      "name": "getTokenURI",
      "outputs": [
        {
          "internalType": "string",
          "name": "",
          "type": "string"
        }
      ],
      "stateMutability": "view",
      "type": "function",
      "constant": true
    },
    {
      "inputs": [
        {
          "internalType": "uint256",
          "name": "price",
          "type": "uint256"
        }
      ],
      "name": "getListingPrice",
      "outputs": [
        {
          "internalType": "uint256",
          "name": "",
          "type": "uint256"
        }
      ],
      "stateMutability": "pure",
      "type": "function",
      "constant": true
    },
    {
      "inputs": [
        {
          "internalType": "uint256",
          "name": "handicraftId",
          "type": "uint256"
        }
      ],
      "name": "createMarketSale",
      "outputs": [],
      "stateMutability": "payable",
      "type": "function",
      "payable": true
    },
    {
      "inputs": [
        {
          "internalType": "uint256",
          "name": "handicraftId",
          "type": "uint256"
        },
        {
          "internalType": "uint256",
          "name": "price",
          "type": "uint256"
        }
      ],
      "name": "resellHandicraft",
      "outputs": [],
      "stateMutability": "payable",
      "type": "function",
      "payable": true
    },
    {
      "inputs": [],
      "name": "fetchHandicrafts",
      "outputs": [
        {
          "components": [
            {
              "internalType": "uint256",
              "name": "handicraftId",
              "type": "uint256"
            },
            {
              "internalType": "address payable",
              "name": "seller",
              "type": "address"
            },
            {
              "internalType": "address payable",
              "name": "owner",
              "type": "address"
            },
            {
              "internalType": "uint256",
              "name": "price",
              "type": "uint256"
            },
            {
              "internalType": "bool",
              "name": "sold",
              "type": "bool"
            }
          ],
          "internalType": "struct BitCrafty_Contract.Handicraft[]",
          "name": "",
          "type": "tuple[]"
        }
      ],
      "stateMutability": "view",
      "type": "function",
      "constant": true
    },
    {
      "inputs": [],
      "name": "fetchMyHandicrafts",
      "outputs": [
        {
          "components": [
            {
              "internalType": "uint256",
              "name": "handicraftId",
              "type": "uint256"
            },
            {
              "internalType": "address payable",
              "name": "seller",
              "type": "address"
            },
            {
              "internalType": "address payable",
              "name": "owner",
              "type": "address"
            },
            {
              "internalType": "uint256",
              "name": "price",
              "type": "uint256"
            },
            {
              "internalType": "bool",
              "name": "sold",
              "type": "bool"
            }
          ],
          "internalType": "struct BitCrafty_Contract.Handicraft[]",
          "name": "",
          "type": "tuple[]"
        }
      ],
      "stateMutability": "view",
      "type": "function",
      "constant": true
    },
    {
      "inputs": [],
      "name": "fetchMyListedHandicrafts",
      "outputs": [
        {
          "components": [
            {
              "internalType": "uint256",
              "name": "handicraftId",
              "type": "uint256"
            },
            {
              "internalType": "address payable",
              "name": "seller",
              "type": "address"
            },
            {
              "internalType": "address payable",
              "name": "owner",
              "type": "address"
            },
            {
              "internalType": "uint256",
              "name": "price",
              "type": "uint256"
            },
            {
              "internalType": "bool",
              "name": "sold",
              "type": "bool"
            }
          ],
          "internalType": "struct BitCrafty_Contract.Handicraft[]",
          "name": "",
          "type": "tuple[]"
        }
      ],
      "stateMutability": "view",
      "type": "function",
      "constant": true
    },
    {
      "inputs": [],
      "name": "fetchRewards",
      "outputs": [
        {
          "internalType": "uint256",
          "name": "",
          "type": "uint256"
        }
      ],
      "stateMutability": "view",
      "type": "function",
      "constant": true
    },
    {
      "inputs": [
        {
          "internalType": "uint256",
          "name": "reward",
          "type": "uint256"
        }
      ],
      "name": "redeemReward",
      "outputs": [],
      "stateMutability": "payable",
      "type": "function",
      "payable": true
    },
    {
      "inputs": [
        {
          "internalType": "uint256",
          "name": "amount",
          "type": "uint256"
        },
        {
          "internalType": "address",
          "name": "to",
          "type": "address"
        },
        {
          "internalType": "address",
          "name": "from",
          "type": "address"
        }
      ],
      "name": "transferTokens",
      "outputs": [],
      "stateMutability": "payable",
      "type": "function",
      "payable": true
    },
    {
      "inputs": [],
      "name": "registrationReward",
      "outputs": [],
      "stateMutability": "nonpayable",
      "type": "function"
    },
    {
      "inputs": [
        {
          "internalType": "address",
          "name": "user",
          "type": "address"
        }
      ],
      "name": "getCheckIfAlreadyHaveBonus",
      "outputs": [
        {
          "internalType": "bool",
          "name": "",
          "type": "bool"
        }
      ],
      "stateMutability": "view",
      "type": "function",
      "constant": true
    }
  ],
  "bytecode": "0x60806040523480156200001157600080fd5b506040516200271f3803806200271f833981810160405281019062000037919062000118565b33600460006101000a81548173ffffffffffffffffffffffffffffffffffffffff021916908373ffffffffffffffffffffffffffffffffffffffff16021790555080600660006101000a81548173ffffffffffffffffffffffffffffffffffffffff021916908373ffffffffffffffffffffffffffffffffffffffff16021790555080600760006101000a81548173ffffffffffffffffffffffffffffffffffffffff021916908373ffffffffffffffffffffffffffffffffffffffff1602179055505062000192565b600081519050620001128162000178565b92915050565b6000602082840312156200012b57600080fd5b60006200013b8482850162000101565b91505092915050565b6000620001518262000158565b9050919050565b600073ffffffffffffffffffffffffffffffffffffffff82169050919050565b620001838162000144565b81146200018f57600080fd5b50565b61257d80620001a26000396000f3fe6080604052600436106100f35760003560e01c80639a98bce21161008a578063df1c80e311610059578063df1c80e3146102f4578063e0461eb91461031f578063ed21aa891461033b578063eef544c814610366576100f3565b80639a98bce214610259578063aa6ca80814610284578063be9af5361461029b578063d6077fbf146102b7576100f3565b806368a83f6c116100c657806368a83f6c146101ac578063761bdc1e146101e9578063865909f61461022657806390d18c531461023d576100f3565b8063278d2576146100f85780633bb3a24d146101285780633d256d0e1461016557806351a71b1714610190575b600080fd5b610112600480360381019061010d9190611b46565b610391565b60405161011f9190612013565b60405180910390f35b34801561013457600080fd5b5061014f600480360381019061014a9190611b9a565b610437565b60405161015c9190611f71565b60405180910390f35b34801561017157600080fd5b5061017a6104dc565b6040516101879190611f34565b60405180910390f35b6101aa60048036038101906101a59190611b9a565b61080c565b005b3480156101b857600080fd5b506101d360048036038101906101ce9190611b1d565b6109d5565b6040516101e09190611f56565b60405180910390f35b3480156101f557600080fd5b50610210600480360381019061020b9190611b1d565b610a2b565b60405161021d9190611f56565b60405180910390f35b34801561023257600080fd5b5061023b610a4b565b005b61025760048036038101906102529190611c3b565b610bf0565b005b34801561026557600080fd5b5061026e610dec565b60405161027b9190611e74565b60405180910390f35b34801561029057600080fd5b50610299610e12565b005b6102b560048036038101906102b09190611b9a565b610e1c565b005b3480156102c357600080fd5b506102de60048036038101906102d99190611b9a565b61104a565b6040516102eb9190612013565b60405180910390f35b34801561030057600080fd5b5061030961106c565b6040516103169190611f34565b60405180910390f35b61033960048036038101906103349190611bec565b61130a565b005b34801561034757600080fd5b506103506113a0565b60405161035d9190612013565b60405180910390f35b34801561037257600080fd5b5061037b611456565b6040516103889190611f34565b60405180910390f35b600060016009546103a291906120d9565b6009819055507f0f6798a560793a54c3bcfe86a93cde1e73087d944c0ea20544137d4121396885336009546040516103db929190611f0b565b60405180910390a182600160006009548152602001908152602001600020908051906020019061040c929190611976565b5061041960095483611786565b61042c6104258361104a565b303361130a565b600954905092915050565b60606001600083815260200190815260200160002080546104579061228a565b80601f01602080910402602001604051908101604052809291908181526020018280546104839061228a565b80156104d05780601f106104a5576101008083540402835291602001916104d0565b820191906000526020600020905b8154815290600101906020018083116104b357829003601f168201915b50505050509050919050565b60606000600954905060008060005b8381101561058b573373ffffffffffffffffffffffffffffffffffffffff1660008060018461051a91906120d9565b815260200190815260200160002060010160009054906101000a900473ffffffffffffffffffffffffffffffffffffffff1673ffffffffffffffffffffffffffffffffffffffff1614156105785760018361057591906120d9565b92505b8080610583906122ed565b9150506104eb565b5060008267ffffffffffffffff8111156105ce577f4e487b7100000000000000000000000000000000000000000000000000000000600052604160045260246000fd5b60405190808252806020026020018201604052801561060757816020015b6105f46119fc565b8152602001906001900390816105ec5790505b50905060005b84811015610801573373ffffffffffffffffffffffffffffffffffffffff1660008060018461063c91906120d9565b815260200190815260200160002060010160009054906101000a900473ffffffffffffffffffffffffffffffffffffffff1673ffffffffffffffffffffffffffffffffffffffff1614156107ee57600060018261069991906120d9565b905060008060008381526020019081526020016000209050806040518060a0016040529081600082015481526020016001820160009054906101000a900473ffffffffffffffffffffffffffffffffffffffff1673ffffffffffffffffffffffffffffffffffffffff1673ffffffffffffffffffffffffffffffffffffffff1681526020016002820160009054906101000a900473ffffffffffffffffffffffffffffffffffffffff1673ffffffffffffffffffffffffffffffffffffffff1673ffffffffffffffffffffffffffffffffffffffff168152602001600382015481526020016004820160009054906101000a900460ff1615151515815250508486815181106107d1577f4e487b7100000000000000000000000000000000000000000000000000000000600052603260045260246000fd5b60200260200101819052506001856107e991906120d9565b945050505b80806107f9906122ed565b91505061060d565b508094505050505090565b678ac7230489e80000600260003373ffffffffffffffffffffffffffffffffffffffff1673ffffffffffffffffffffffffffffffffffffffff168152602001908152602001600020541015610896576040517f08c379a000000000000000000000000000000000000000000000000000000000815260040161088d90611ff3565b60405180910390fd5b34600660009054906101000a900473ffffffffffffffffffffffffffffffffffffffff1673ffffffffffffffffffffffffffffffffffffffff166370a08231306040518263ffffffff1660e01b81526004016108f29190611e74565b60206040518083038186803b15801561090a57600080fd5b505afa15801561091e573d6000803e3d6000fd5b505050506040513d601f19601f820116820180604052508101906109429190611bc3565b11610982576040517f08c379a000000000000000000000000000000000000000000000000000000000815260040161097990611f93565b60405180910390fd5b61098d81333061130a565b6000600260003373ffffffffffffffffffffffffffffffffffffffff1673ffffffffffffffffffffffffffffffffffffffff1681526020019081526020016000208190555050565b6000600560008373ffffffffffffffffffffffffffffffffffffffff1673ffffffffffffffffffffffffffffffffffffffff16815260200190815260200160002060009054906101000a900460ff169050919050565b60056020528060005260406000206000915054906101000a900460ff1681565b60011515600560003373ffffffffffffffffffffffffffffffffffffffff1673ffffffffffffffffffffffffffffffffffffffff16815260200190815260200160002060009054906101000a900460ff161515151415610bee576001600560003373ffffffffffffffffffffffffffffffffffffffff1673ffffffffffffffffffffffffffffffffffffffff16815260200190815260200160002060006101000a81548160ff021916908315150217905550600660009054906101000a900473ffffffffffffffffffffffffffffffffffffffff1673ffffffffffffffffffffffffffffffffffffffff166321860a05336040518263ffffffff1660e01b8152600401610b589190611e74565b600060405180830381600087803b158015610b7257600080fd5b505af1158015610b86573d6000803e3d6000fd5b505050506003339080600181540180825580915050600190039060005260206000200160009091909190916101000a81548173ffffffffffffffffffffffffffffffffffffffff021916908373ffffffffffffffffffffffffffffffffffffffff1602179055505b565b813373ffffffffffffffffffffffffffffffffffffffff1660008083815260200190815260200160002060020160009054906101000a900473ffffffffffffffffffffffffffffffffffffffff1673ffffffffffffffffffffffffffffffffffffffff1614610c94576040517f08c379a0000000000000000000000000000000000000000000000000000000008152600401610c8b90611fb3565b60405180910390fd5b8160008085815260200190815260200160002060030181905550600080600085815260200190815260200160002060040160006101000a81548160ff0219169083151502179055503060008085815260200190815260200160002060020160006101000a81548173ffffffffffffffffffffffffffffffffffffffff021916908373ffffffffffffffffffffffffffffffffffffffff1602179055503360008085815260200190815260200160002060010160006101000a81548173ffffffffffffffffffffffffffffffffffffffff021916908373ffffffffffffffffffffffffffffffffffffffff1602179055507fddf252ad1be2c89b69c2b068fc378daa952ba7f163c4a11628f55a4df523b3ef333085604051610db793929190611e8f565b60405180910390a1610dd2610dcb8361104a565b303361130a565b6001600854610de191906121ba565b600881905550505050565b600760009054906101000a900473ffffffffffffffffffffffffffffffffffffffff1681565b610e1a610a4b565b565b6000806000838152602001908152602001600020600301549050600080600084815260200190815260200160002060010160009054906101000a900473ffffffffffffffffffffffffffffffffffffffff1690503360008085815260200190815260200160002060020160006101000a81548173ffffffffffffffffffffffffffffffffffffffff021916908373ffffffffffffffffffffffffffffffffffffffff160217905550600160008085815260200190815260200160002060040160006101000a81548160ff021916908315150217905550600080600085815260200190815260200160002060010160006101000a81548173ffffffffffffffffffffffffffffffffffffffff021916908373ffffffffffffffffffffffffffffffffffffffff1602179055506001600854610f5691906120d9565b6008819055507fddf252ad1be2c89b69c2b068fc378daa952ba7f163c4a11628f55a4df523b3ef303385604051610f8f93929190611e8f565b60405180910390a1610fa282823361130a565b60008084815260200190815260200160002060030154600260003373ffffffffffffffffffffffffffffffffffffffff1673ffffffffffffffffffffffffffffffffffffffff1681526020019081526020016000205461100291906120d9565b600260003373ffffffffffffffffffffffffffffffffffffffff1673ffffffffffffffffffffffffffffffffffffffff16815260200190815260200160002081905550505050565b6000606460028361105b9190612160565b611065919061212f565b9050919050565b606060006009549050600060085460095461108791906121ba565b90506000808267ffffffffffffffff8111156110cc577f4e487b7100000000000000000000000000000000000000000000000000000000600052604160045260246000fd5b60405190808252806020026020018201604052801561110557816020015b6110f26119fc565b8152602001906001900390816110ea5790505b50905060005b848110156112ff573073ffffffffffffffffffffffffffffffffffffffff1660008060018461113a91906120d9565b815260200190815260200160002060020160009054906101000a900473ffffffffffffffffffffffffffffffffffffffff1673ffffffffffffffffffffffffffffffffffffffff1614156112ec57600060018261119791906120d9565b905060008060008381526020019081526020016000209050806040518060a0016040529081600082015481526020016001820160009054906101000a900473ffffffffffffffffffffffffffffffffffffffff1673ffffffffffffffffffffffffffffffffffffffff1673ffffffffffffffffffffffffffffffffffffffff1681526020016002820160009054906101000a900473ffffffffffffffffffffffffffffffffffffffff1673ffffffffffffffffffffffffffffffffffffffff1673ffffffffffffffffffffffffffffffffffffffff168152602001600382015481526020016004820160009054906101000a900460ff1615151515815250508486815181106112cf577f4e487b7100000000000000000000000000000000000000000000000000000000600052603260045260246000fd5b60200260200101819052506001856112e791906120d9565b945050505b80806112f7906122ed565b91505061110b565b508094505050505090565b600660009054906101000a900473ffffffffffffffffffffffffffffffffffffffff1673ffffffffffffffffffffffffffffffffffffffff1663385717088284866040518463ffffffff1660e01b815260040161136993929190611e8f565b600060405180830381600087803b15801561138357600080fd5b505af1158015611397573d6000803e3d6000fd5b50505050505050565b6000600a600260003373ffffffffffffffffffffffffffffffffffffffff1673ffffffffffffffffffffffffffffffffffffffff168152602001908152602001600020541061144e57600060646001600260003373ffffffffffffffffffffffffffffffffffffffff1673ffffffffffffffffffffffffffffffffffffffff168152602001908152602001600020546114399190612160565b611443919061212f565b905080915050611453565b600090505b90565b60606000600954905060008060005b83811015611505573373ffffffffffffffffffffffffffffffffffffffff1660008060018461149491906120d9565b815260200190815260200160002060020160009054906101000a900473ffffffffffffffffffffffffffffffffffffffff1673ffffffffffffffffffffffffffffffffffffffff1614156114f2576001836114ef91906120d9565b92505b80806114fd906122ed565b915050611465565b5060008267ffffffffffffffff811115611548577f4e487b7100000000000000000000000000000000000000000000000000000000600052604160045260246000fd5b60405190808252806020026020018201604052801561158157816020015b61156e6119fc565b8152602001906001900390816115665790505b50905060005b8481101561177b573373ffffffffffffffffffffffffffffffffffffffff166000806001846115b691906120d9565b815260200190815260200160002060020160009054906101000a900473ffffffffffffffffffffffffffffffffffffffff1673ffffffffffffffffffffffffffffffffffffffff16141561176857600060018261161391906120d9565b905060008060008381526020019081526020016000209050806040518060a0016040529081600082015481526020016001820160009054906101000a900473ffffffffffffffffffffffffffffffffffffffff1673ffffffffffffffffffffffffffffffffffffffff1673ffffffffffffffffffffffffffffffffffffffff1681526020016002820160009054906101000a900473ffffffffffffffffffffffffffffffffffffffff1673ffffffffffffffffffffffffffffffffffffffff1673ffffffffffffffffffffffffffffffffffffffff168152602001600382015481526020016004820160009054906101000a900460ff16151515158152505084868151811061174b577f4e487b7100000000000000000000000000000000000000000000000000000000600052603260045260246000fd5b602002602001018190525060018561176391906120d9565b945050505b8080611773906122ed565b915050611587565b508094505050505090565b80600081116117ca576040517f08c379a00000000000000000000000000000000000000000000000000000000081526004016117c190611fd3565b60405180910390fd5b6040518060a001604052808481526020013373ffffffffffffffffffffffffffffffffffffffff1681526020013073ffffffffffffffffffffffffffffffffffffffff168152602001838152602001600015158152506000808581526020019081526020016000206000820151816000015560208201518160010160006101000a81548173ffffffffffffffffffffffffffffffffffffffff021916908373ffffffffffffffffffffffffffffffffffffffff16021790555060408201518160020160006101000a81548173ffffffffffffffffffffffffffffffffffffffff021916908373ffffffffffffffffffffffffffffffffffffffff1602179055506060820151816003015560808201518160040160006101000a81548160ff0219169083151502179055509050507fddf252ad1be2c89b69c2b068fc378daa952ba7f163c4a11628f55a4df523b3ef33308560405161192a93929190611e8f565b60405180910390a1827fc21cfd0d9c9fb774f22eea9a4809adf2815033c77141d2032225e05cab6cf5dd33308560006040516119699493929190611ec6565b60405180910390a2505050565b8280546119829061228a565b90600052602060002090601f0160209004810192826119a457600085556119eb565b82601f106119bd57805160ff19168380011785556119eb565b828001600101855582156119eb579182015b828111156119ea5782518255916020019190600101906119cf565b5b5090506119f89190611a59565b5090565b6040518060a0016040528060008152602001600073ffffffffffffffffffffffffffffffffffffffff168152602001600073ffffffffffffffffffffffffffffffffffffffff168152602001600081526020016000151581525090565b5b80821115611a72576000816000905550600101611a5a565b5090565b6000611a89611a8484612053565b61202e565b905082815260208101848484011115611aa157600080fd5b611aac848285612248565b509392505050565b600081359050611ac381612519565b92915050565b600082601f830112611ada57600080fd5b8135611aea848260208601611a76565b91505092915050565b600081359050611b0281612530565b92915050565b600081519050611b1781612530565b92915050565b600060208284031215611b2f57600080fd5b6000611b3d84828501611ab4565b91505092915050565b60008060408385031215611b5957600080fd5b600083013567ffffffffffffffff811115611b7357600080fd5b611b7f85828601611ac9565b9250506020611b9085828601611af3565b9150509250929050565b600060208284031215611bac57600080fd5b6000611bba84828501611af3565b91505092915050565b600060208284031215611bd557600080fd5b6000611be384828501611b08565b91505092915050565b600080600060608486031215611c0157600080fd5b6000611c0f86828701611af3565b9350506020611c2086828701611ab4565b9250506040611c3186828701611ab4565b9150509250925092565b60008060408385031215611c4e57600080fd5b6000611c5c85828601611af3565b9250506020611c6d85828601611af3565b9150509250929050565b6000611c838383611dee565b60a08301905092915050565b611c9881612200565b82525050565b611ca7816121ee565b82525050565b6000611cb882612094565b611cc281856120b7565b9350611ccd83612084565b8060005b83811015611cfe578151611ce58882611c77565b9750611cf0836120aa565b925050600181019050611cd1565b5085935050505092915050565b611d1481612212565b82525050565b611d2381612212565b82525050565b6000611d348261209f565b611d3e81856120c8565b9350611d4e818560208601612257565b611d57816123f2565b840191505092915050565b6000611d6f603e836120c8565b9150611d7a82612403565b604082019050919050565b6000611d92601f836120c8565b9150611d9d82612452565b602082019050919050565b6000611db56025836120c8565b9150611dc08261247b565b604082019050919050565b6000611dd8603d836120c8565b9150611de3826124ca565b604082019050919050565b60a082016000820151611e046000850182611e56565b506020820151611e176020850182611c8f565b506040820151611e2a6040850182611c8f565b506060820151611e3d6060850182611e56565b506080820151611e506080850182611d0b565b50505050565b611e5f8161223e565b82525050565b611e6e8161223e565b82525050565b6000602082019050611e896000830184611c9e565b92915050565b6000606082019050611ea46000830186611c9e565b611eb16020830185611c9e565b611ebe6040830184611e65565b949350505050565b6000608082019050611edb6000830187611c9e565b611ee86020830186611c9e565b611ef56040830185611e65565b611f026060830184611d1a565b95945050505050565b6000604082019050611f206000830185611c9e565b611f2d6020830184611e65565b9392505050565b60006020820190508181036000830152611f4e8184611cad565b905092915050565b6000602082019050611f6b6000830184611d1a565b92915050565b60006020820190508181036000830152611f8b8184611d29565b905092915050565b60006020820190508181036000830152611fac81611d62565b9050919050565b60006020820190508181036000830152611fcc81611d85565b9050919050565b60006020820190508181036000830152611fec81611da8565b9050919050565b6000602082019050818103600083015261200c81611dcb565b9050919050565b60006020820190506120286000830184611e65565b92915050565b6000612038612049565b905061204482826122bc565b919050565b6000604051905090565b600067ffffffffffffffff82111561206e5761206d6123c3565b5b612077826123f2565b9050602081019050919050565b6000819050602082019050919050565b600081519050919050565b600081519050919050565b6000602082019050919050565b600082825260208201905092915050565b600082825260208201905092915050565b60006120e48261223e565b91506120ef8361223e565b9250827fffffffffffffffffffffffffffffffffffffffffffffffffffffffffffffffff0382111561212457612123612336565b5b828201905092915050565b600061213a8261223e565b91506121458361223e565b92508261215557612154612365565b5b828204905092915050565b600061216b8261223e565b91506121768361223e565b9250817fffffffffffffffffffffffffffffffffffffffffffffffffffffffffffffffff04831182151516156121af576121ae612336565b5b828202905092915050565b60006121c58261223e565b91506121d08361223e565b9250828210156121e3576121e2612336565b5b828203905092915050565b60006121f98261221e565b9050919050565b600061220b8261221e565b9050919050565b60008115159050919050565b600073ffffffffffffffffffffffffffffffffffffffff82169050919050565b6000819050919050565b82818337600083830152505050565b60005b8381101561227557808201518184015260208101905061225a565b83811115612284576000848401525b50505050565b600060028204905060018216806122a257607f821691505b602082108114156122b6576122b5612394565b5b50919050565b6122c5826123f2565b810181811067ffffffffffffffff821117156122e4576122e36123c3565b5b80604052505050565b60006122f88261223e565b91507fffffffffffffffffffffffffffffffffffffffffffffffffffffffffffffffff82141561232b5761232a612336565b5b600182019050919050565b7f4e487b7100000000000000000000000000000000000000000000000000000000600052601160045260246000fd5b7f4e487b7100000000000000000000000000000000000000000000000000000000600052601260045260246000fd5b7f4e487b7100000000000000000000000000000000000000000000000000000000600052602260045260246000fd5b7f4e487b7100000000000000000000000000000000000000000000000000000000600052604160045260246000fd5b6000601f19601f8301169050919050565b7f536d61727420636f6e74726163742062616c616e63652073686f756c6420617460008201527f206c656173742062652067726561746572207468616e20726577617264200000602082015250565b7f4f6e6c792068616e64696372616674206f776e65722063616e2073656c6c2e00600082015250565b7f506c6561736520656e7465722070726963652067726561746572207468616e2060008201527f7a65726f2e000000000000000000000000000000000000000000000000000000602082015250565b7f546f74616c2070757263686173652076616c75652073686f756c642061746c6560008201527f6173742062652067726561746572207468616e20313020457468657273000000602082015250565b612522816121ee565b811461252d57600080fd5b50565b6125398161223e565b811461254457600080fd5b5056fea264697066735822122064619b40bf17d2d24ca74d11307083d00b33283443faf6c719785eb746770bed64736f6c63430008040033",
  "immutableReferences": {},
  "source": "// SPDX-License-Identifier: MIT\r\npragma solidity ^0.8.4;\r\n\r\nimport \"./UNIQ.sol\";\r\n\r\ncontract BitCrafty_Contract {\r\n\r\n    mapping(uint256 => Handicraft) private idToHandicraft;\r\n    mapping(uint256 => string) private tokenUriMapping;\r\n\r\n    mapping(address => uint256) private totalPurchaseValue;\r\n    address[] private listOfAddress;\r\n    address private owner;\r\n\r\n    struct Handicraft {uint256 handicraftId;\r\n        address payable seller;\r\n        address payable owner;\r\n        uint256 price;\r\n        bool sold;}\r\n\r\n    mapping(address => bool) public isPresent;\r\n    UNIQ private uniq;\r\n    address public uniqContract;\r\n\r\n    event HandicraftCreated (uint256 indexed handicraftId, address seller, address owner, uint256 price, bool sold);\r\n\r\n    event Transfer(address seller, address owner, uint256 handicraftId);\r\n    event Mint(address to, uint256 handicraftId);\r\n\r\n    uint private handicraftsSold;\r\n    uint private handicraftIds;\r\n\r\n    modifier priceGreaterThanZero(uint256 price){require(price > 0, \"Please enter price greater than zero.\");\r\n        _;}\r\n\r\n    modifier onlyItemOwner(uint256 handicraftId){require(idToHandicraft[handicraftId].owner == msg.sender, \"Only handicraft owner can sell.\");\r\n        _;}\r\n    modifier amountSpentIsGreaterThan10{require(totalPurchaseValue[msg.sender] >= 10000000000000000000, \"Total purchase value should atleast be greater than 10 Ethers\");\r\n        _;}\r\n\r\n    modifier ownerBalanceIsGreaterThanReward{\r\n        require(address(this).balance > msg.value, \"Smart contract balance should at least be greater than reward \");\r\n        _;}\r\n\r\n\r\n    constructor(address token){owner = msg.sender;\r\n        uniq = UNIQ(token);\r\n        uniqContract = token;}\r\n\r\n    function getTokens() public {registrationReward();}\r\n\r\n    function createHandicraftToken(string memory tokenURI, uint256 price) public payable returns (uint) {handicraftIds = handicraftIds + 1;\r\n        emit Mint(msg.sender, handicraftIds);\r\n        tokenUriMapping[handicraftIds] = tokenURI;\r\n        createHandicraft(handicraftIds, price);\r\n        transferTokens(getListingPrice(price), address(this), msg.sender);\r\n        return handicraftIds;}\r\n\r\n    function createHandicraft(uint256 handicraftId, uint256 price) private priceGreaterThanZero(price) {idToHandicraft[handicraftId] = Handicraft(handicraftId, payable(msg.sender), payable(address(this)), price, false);\r\n        emit Transfer(msg.sender, address(this), handicraftId);\r\n        emit HandicraftCreated(handicraftId, msg.sender, address(this), price, false);}\r\n\r\n    function getTokenURI(uint256 handicraftId) public view returns (string memory) {return tokenUriMapping[handicraftId];}\r\n\r\n    function getListingPrice(uint256 price) public pure returns (uint256) {return (price * 2) / 100;}\r\n\r\n    function createMarketSale(uint256 handicraftId) public payable {uint price = idToHandicraft[handicraftId].price;\r\n        address seller = idToHandicraft[handicraftId].seller;\r\n        idToHandicraft[handicraftId].owner = payable(msg.sender);\r\n        idToHandicraft[handicraftId].sold = true;\r\n        idToHandicraft[handicraftId].seller = payable(address(0));\r\n        handicraftsSold = handicraftsSold + 1;\r\n        emit Transfer(address(this), msg.sender, handicraftId);\r\n        transferTokens(price, seller, msg.sender);\r\n        totalPurchaseValue[msg.sender] = totalPurchaseValue[msg.sender] + idToHandicraft[handicraftId].price;}\r\n\r\n    function resellHandicraft(uint256 handicraftId, uint256 price) public payable onlyItemOwner(handicraftId) {idToHandicraft[handicraftId].price = price;\r\n        idToHandicraft[handicraftId].sold = false;\r\n        idToHandicraft[handicraftId].owner = payable(address(this));\r\n        idToHandicraft[handicraftId].seller = payable(msg.sender);\r\n        emit Transfer(msg.sender, address(this), handicraftId);\r\n        transferTokens(getListingPrice(price), address(this), msg.sender);\r\n        handicraftsSold = handicraftsSold - 1;}\r\n\r\n    function fetchHandicrafts() public view returns (Handicraft[] memory) {uint itemCount = handicraftIds;\r\n        uint unsoldItemCount = handicraftIds - handicraftsSold;\r\n        uint currentIndex = 0;\r\n        Handicraft[] memory items = new Handicraft[](unsoldItemCount);\r\n        for (uint i = 0; i < itemCount; i++) {if (idToHandicraft[i + 1].owner == address(this)) {uint currentId = i + 1;\r\n            Handicraft storage currentItem = idToHandicraft[currentId];\r\n            items[currentIndex] = currentItem;\r\n            currentIndex += 1;}}\r\n        return items;}\r\n\r\n    function fetchMyHandicrafts() public view returns (Handicraft[] memory) {uint totalItemCount = handicraftIds;\r\n        uint itemCount = 0;\r\n        uint currentIndex = 0;\r\n        for (uint i = 0; i < totalItemCount; i++) {if (idToHandicraft[i + 1].owner == msg.sender) {itemCount += 1;}}\r\n        Handicraft[] memory items = new Handicraft[](itemCount);\r\n        for (uint i = 0; i < totalItemCount; i++) {if (idToHandicraft[i + 1].owner == msg.sender) {uint currentId = i + 1;\r\n            Handicraft storage currentItem = idToHandicraft[currentId];\r\n            items[currentIndex] = currentItem;\r\n            currentIndex += 1;}}\r\n        return items;}\r\n\r\n    function fetchMyListedHandicrafts() public view returns (Handicraft[] memory) {uint totalItemCount = handicraftIds;\r\n        uint itemCount = 0;\r\n        uint currentIndex = 0;\r\n        for (uint i = 0; i < totalItemCount; i++) {if (idToHandicraft[i + 1].seller == msg.sender) {itemCount += 1;}}\r\n        Handicraft[] memory items = new Handicraft[](itemCount);\r\n        for (uint i = 0; i < totalItemCount; i++) {if (idToHandicraft[i + 1].seller == msg.sender) {uint currentId = i + 1;\r\n            Handicraft storage currentItem = idToHandicraft[currentId];\r\n            items[currentIndex] = currentItem;\r\n            currentIndex += 1;}}\r\n        return items;}\r\n\r\n    function fetchRewards() public view returns (uint256) {if (totalPurchaseValue[msg.sender] >= 10) {uint reward = (totalPurchaseValue[msg.sender] * 1) / 100;\r\n        return reward;}\r\n        return 0;}\r\n\r\n    function redeemReward(uint reward) public amountSpentIsGreaterThan10 payable {\r\n        require(uniq.balanceOf(address(this)) > msg.value, \"Smart contract balance should at least be greater than reward \");\r\n        transferTokens(reward, msg.sender, address(this));\r\n        totalPurchaseValue[msg.sender] = 0;}\r\n\r\n\r\n    function transferTokens(uint256 amount, address to, address from) public payable {uniq.transferTokensTo(from, to, amount);}\r\n\r\n    function registrationReward() public {\r\n        if (!isPresent[msg.sender] == true) {\r\n            isPresent[msg.sender] = true;\r\n        uniq.airdrop(msg.sender);\r\n        listOfAddress.push(msg.sender);}}\r\n\r\n    function getCheckIfAlreadyHaveBonus(address user) public view returns (bool)  {\r\n        return isPresent[user];}\r\n\r\n}",
  "sourcePath": "C:\\Data\\BitCrafty-UNIQ-Dapp\\bitcrafty-contract\\contracts\\BitCrafty_Contract.sol",
  "compiler": {
    "name": "solc",
    "version": "0.8.4+commit.c7e474f2.Emscripten.clang"
  },
  "schemaVersion": "3.4.6",
  "updatedAt": "2022-05-03T09:24:21.472Z",
  "networkType": "ethereum",
  "devdoc": {
    "kind": "dev",
    "methods": {},
    "version": 1
  },
  "userdoc": {
    "kind": "user",
    "methods": {},
    "version": 1
  }
}