{
  "contractName": "BitCrafty_Contract",
  "abi": [
    {
      "inputs": [
        {
          "internalType": "address",
          "name": "token",
          "type": "address"
        }
      ],
      "stateMutability": "nonpayable",
      "type": "constructor"
    },
    {
      "anonymous": false,
      "inputs": [
        {
          "indexed": true,
          "internalType": "uint256",
          "name": "handicraftId",
          "type": "uint256"
        },
        {
          "indexed": false,
          "internalType": "address",
          "name": "seller",
          "type": "address"
        },
        {
          "indexed": false,
          "internalType": "address",
          "name": "owner",
          "type": "address"
        },
        {
          "indexed": false,
          "internalType": "uint256",
          "name": "price",
          "type": "uint256"
        },
        {
          "indexed": false,
          "internalType": "bool",
          "name": "sold",
          "type": "bool"
        }
      ],
      "name": "HandicraftCreated",
      "type": "event"
    },
    {
      "anonymous": false,
      "inputs": [
        {
          "indexed": false,
          "internalType": "address",
          "name": "to",
          "type": "address"
        },
        {
          "indexed": false,
          "internalType": "uint256",
          "name": "handicraftId",
          "type": "uint256"
        }
      ],
      "name": "Mint",
      "type": "event"
    },
    {
      "anonymous": false,
      "inputs": [
        {
          "indexed": false,
          "internalType": "address",
          "name": "seller",
          "type": "address"
        },
        {
          "indexed": false,
          "internalType": "address",
          "name": "owner",
          "type": "address"
        },
        {
          "indexed": false,
          "internalType": "uint256",
          "name": "handicraftId",
          "type": "uint256"
        }
      ],
      "name": "Transfer",
      "type": "event"
    },
    {
      "inputs": [
        {
          "internalType": "address",
          "name": "",
          "type": "address"
        }
      ],
      "name": "isPresent",
      "outputs": [
        {
          "internalType": "bool",
          "name": "",
          "type": "bool"
        }
      ],
      "stateMutability": "view",
      "type": "function",
      "constant": true
    },
    {
      "inputs": [],
      "name": "uniqContract",
      "outputs": [
        {
          "internalType": "address",
          "name": "",
          "type": "address"
        }
      ],
      "stateMutability": "view",
      "type": "function",
      "constant": true
    },
    {
      "inputs": [],
      "name": "getTokens",
      "outputs": [],
      "stateMutability": "nonpayable",
      "type": "function"
    },
    {
      "inputs": [
        {
          "internalType": "string",
          "name": "tokenURI",
          "type": "string"
        },
        {
          "internalType": "uint256",
          "name": "price",
          "type": "uint256"
        }
      ],
      "name": "createHandicraftToken",
      "outputs": [
        {
          "internalType": "uint256",
          "name": "",
          "type": "uint256"
        }
      ],
      "stateMutability": "payable",
      "type": "function",
      "payable": true
    },
    {
      "inputs": [
        {
          "internalType": "uint256",
          "name": "handicraftId",
          "type": "uint256"
        }
      ],
      "name": "getTokenURI",
      "outputs": [
        {
          "internalType": "string",
          "name": "",
          "type": "string"
        }
      ],
      "stateMutability": "view",
      "type": "function",
      "constant": true
    },
    {
      "inputs": [
        {
          "internalType": "uint256",
          "name": "price",
          "type": "uint256"
        }
      ],
      "name": "getListingPrice",
      "outputs": [
        {
          "internalType": "uint256",
          "name": "",
          "type": "uint256"
        }
      ],
      "stateMutability": "pure",
      "type": "function",
      "constant": true
    },
    {
      "inputs": [
        {
          "internalType": "uint256",
          "name": "handicraftId",
          "type": "uint256"
        }
      ],
      "name": "createMarketSale",
      "outputs": [],
      "stateMutability": "payable",
      "type": "function",
      "payable": true
    },
    {
      "inputs": [
        {
          "internalType": "uint256",
          "name": "handicraftId",
          "type": "uint256"
        },
        {
          "internalType": "uint256",
          "name": "price",
          "type": "uint256"
        }
      ],
      "name": "resellHandicraft",
      "outputs": [],
      "stateMutability": "payable",
      "type": "function",
      "payable": true
    },
    {
      "inputs": [],
      "name": "fetchHandicrafts",
      "outputs": [
        {
          "components": [
            {
              "internalType": "uint256",
              "name": "handicraftId",
              "type": "uint256"
            },
            {
              "internalType": "address payable",
              "name": "seller",
              "type": "address"
            },
            {
              "internalType": "address payable",
              "name": "owner",
              "type": "address"
            },
            {
              "internalType": "uint256",
              "name": "price",
              "type": "uint256"
            },
            {
              "internalType": "bool",
              "name": "sold",
              "type": "bool"
            }
          ],
          "internalType": "struct BitCrafty_Contract.Handicraft[]",
          "name": "",
          "type": "tuple[]"
        }
      ],
      "stateMutability": "view",
      "type": "function",
      "constant": true
    },
    {
      "inputs": [],
      "name": "fetchMyHandicrafts",
      "outputs": [
        {
          "components": [
            {
              "internalType": "uint256",
              "name": "handicraftId",
              "type": "uint256"
            },
            {
              "internalType": "address payable",
              "name": "seller",
              "type": "address"
            },
            {
              "internalType": "address payable",
              "name": "owner",
              "type": "address"
            },
            {
              "internalType": "uint256",
              "name": "price",
              "type": "uint256"
            },
            {
              "internalType": "bool",
              "name": "sold",
              "type": "bool"
            }
          ],
          "internalType": "struct BitCrafty_Contract.Handicraft[]",
          "name": "",
          "type": "tuple[]"
        }
      ],
      "stateMutability": "view",
      "type": "function",
      "constant": true
    },
    {
      "inputs": [],
      "name": "fetchMyListedHandicrafts",
      "outputs": [
        {
          "components": [
            {
              "internalType": "uint256",
              "name": "handicraftId",
              "type": "uint256"
            },
            {
              "internalType": "address payable",
              "name": "seller",
              "type": "address"
            },
            {
              "internalType": "address payable",
              "name": "owner",
              "type": "address"
            },
            {
              "internalType": "uint256",
              "name": "price",
              "type": "uint256"
            },
            {
              "internalType": "bool",
              "name": "sold",
              "type": "bool"
            }
          ],
          "internalType": "struct BitCrafty_Contract.Handicraft[]",
          "name": "",
          "type": "tuple[]"
        }
      ],
      "stateMutability": "view",
      "type": "function",
      "constant": true
    },
    {
      "inputs": [],
      "name": "fetchRewards",
      "outputs": [
        {
          "internalType": "uint256",
          "name": "",
          "type": "uint256"
        }
      ],
      "stateMutability": "view",
      "type": "function",
      "constant": true
    },
    {
      "inputs": [
        {
          "internalType": "uint256",
          "name": "reward",
          "type": "uint256"
        }
      ],
      "name": "redeemReward",
      "outputs": [],
      "stateMutability": "payable",
      "type": "function",
      "payable": true
    },
    {
      "inputs": [
        {
          "internalType": "uint256",
          "name": "amount",
          "type": "uint256"
        },
        {
          "internalType": "address",
          "name": "to",
          "type": "address"
        },
        {
          "internalType": "address",
          "name": "from",
          "type": "address"
        }
      ],
      "name": "transferTokens",
      "outputs": [],
      "stateMutability": "payable",
      "type": "function",
      "payable": true
    },
    {
      "inputs": [],
      "name": "registrationReward",
      "outputs": [],
      "stateMutability": "nonpayable",
      "type": "function"
    },
    {
      "inputs": [
        {
          "internalType": "address",
          "name": "user",
          "type": "address"
        }
      ],
      "name": "getCheckIfAlreadyHaveBonus",
      "outputs": [
        {
          "internalType": "bool",
          "name": "",
          "type": "bool"
        }
      ],
      "stateMutability": "view",
      "type": "function",
      "constant": true
    }
  ],
  "bytecode": "0x60806040523480156200001157600080fd5b506040516200284538038062002845833981810160405281019062000037919062000118565b33600460006101000a81548173ffffffffffffffffffffffffffffffffffffffff021916908373ffffffffffffffffffffffffffffffffffffffff16021790555080600660006101000a81548173ffffffffffffffffffffffffffffffffffffffff021916908373ffffffffffffffffffffffffffffffffffffffff16021790555080600760006101000a81548173ffffffffffffffffffffffffffffffffffffffff021916908373ffffffffffffffffffffffffffffffffffffffff1602179055505062000192565b600081519050620001128162000178565b92915050565b6000602082840312156200012b57600080fd5b60006200013b8482850162000101565b91505092915050565b6000620001518262000158565b9050919050565b600073ffffffffffffffffffffffffffffffffffffffff82169050919050565b620001838162000144565b81146200018f57600080fd5b50565b6126a380620001a26000396000f3fe6080604052600436106100f35760003560e01c80639a98bce21161008a578063df1c80e311610059578063df1c80e3146102f4578063e0461eb91461031f578063ed21aa891461033b578063eef544c814610366576100f3565b80639a98bce214610259578063aa6ca80814610284578063be9af5361461029b578063d6077fbf146102b7576100f3565b806368a83f6c116100c657806368a83f6c146101ac578063761bdc1e146101e9578063865909f61461022657806390d18c531461023d576100f3565b8063278d2576146100f85780633bb3a24d146101285780633d256d0e1461016557806351a71b1714610190575b600080fd5b610112600480360381019061010d9190611c55565b610391565b60405161011f9190612122565b60405180910390f35b34801561013457600080fd5b5061014f600480360381019061014a9190611ca9565b610437565b60405161015c9190612080565b60405180910390f35b34801561017157600080fd5b5061017a6104dc565b6040516101879190612043565b60405180910390f35b6101aa60048036038101906101a59190611ca9565b61080c565b005b3480156101b857600080fd5b506101d360048036038101906101ce9190611c03565b610a85565b6040516101e09190612065565b60405180910390f35b3480156101f557600080fd5b50610210600480360381019061020b9190611c03565b610adb565b60405161021d9190612065565b60405180910390f35b34801561023257600080fd5b5061023b610afb565b005b61025760048036038101906102529190611d4a565b610ca0565b005b34801561026557600080fd5b5061026e610e9c565b60405161027b9190611f83565b60405180910390f35b34801561029057600080fd5b50610299610ec2565b005b6102b560048036038101906102b09190611ca9565b610ecc565b005b3480156102c357600080fd5b506102de60048036038101906102d99190611ca9565b6110fa565b6040516102eb9190612122565b60405180910390f35b34801561030057600080fd5b5061030961111c565b6040516103169190612043565b60405180910390f35b61033960048036038101906103349190611cfb565b6113ba565b005b34801561034757600080fd5b50610350611471565b60405161035d9190612122565b60405180910390f35b34801561037257600080fd5b5061037b611527565b6040516103889190612043565b60405180910390f35b600060016009546103a291906121e8565b6009819055507f0f6798a560793a54c3bcfe86a93cde1e73087d944c0ea20544137d4121396885336009546040516103db92919061201a565b60405180910390a182600160006009548152602001908152602001600020908051906020019061040c929190611a47565b5061041960095483611857565b61042c610425836110fa565b30336113ba565b600954905092915050565b606060016000838152602001908152602001600020805461045790612399565b80601f016020809104026020016040519081016040528092919081815260200182805461048390612399565b80156104d05780601f106104a5576101008083540402835291602001916104d0565b820191906000526020600020905b8154815290600101906020018083116104b357829003601f168201915b50505050509050919050565b60606000600954905060008060005b8381101561058b573373ffffffffffffffffffffffffffffffffffffffff1660008060018461051a91906121e8565b815260200190815260200160002060010160009054906101000a900473ffffffffffffffffffffffffffffffffffffffff1673ffffffffffffffffffffffffffffffffffffffff1614156105785760018361057591906121e8565b92505b8080610583906123fc565b9150506104eb565b5060008267ffffffffffffffff8111156105ce577f4e487b7100000000000000000000000000000000000000000000000000000000600052604160045260246000fd5b60405190808252806020026020018201604052801561060757816020015b6105f4611acd565b8152602001906001900390816105ec5790505b50905060005b84811015610801573373ffffffffffffffffffffffffffffffffffffffff1660008060018461063c91906121e8565b815260200190815260200160002060010160009054906101000a900473ffffffffffffffffffffffffffffffffffffffff1673ffffffffffffffffffffffffffffffffffffffff1614156107ee57600060018261069991906121e8565b905060008060008381526020019081526020016000209050806040518060a0016040529081600082015481526020016001820160009054906101000a900473ffffffffffffffffffffffffffffffffffffffff1673ffffffffffffffffffffffffffffffffffffffff1673ffffffffffffffffffffffffffffffffffffffff1681526020016002820160009054906101000a900473ffffffffffffffffffffffffffffffffffffffff1673ffffffffffffffffffffffffffffffffffffffff1673ffffffffffffffffffffffffffffffffffffffff168152602001600382015481526020016004820160009054906101000a900460ff1615151515815250508486815181106107d1577f4e487b7100000000000000000000000000000000000000000000000000000000600052603260045260246000fd5b60200260200101819052506001856107e991906121e8565b945050505b80806107f9906123fc565b91505061060d565b508094505050505090565b678ac7230489e80000600260003373ffffffffffffffffffffffffffffffffffffffff1673ffffffffffffffffffffffffffffffffffffffff168152602001908152602001600020541015610896576040517f08c379a000000000000000000000000000000000000000000000000000000000815260040161088d90612102565b60405180910390fd5b34600660009054906101000a900473ffffffffffffffffffffffffffffffffffffffff1673ffffffffffffffffffffffffffffffffffffffff166370a08231306040518263ffffffff1660e01b81526004016108f29190611f83565b60206040518083038186803b15801561090a57600080fd5b505afa15801561091e573d6000803e3d6000fd5b505050506040513d601f19601f820116820180604052508101906109429190611cd2565b11610982576040517f08c379a0000000000000000000000000000000000000000000000000000000008152600401610979906120a2565b60405180910390fd5b600660009054906101000a900473ffffffffffffffffffffffffffffffffffffffff1673ffffffffffffffffffffffffffffffffffffffff1663095ea7b330836040518363ffffffff1660e01b81526004016109df92919061201a565b602060405180830381600087803b1580156109f957600080fd5b505af1158015610a0d573d6000803e3d6000fd5b505050506040513d601f19601f82011682018060405250810190610a319190611c2c565b50610a3d8133306113ba565b6000600260003373ffffffffffffffffffffffffffffffffffffffff1673ffffffffffffffffffffffffffffffffffffffff1681526020019081526020016000208190555050565b6000600560008373ffffffffffffffffffffffffffffffffffffffff1673ffffffffffffffffffffffffffffffffffffffff16815260200190815260200160002060009054906101000a900460ff169050919050565b60056020528060005260406000206000915054906101000a900460ff1681565b60011515600560003373ffffffffffffffffffffffffffffffffffffffff1673ffffffffffffffffffffffffffffffffffffffff16815260200190815260200160002060009054906101000a900460ff161515151415610c9e576001600560003373ffffffffffffffffffffffffffffffffffffffff1673ffffffffffffffffffffffffffffffffffffffff16815260200190815260200160002060006101000a81548160ff021916908315150217905550600660009054906101000a900473ffffffffffffffffffffffffffffffffffffffff1673ffffffffffffffffffffffffffffffffffffffff166321860a05336040518263ffffffff1660e01b8152600401610c089190611f83565b600060405180830381600087803b158015610c2257600080fd5b505af1158015610c36573d6000803e3d6000fd5b505050506003339080600181540180825580915050600190039060005260206000200160009091909190916101000a81548173ffffffffffffffffffffffffffffffffffffffff021916908373ffffffffffffffffffffffffffffffffffffffff1602179055505b565b813373ffffffffffffffffffffffffffffffffffffffff1660008083815260200190815260200160002060020160009054906101000a900473ffffffffffffffffffffffffffffffffffffffff1673ffffffffffffffffffffffffffffffffffffffff1614610d44576040517f08c379a0000000000000000000000000000000000000000000000000000000008152600401610d3b906120c2565b60405180910390fd5b8160008085815260200190815260200160002060030181905550600080600085815260200190815260200160002060040160006101000a81548160ff0219169083151502179055503060008085815260200190815260200160002060020160006101000a81548173ffffffffffffffffffffffffffffffffffffffff021916908373ffffffffffffffffffffffffffffffffffffffff1602179055503360008085815260200190815260200160002060010160006101000a81548173ffffffffffffffffffffffffffffffffffffffff021916908373ffffffffffffffffffffffffffffffffffffffff1602179055507fddf252ad1be2c89b69c2b068fc378daa952ba7f163c4a11628f55a4df523b3ef333085604051610e6793929190611f9e565b60405180910390a1610e82610e7b836110fa565b30336113ba565b6001600854610e9191906122c9565b600881905550505050565b600760009054906101000a900473ffffffffffffffffffffffffffffffffffffffff1681565b610eca610afb565b565b6000806000838152602001908152602001600020600301549050600080600084815260200190815260200160002060010160009054906101000a900473ffffffffffffffffffffffffffffffffffffffff1690503360008085815260200190815260200160002060020160006101000a81548173ffffffffffffffffffffffffffffffffffffffff021916908373ffffffffffffffffffffffffffffffffffffffff160217905550600160008085815260200190815260200160002060040160006101000a81548160ff021916908315150217905550600080600085815260200190815260200160002060010160006101000a81548173ffffffffffffffffffffffffffffffffffffffff021916908373ffffffffffffffffffffffffffffffffffffffff160217905550600160085461100691906121e8565b6008819055507fddf252ad1be2c89b69c2b068fc378daa952ba7f163c4a11628f55a4df523b3ef30338560405161103f93929190611f9e565b60405180910390a16110528282336113ba565b60008084815260200190815260200160002060030154600260003373ffffffffffffffffffffffffffffffffffffffff1673ffffffffffffffffffffffffffffffffffffffff168152602001908152602001600020546110b291906121e8565b600260003373ffffffffffffffffffffffffffffffffffffffff1673ffffffffffffffffffffffffffffffffffffffff16815260200190815260200160002081905550505050565b6000606460028361110b919061226f565b611115919061223e565b9050919050565b606060006009549050600060085460095461113791906122c9565b90506000808267ffffffffffffffff81111561117c577f4e487b7100000000000000000000000000000000000000000000000000000000600052604160045260246000fd5b6040519080825280602002602001820160405280156111b557816020015b6111a2611acd565b81526020019060019003908161119a5790505b50905060005b848110156113af573073ffffffffffffffffffffffffffffffffffffffff166000806001846111ea91906121e8565b815260200190815260200160002060020160009054906101000a900473ffffffffffffffffffffffffffffffffffffffff1673ffffffffffffffffffffffffffffffffffffffff16141561139c57600060018261124791906121e8565b905060008060008381526020019081526020016000209050806040518060a0016040529081600082015481526020016001820160009054906101000a900473ffffffffffffffffffffffffffffffffffffffff1673ffffffffffffffffffffffffffffffffffffffff1673ffffffffffffffffffffffffffffffffffffffff1681526020016002820160009054906101000a900473ffffffffffffffffffffffffffffffffffffffff1673ffffffffffffffffffffffffffffffffffffffff1673ffffffffffffffffffffffffffffffffffffffff168152602001600382015481526020016004820160009054906101000a900460ff16151515158152505084868151811061137f577f4e487b7100000000000000000000000000000000000000000000000000000000600052603260045260246000fd5b602002602001018190525060018561139791906121e8565b945050505b80806113a7906123fc565b9150506111bb565b508094505050505090565b600660009054906101000a900473ffffffffffffffffffffffffffffffffffffffff1673ffffffffffffffffffffffffffffffffffffffff166323b872dd8284866040518463ffffffff1660e01b815260040161141993929190611f9e565b602060405180830381600087803b15801561143357600080fd5b505af1158015611447573d6000803e3d6000fd5b505050506040513d601f19601f8201168201806040525081019061146b9190611c2c565b50505050565b6000600a600260003373ffffffffffffffffffffffffffffffffffffffff1673ffffffffffffffffffffffffffffffffffffffff168152602001908152602001600020541061151f57600060646001600260003373ffffffffffffffffffffffffffffffffffffffff1673ffffffffffffffffffffffffffffffffffffffff1681526020019081526020016000205461150a919061226f565b611514919061223e565b905080915050611524565b600090505b90565b60606000600954905060008060005b838110156115d6573373ffffffffffffffffffffffffffffffffffffffff1660008060018461156591906121e8565b815260200190815260200160002060020160009054906101000a900473ffffffffffffffffffffffffffffffffffffffff1673ffffffffffffffffffffffffffffffffffffffff1614156115c3576001836115c091906121e8565b92505b80806115ce906123fc565b915050611536565b5060008267ffffffffffffffff811115611619577f4e487b7100000000000000000000000000000000000000000000000000000000600052604160045260246000fd5b60405190808252806020026020018201604052801561165257816020015b61163f611acd565b8152602001906001900390816116375790505b50905060005b8481101561184c573373ffffffffffffffffffffffffffffffffffffffff1660008060018461168791906121e8565b815260200190815260200160002060020160009054906101000a900473ffffffffffffffffffffffffffffffffffffffff1673ffffffffffffffffffffffffffffffffffffffff1614156118395760006001826116e491906121e8565b905060008060008381526020019081526020016000209050806040518060a0016040529081600082015481526020016001820160009054906101000a900473ffffffffffffffffffffffffffffffffffffffff1673ffffffffffffffffffffffffffffffffffffffff1673ffffffffffffffffffffffffffffffffffffffff1681526020016002820160009054906101000a900473ffffffffffffffffffffffffffffffffffffffff1673ffffffffffffffffffffffffffffffffffffffff1673ffffffffffffffffffffffffffffffffffffffff168152602001600382015481526020016004820160009054906101000a900460ff16151515158152505084868151811061181c577f4e487b7100000000000000000000000000000000000000000000000000000000600052603260045260246000fd5b602002602001018190525060018561183491906121e8565b945050505b8080611844906123fc565b915050611658565b508094505050505090565b806000811161189b576040517f08c379a0000000000000000000000000000000000000000000000000000000008152600401611892906120e2565b60405180910390fd5b6040518060a001604052808481526020013373ffffffffffffffffffffffffffffffffffffffff1681526020013073ffffffffffffffffffffffffffffffffffffffff168152602001838152602001600015158152506000808581526020019081526020016000206000820151816000015560208201518160010160006101000a81548173ffffffffffffffffffffffffffffffffffffffff021916908373ffffffffffffffffffffffffffffffffffffffff16021790555060408201518160020160006101000a81548173ffffffffffffffffffffffffffffffffffffffff021916908373ffffffffffffffffffffffffffffffffffffffff1602179055506060820151816003015560808201518160040160006101000a81548160ff0219169083151502179055509050507fddf252ad1be2c89b69c2b068fc378daa952ba7f163c4a11628f55a4df523b3ef3330856040516119fb93929190611f9e565b60405180910390a1827fc21cfd0d9c9fb774f22eea9a4809adf2815033c77141d2032225e05cab6cf5dd3330856000604051611a3a9493929190611fd5565b60405180910390a2505050565b828054611a5390612399565b90600052602060002090601f016020900481019282611a755760008555611abc565b82601f10611a8e57805160ff1916838001178555611abc565b82800160010185558215611abc579182015b82811115611abb578251825591602001919060010190611aa0565b5b509050611ac99190611b2a565b5090565b6040518060a0016040528060008152602001600073ffffffffffffffffffffffffffffffffffffffff168152602001600073ffffffffffffffffffffffffffffffffffffffff168152602001600081526020016000151581525090565b5b80821115611b43576000816000905550600101611b2b565b5090565b6000611b5a611b5584612162565b61213d565b905082815260208101848484011115611b7257600080fd5b611b7d848285612357565b509392505050565b600081359050611b9481612628565b92915050565b600081519050611ba98161263f565b92915050565b600082601f830112611bc057600080fd5b8135611bd0848260208601611b47565b91505092915050565b600081359050611be881612656565b92915050565b600081519050611bfd81612656565b92915050565b600060208284031215611c1557600080fd5b6000611c2384828501611b85565b91505092915050565b600060208284031215611c3e57600080fd5b6000611c4c84828501611b9a565b91505092915050565b60008060408385031215611c6857600080fd5b600083013567ffffffffffffffff811115611c8257600080fd5b611c8e85828601611baf565b9250506020611c9f85828601611bd9565b9150509250929050565b600060208284031215611cbb57600080fd5b6000611cc984828501611bd9565b91505092915050565b600060208284031215611ce457600080fd5b6000611cf284828501611bee565b91505092915050565b600080600060608486031215611d1057600080fd5b6000611d1e86828701611bd9565b9350506020611d2f86828701611b85565b9250506040611d4086828701611b85565b9150509250925092565b60008060408385031215611d5d57600080fd5b6000611d6b85828601611bd9565b9250506020611d7c85828601611bd9565b9150509250929050565b6000611d928383611efd565b60a08301905092915050565b611da78161230f565b82525050565b611db6816122fd565b82525050565b6000611dc7826121a3565b611dd181856121c6565b9350611ddc83612193565b8060005b83811015611e0d578151611df48882611d86565b9750611dff836121b9565b925050600181019050611de0565b5085935050505092915050565b611e2381612321565b82525050565b611e3281612321565b82525050565b6000611e43826121ae565b611e4d81856121d7565b9350611e5d818560208601612366565b611e6681612501565b840191505092915050565b6000611e7e603e836121d7565b9150611e8982612512565b604082019050919050565b6000611ea1601f836121d7565b9150611eac82612561565b602082019050919050565b6000611ec46025836121d7565b9150611ecf8261258a565b604082019050919050565b6000611ee7603d836121d7565b9150611ef2826125d9565b604082019050919050565b60a082016000820151611f136000850182611f65565b506020820151611f266020850182611d9e565b506040820151611f396040850182611d9e565b506060820151611f4c6060850182611f65565b506080820151611f5f6080850182611e1a565b50505050565b611f6e8161234d565b82525050565b611f7d8161234d565b82525050565b6000602082019050611f986000830184611dad565b92915050565b6000606082019050611fb36000830186611dad565b611fc06020830185611dad565b611fcd6040830184611f74565b949350505050565b6000608082019050611fea6000830187611dad565b611ff76020830186611dad565b6120046040830185611f74565b6120116060830184611e29565b95945050505050565b600060408201905061202f6000830185611dad565b61203c6020830184611f74565b9392505050565b6000602082019050818103600083015261205d8184611dbc565b905092915050565b600060208201905061207a6000830184611e29565b92915050565b6000602082019050818103600083015261209a8184611e38565b905092915050565b600060208201905081810360008301526120bb81611e71565b9050919050565b600060208201905081810360008301526120db81611e94565b9050919050565b600060208201905081810360008301526120fb81611eb7565b9050919050565b6000602082019050818103600083015261211b81611eda565b9050919050565b60006020820190506121376000830184611f74565b92915050565b6000612147612158565b905061215382826123cb565b919050565b6000604051905090565b600067ffffffffffffffff82111561217d5761217c6124d2565b5b61218682612501565b9050602081019050919050565b6000819050602082019050919050565b600081519050919050565b600081519050919050565b6000602082019050919050565b600082825260208201905092915050565b600082825260208201905092915050565b60006121f38261234d565b91506121fe8361234d565b9250827fffffffffffffffffffffffffffffffffffffffffffffffffffffffffffffffff0382111561223357612232612445565b5b828201905092915050565b60006122498261234d565b91506122548361234d565b92508261226457612263612474565b5b828204905092915050565b600061227a8261234d565b91506122858361234d565b9250817fffffffffffffffffffffffffffffffffffffffffffffffffffffffffffffffff04831182151516156122be576122bd612445565b5b828202905092915050565b60006122d48261234d565b91506122df8361234d565b9250828210156122f2576122f1612445565b5b828203905092915050565b60006123088261232d565b9050919050565b600061231a8261232d565b9050919050565b60008115159050919050565b600073ffffffffffffffffffffffffffffffffffffffff82169050919050565b6000819050919050565b82818337600083830152505050565b60005b83811015612384578082015181840152602081019050612369565b83811115612393576000848401525b50505050565b600060028204905060018216806123b157607f821691505b602082108114156123c5576123c46124a3565b5b50919050565b6123d482612501565b810181811067ffffffffffffffff821117156123f3576123f26124d2565b5b80604052505050565b60006124078261234d565b91507fffffffffffffffffffffffffffffffffffffffffffffffffffffffffffffffff82141561243a57612439612445565b5b600182019050919050565b7f4e487b7100000000000000000000000000000000000000000000000000000000600052601160045260246000fd5b7f4e487b7100000000000000000000000000000000000000000000000000000000600052601260045260246000fd5b7f4e487b7100000000000000000000000000000000000000000000000000000000600052602260045260246000fd5b7f4e487b7100000000000000000000000000000000000000000000000000000000600052604160045260246000fd5b6000601f19601f8301169050919050565b7f536d61727420636f6e74726163742062616c616e63652073686f756c6420617460008201527f206c656173742062652067726561746572207468616e20726577617264200000602082015250565b7f4f6e6c792068616e64696372616674206f776e65722063616e2073656c6c2e00600082015250565b7f506c6561736520656e7465722070726963652067726561746572207468616e2060008201527f7a65726f2e000000000000000000000000000000000000000000000000000000602082015250565b7f546f74616c2070757263686173652076616c75652073686f756c642061746c6560008201527f6173742062652067726561746572207468616e20313020457468657273000000602082015250565b612631816122fd565b811461263c57600080fd5b50565b61264881612321565b811461265357600080fd5b50565b61265f8161234d565b811461266a57600080fd5b5056fea264697066735822122063a54a0ae3b8b391ef99b2bc77f7a0b88f232b254e133386fd713f48b179512264736f6c63430008040033",
  "immutableReferences": {},
  "source": "// SPDX-License-Identifier: MIT\r\npragma solidity ^0.8.4;\r\n\r\nimport \"./UNIQ.sol\";\r\n\r\ncontract BitCrafty_Contract {\r\n\r\n    mapping(uint256 => Handicraft) private idToHandicraft;\r\n    mapping(uint256 => string) private tokenUriMapping;\r\n\r\n    mapping(address => uint256) private totalPurchaseValue;\r\n    address[] private listOfAddress;\r\n    address private owner;\r\n\r\n    struct Handicraft {uint256 handicraftId;\r\n        address payable seller;\r\n        address payable owner;\r\n        uint256 price;\r\n        bool sold;}\r\n\r\n    mapping(address => bool) public isPresent;\r\n    UNIQ private uniq;\r\n    address public uniqContract;\r\n\r\n    event HandicraftCreated (uint256 indexed handicraftId, address seller, address owner, uint256 price, bool sold);\r\n\r\n    event Transfer(address seller, address owner, uint256 handicraftId);\r\n    event Mint(address to, uint256 handicraftId);\r\n\r\n    uint private handicraftsSold;\r\n    uint private handicraftIds;\r\n\r\n    modifier priceGreaterThanZero(uint256 price){require(price > 0, \"Please enter price greater than zero.\");\r\n        _;}\r\n\r\n    modifier onlyItemOwner(uint256 handicraftId){require(idToHandicraft[handicraftId].owner == msg.sender, \"Only handicraft owner can sell.\");\r\n        _;}\r\n    modifier amountSpentIsGreaterThan10{require(totalPurchaseValue[msg.sender] >= 10000000000000000000, \"Total purchase value should atleast be greater than 10 Ethers\");\r\n        _;}\r\n\r\n    modifier ownerBalanceIsGreaterThanReward{\r\n        require(address(this).balance > msg.value, \"Smart contract balance should at least be greater than reward \");\r\n        _;}\r\n\r\n\r\n    constructor(address token){owner = msg.sender;\r\n        uniq = UNIQ(token);\r\n        uniqContract = token;}\r\n\r\n    function getTokens() public {registrationReward();}\r\n\r\n    function createHandicraftToken(string memory tokenURI, uint256 price) public payable returns (uint) {handicraftIds = handicraftIds + 1;\r\n        emit Mint(msg.sender, handicraftIds);\r\n        tokenUriMapping[handicraftIds] = tokenURI;\r\n        createHandicraft(handicraftIds, price);\r\n        transferTokens(getListingPrice(price), address(this), msg.sender);\r\n        return handicraftIds;}\r\n\r\n    function createHandicraft(uint256 handicraftId, uint256 price) private priceGreaterThanZero(price) {idToHandicraft[handicraftId] = Handicraft(handicraftId, payable(msg.sender), payable(address(this)), price, false);\r\n        emit Transfer(msg.sender, address(this), handicraftId);\r\n        emit HandicraftCreated(handicraftId, msg.sender, address(this), price, false);}\r\n\r\n    function getTokenURI(uint256 handicraftId) public view returns (string memory) {return tokenUriMapping[handicraftId];}\r\n\r\n    function getListingPrice(uint256 price) public pure returns (uint256) {return (price * 2) / 100;}\r\n\r\n    function createMarketSale(uint256 handicraftId) public payable {uint price = idToHandicraft[handicraftId].price;\r\n        address seller = idToHandicraft[handicraftId].seller;\r\n        idToHandicraft[handicraftId].owner = payable(msg.sender);\r\n        idToHandicraft[handicraftId].sold = true;\r\n        idToHandicraft[handicraftId].seller = payable(address(0));\r\n        handicraftsSold = handicraftsSold + 1;\r\n        emit Transfer(address(this), msg.sender, handicraftId);\r\n        transferTokens(price, seller, msg.sender);\r\n        totalPurchaseValue[msg.sender] = totalPurchaseValue[msg.sender] + idToHandicraft[handicraftId].price;}\r\n\r\n    function resellHandicraft(uint256 handicraftId, uint256 price) public payable onlyItemOwner(handicraftId) {idToHandicraft[handicraftId].price = price;\r\n        idToHandicraft[handicraftId].sold = false;\r\n        idToHandicraft[handicraftId].owner = payable(address(this));\r\n        idToHandicraft[handicraftId].seller = payable(msg.sender);\r\n        emit Transfer(msg.sender, address(this), handicraftId);\r\n        transferTokens(getListingPrice(price), address(this), msg.sender);\r\n        handicraftsSold = handicraftsSold - 1;}\r\n\r\n    function fetchHandicrafts() public view returns (Handicraft[] memory) {uint itemCount = handicraftIds;\r\n        uint unsoldItemCount = handicraftIds - handicraftsSold;\r\n        uint currentIndex = 0;\r\n        Handicraft[] memory items = new Handicraft[](unsoldItemCount);\r\n        for (uint i = 0; i < itemCount; i++) {if (idToHandicraft[i + 1].owner == address(this)) {uint currentId = i + 1;\r\n            Handicraft storage currentItem = idToHandicraft[currentId];\r\n            items[currentIndex] = currentItem;\r\n            currentIndex += 1;}}\r\n        return items;}\r\n\r\n    function fetchMyHandicrafts() public view returns (Handicraft[] memory) {uint totalItemCount = handicraftIds;\r\n        uint itemCount = 0;\r\n        uint currentIndex = 0;\r\n        for (uint i = 0; i < totalItemCount; i++) {if (idToHandicraft[i + 1].owner == msg.sender) {itemCount += 1;}}\r\n        Handicraft[] memory items = new Handicraft[](itemCount);\r\n        for (uint i = 0; i < totalItemCount; i++) {if (idToHandicraft[i + 1].owner == msg.sender) {uint currentId = i + 1;\r\n            Handicraft storage currentItem = idToHandicraft[currentId];\r\n            items[currentIndex] = currentItem;\r\n            currentIndex += 1;}}\r\n        return items;}\r\n\r\n    function fetchMyListedHandicrafts() public view returns (Handicraft[] memory) {uint totalItemCount = handicraftIds;\r\n        uint itemCount = 0;\r\n        uint currentIndex = 0;\r\n        for (uint i = 0; i < totalItemCount; i++) {if (idToHandicraft[i + 1].seller == msg.sender) {itemCount += 1;}}\r\n        Handicraft[] memory items = new Handicraft[](itemCount);\r\n        for (uint i = 0; i < totalItemCount; i++) {if (idToHandicraft[i + 1].seller == msg.sender) {uint currentId = i + 1;\r\n            Handicraft storage currentItem = idToHandicraft[currentId];\r\n            items[currentIndex] = currentItem;\r\n            currentIndex += 1;}}\r\n        return items;}\r\n\r\n    function fetchRewards() public view returns (uint256) {if (totalPurchaseValue[msg.sender] >= 10) {uint reward = (totalPurchaseValue[msg.sender] * 1) / 100;\r\n        return reward;}\r\n        return 0;}\r\n\r\n    function redeemReward(uint reward) public amountSpentIsGreaterThan10 payable {\r\n        require(uniq.balanceOf(address(this)) > msg.value, \"Smart contract balance should at least be greater than reward \");\r\n        uniq.approve(address(this), reward);\r\n        transferTokens(reward, msg.sender, address(this));\r\n        totalPurchaseValue[msg.sender] = 0;}\r\n\r\n    function transferTokens(uint256 amount, address to, address from) public payable {\r\n        uniq.transferFrom(from, to, amount);\r\n    }\r\n\r\n    function registrationReward() public {\r\n        if (!isPresent[msg.sender] == true) {\r\n            isPresent[msg.sender] = true;\r\n        uniq.airdrop(msg.sender);\r\n        listOfAddress.push(msg.sender);}}\r\n\r\n    function getCheckIfAlreadyHaveBonus(address user) public view returns (bool)  {\r\n        return isPresent[user];}\r\n\r\n}",
  "sourcePath": "D:\\Blockchain\\Final Project\\BitCrafty-UNIQ-Dapp\\bitcrafty-contract\\contracts\\BitCrafty_Contract.sol",
  "compiler": {
    "name": "solc",
    "version": "0.8.4+commit.c7e474f2.Emscripten.clang"
  },
  "schemaVersion": "3.4.6",
  "updatedAt": "2022-05-04T03:13:44.790Z",
  "networkType": "ethereum",
  "devdoc": {
    "kind": "dev",
    "methods": {},
    "version": 1
  },
  "userdoc": {
    "kind": "user",
    "methods": {},
    "version": 1
  }
}