{
  "contractName": "BitCrafty_Contract",
  "abi": [
    {
      "inputs": [
        {
          "internalType": "address",
          "name": "token",
          "type": "address"
        }
      ],
      "stateMutability": "nonpayable",
      "type": "constructor"
    },
    {
      "anonymous": false,
      "inputs": [
        {
          "indexed": true,
          "internalType": "uint256",
          "name": "handicraftId",
          "type": "uint256"
        },
        {
          "indexed": false,
          "internalType": "address",
          "name": "seller",
          "type": "address"
        },
        {
          "indexed": false,
          "internalType": "address",
          "name": "owner",
          "type": "address"
        },
        {
          "indexed": false,
          "internalType": "uint256",
          "name": "price",
          "type": "uint256"
        },
        {
          "indexed": false,
          "internalType": "bool",
          "name": "sold",
          "type": "bool"
        }
      ],
      "name": "HandicraftCreated",
      "type": "event"
    },
    {
      "anonymous": false,
      "inputs": [
        {
          "indexed": false,
          "internalType": "address",
          "name": "to",
          "type": "address"
        },
        {
          "indexed": false,
          "internalType": "uint256",
          "name": "handicraftId",
          "type": "uint256"
        }
      ],
      "name": "Mint",
      "type": "event"
    },
    {
      "anonymous": false,
      "inputs": [
        {
          "indexed": false,
          "internalType": "address",
          "name": "seller",
          "type": "address"
        },
        {
          "indexed": false,
          "internalType": "address",
          "name": "owner",
          "type": "address"
        },
        {
          "indexed": false,
          "internalType": "uint256",
          "name": "handicraftId",
          "type": "uint256"
        }
      ],
      "name": "Transfer",
      "type": "event"
    },
    {
      "inputs": [
        {
          "internalType": "address",
          "name": "",
          "type": "address"
        }
      ],
      "name": "isPresent",
      "outputs": [
        {
          "internalType": "bool",
          "name": "",
          "type": "bool"
        }
      ],
      "stateMutability": "view",
      "type": "function",
      "constant": true
    },
    {
      "inputs": [],
      "name": "getTokens",
      "outputs": [],
      "stateMutability": "nonpayable",
      "type": "function"
    },
    {
      "inputs": [
        {
          "internalType": "string",
          "name": "tokenURI",
          "type": "string"
        },
        {
          "internalType": "uint256",
          "name": "price",
          "type": "uint256"
        }
      ],
      "name": "createHandicraftToken",
      "outputs": [
        {
          "internalType": "uint256",
          "name": "",
          "type": "uint256"
        }
      ],
      "stateMutability": "payable",
      "type": "function",
      "payable": true
    },
    {
      "inputs": [
        {
          "internalType": "uint256",
          "name": "handicraftId",
          "type": "uint256"
        }
      ],
      "name": "getTokenURI",
      "outputs": [
        {
          "internalType": "string",
          "name": "",
          "type": "string"
        }
      ],
      "stateMutability": "view",
      "type": "function",
      "constant": true
    },
    {
      "inputs": [
        {
          "internalType": "uint256",
          "name": "price",
          "type": "uint256"
        }
      ],
      "name": "getListingPrice",
      "outputs": [
        {
          "internalType": "uint256",
          "name": "",
          "type": "uint256"
        }
      ],
      "stateMutability": "pure",
      "type": "function",
      "constant": true
    },
    {
      "inputs": [
        {
          "internalType": "uint256",
          "name": "handicraftId",
          "type": "uint256"
        }
      ],
      "name": "createMarketSale",
      "outputs": [],
      "stateMutability": "payable",
      "type": "function",
      "payable": true
    },
    {
      "inputs": [
        {
          "internalType": "uint256",
          "name": "handicraftId",
          "type": "uint256"
        },
        {
          "internalType": "uint256",
          "name": "price",
          "type": "uint256"
        }
      ],
      "name": "resellHandicraft",
      "outputs": [],
      "stateMutability": "payable",
      "type": "function",
      "payable": true
    },
    {
      "inputs": [],
      "name": "fetchHandicrafts",
      "outputs": [
        {
          "components": [
            {
              "internalType": "uint256",
              "name": "handicraftId",
              "type": "uint256"
            },
            {
              "internalType": "address payable",
              "name": "seller",
              "type": "address"
            },
            {
              "internalType": "address payable",
              "name": "owner",
              "type": "address"
            },
            {
              "internalType": "uint256",
              "name": "price",
              "type": "uint256"
            },
            {
              "internalType": "bool",
              "name": "sold",
              "type": "bool"
            }
          ],
          "internalType": "struct BitCrafty_Contract.Handicraft[]",
          "name": "",
          "type": "tuple[]"
        }
      ],
      "stateMutability": "view",
      "type": "function",
      "constant": true
    },
    {
      "inputs": [],
      "name": "fetchMyHandicrafts",
      "outputs": [
        {
          "components": [
            {
              "internalType": "uint256",
              "name": "handicraftId",
              "type": "uint256"
            },
            {
              "internalType": "address payable",
              "name": "seller",
              "type": "address"
            },
            {
              "internalType": "address payable",
              "name": "owner",
              "type": "address"
            },
            {
              "internalType": "uint256",
              "name": "price",
              "type": "uint256"
            },
            {
              "internalType": "bool",
              "name": "sold",
              "type": "bool"
            }
          ],
          "internalType": "struct BitCrafty_Contract.Handicraft[]",
          "name": "",
          "type": "tuple[]"
        }
      ],
      "stateMutability": "view",
      "type": "function",
      "constant": true
    },
    {
      "inputs": [],
      "name": "fetchMyListedHandicrafts",
      "outputs": [
        {
          "components": [
            {
              "internalType": "uint256",
              "name": "handicraftId",
              "type": "uint256"
            },
            {
              "internalType": "address payable",
              "name": "seller",
              "type": "address"
            },
            {
              "internalType": "address payable",
              "name": "owner",
              "type": "address"
            },
            {
              "internalType": "uint256",
              "name": "price",
              "type": "uint256"
            },
            {
              "internalType": "bool",
              "name": "sold",
              "type": "bool"
            }
          ],
          "internalType": "struct BitCrafty_Contract.Handicraft[]",
          "name": "",
          "type": "tuple[]"
        }
      ],
      "stateMutability": "view",
      "type": "function",
      "constant": true
    },
    {
      "inputs": [],
      "name": "fetchRewards",
      "outputs": [
        {
          "internalType": "uint256",
          "name": "",
          "type": "uint256"
        }
      ],
      "stateMutability": "view",
      "type": "function",
      "constant": true
    },
    {
      "inputs": [
        {
          "internalType": "uint256",
          "name": "reward",
          "type": "uint256"
        }
      ],
      "name": "redeemReward",
      "outputs": [],
      "stateMutability": "payable",
      "type": "function",
      "payable": true
    },
    {
      "inputs": [
        {
          "internalType": "uint256",
          "name": "amount",
          "type": "uint256"
        },
        {
          "internalType": "address",
          "name": "to",
          "type": "address"
        }
      ],
      "name": "transferTokens",
      "outputs": [],
      "stateMutability": "payable",
      "type": "function",
      "payable": true
    },
    {
      "inputs": [
        {
          "internalType": "uint256",
          "name": "amount",
          "type": "uint256"
        },
        {
          "internalType": "address",
          "name": "to",
          "type": "address"
        },
        {
          "internalType": "address",
          "name": "from",
          "type": "address"
        }
      ],
      "name": "transferTokensFrom",
      "outputs": [],
      "stateMutability": "payable",
      "type": "function",
      "payable": true
    },
    {
      "inputs": [],
      "name": "registrationReward",
      "outputs": [],
      "stateMutability": "nonpayable",
      "type": "function"
    }
  ],
  "bytecode": "0x60806040523480156200001157600080fd5b5060405162002a7838038062002a78833981810160405281019062000037919062000118565b33600360006101000a81548173ffffffffffffffffffffffffffffffffffffffff021916908373ffffffffffffffffffffffffffffffffffffffff16021790555080600560006101000a81548173ffffffffffffffffffffffffffffffffffffffff021916908373ffffffffffffffffffffffffffffffffffffffff16021790555080600660006101000a81548173ffffffffffffffffffffffffffffffffffffffff021916908373ffffffffffffffffffffffffffffffffffffffff1602179055505062000192565b600081519050620001128162000178565b92915050565b6000602082840312156200012b57600080fd5b60006200013b8482850162000101565b91505092915050565b6000620001518262000158565b9050919050565b600073ffffffffffffffffffffffffffffffffffffffff82169050919050565b620001838162000144565b81146200018f57600080fd5b50565b6128d680620001a26000396000f3fe6080604052600436106100e85760003560e01c806390d18c531161008a578063d6077fbf11610059578063d6077fbf1461027c578063df1c80e3146102b9578063ed21aa89146102e4578063eef544c81461030f576100e8565b806390d18c5314610211578063aa6ca8081461022d578063be9af53614610244578063d012c5f114610260576100e8565b806351a71b17116100c657806351a71b171461018557806363a467d6146101a1578063761bdc1e146101bd578063865909f6146101fa576100e8565b8063278d2576146100ed5780633bb3a24d1461011d5780633d256d0e1461015a575b600080fd5b61010760048036038101906101029190611d4e565b61033a565b60405161011491906122dd565b60405180910390f35b34801561012957600080fd5b50610144600480360381019061013f9190611da2565b6103df565b60405161015191906121fb565b60405180910390f35b34801561016657600080fd5b5061016f610484565b60405161017c91906121be565b60405180910390f35b61019f600480360381019061019a9190611da2565b6107b4565b005b6101bb60048036038101906101b69190611e30565b6108d3565b005b3480156101c957600080fd5b506101e460048036038101906101df9190611cfc565b610a7d565b6040516101f191906121e0565b60405180910390f35b34801561020657600080fd5b5061020f610a9d565b005b61022b60048036038101906102269190611e7f565b610bdf565b005b34801561023957600080fd5b50610242610dda565b005b61025e60048036038101906102599190611da2565b610de4565b005b61027a60048036038101906102759190611df4565b611053565b005b34801561028857600080fd5b506102a3600480360381019061029e9190611da2565b6112aa565b6040516102b091906122dd565b60405180910390f35b3480156102c557600080fd5b506102ce6112cc565b6040516102db91906121be565b60405180910390f35b3480156102f057600080fd5b506102f961156a565b60405161030691906122dd565b60405180910390f35b34801561031b57600080fd5b50610324611620565b60405161033191906121be565b60405180910390f35b600061034e610348836112aa565b30611053565b600160085461035d91906123a3565b6008819055507f0f6798a560793a54c3bcfe86a93cde1e73087d944c0ea20544137d412139688533600854604051610396929190612195565b60405180910390a18260016000600854815260200190815260200160002090805190602001906103c7929190611b40565b506103d460085483611950565b600854905092915050565b60606001600083815260200190815260200160002080546103ff90612554565b80601f016020809104026020016040519081016040528092919081815260200182805461042b90612554565b80156104785780601f1061044d57610100808354040283529160200191610478565b820191906000526020600020905b81548152906001019060200180831161045b57829003601f168201915b50505050509050919050565b60606000600854905060008060005b83811015610533573373ffffffffffffffffffffffffffffffffffffffff166000806001846104c291906123a3565b815260200190815260200160002060010160009054906101000a900473ffffffffffffffffffffffffffffffffffffffff1673ffffffffffffffffffffffffffffffffffffffff1614156105205760018361051d91906123a3565b92505b808061052b906125b7565b915050610493565b5060008267ffffffffffffffff811115610576577f4e487b7100000000000000000000000000000000000000000000000000000000600052604160045260246000fd5b6040519080825280602002602001820160405280156105af57816020015b61059c611bc6565b8152602001906001900390816105945790505b50905060005b848110156107a9573373ffffffffffffffffffffffffffffffffffffffff166000806001846105e491906123a3565b815260200190815260200160002060010160009054906101000a900473ffffffffffffffffffffffffffffffffffffffff1673ffffffffffffffffffffffffffffffffffffffff16141561079657600060018261064191906123a3565b905060008060008381526020019081526020016000209050806040518060a0016040529081600082015481526020016001820160009054906101000a900473ffffffffffffffffffffffffffffffffffffffff1673ffffffffffffffffffffffffffffffffffffffff1673ffffffffffffffffffffffffffffffffffffffff1681526020016002820160009054906101000a900473ffffffffffffffffffffffffffffffffffffffff1673ffffffffffffffffffffffffffffffffffffffff1673ffffffffffffffffffffffffffffffffffffffff168152602001600382015481526020016004820160009054906101000a900460ff161515151581525050848681518110610779577f4e487b7100000000000000000000000000000000000000000000000000000000600052603260045260246000fd5b602002602001018190525060018561079191906123a3565b945050505b80806107a1906125b7565b9150506105b5565b508094505050505090565b678ac7230489e80000600260003373ffffffffffffffffffffffffffffffffffffffff1673ffffffffffffffffffffffffffffffffffffffff16815260200190815260200160002054101561083e576040517f08c379a0000000000000000000000000000000000000000000000000000000008152600401610835906122bd565b60405180910390fd5b344711610880576040517f08c379a00000000000000000000000000000000000000000000000000000000081526004016108779061221d565b60405180910390fd5b61088b8133306108d3565b6000600260003373ffffffffffffffffffffffffffffffffffffffff1673ffffffffffffffffffffffffffffffffffffffff1681526020019081526020016000208190555050565b6000600560009054906101000a900473ffffffffffffffffffffffffffffffffffffffff1673ffffffffffffffffffffffffffffffffffffffff166370a08231336040518263ffffffff1660e01b815260040161093091906120fe565b60206040518083038186803b15801561094857600080fd5b505afa15801561095c573d6000803e3d6000fd5b505050506040513d601f19601f820116820180604052508101906109809190611dcb565b9050808411156109c5576040517f08c379a00000000000000000000000000000000000000000000000000000000081526004016109bc9061227d565b60405180910390fd5b600560009054906101000a900473ffffffffffffffffffffffffffffffffffffffff1673ffffffffffffffffffffffffffffffffffffffff166323b872dd3033876040518463ffffffff1660e01b8152600401610a2493929190612119565b602060405180830381600087803b158015610a3e57600080fd5b505af1158015610a52573d6000803e3d6000fd5b505050506040513d601f19601f82011682018060405250810190610a769190611d25565b5050505050565b60046020528060005260406000206000915054906101000a900460ff1681565b60011515600460003373ffffffffffffffffffffffffffffffffffffffff1673ffffffffffffffffffffffffffffffffffffffff16815260200190815260200160002060009054906101000a900460ff161515151415610bdd576001600460003373ffffffffffffffffffffffffffffffffffffffff1673ffffffffffffffffffffffffffffffffffffffff16815260200190815260200160002060006101000a81548160ff021916908315150217905550600560009054906101000a900473ffffffffffffffffffffffffffffffffffffffff1673ffffffffffffffffffffffffffffffffffffffff166321860a05336040518263ffffffff1660e01b8152600401610baa91906120fe565b600060405180830381600087803b158015610bc457600080fd5b505af1158015610bd8573d6000803e3d6000fd5b505050505b565b813373ffffffffffffffffffffffffffffffffffffffff1660008083815260200190815260200160002060020160009054906101000a900473ffffffffffffffffffffffffffffffffffffffff1673ffffffffffffffffffffffffffffffffffffffff1614610c83576040517f08c379a0000000000000000000000000000000000000000000000000000000008152600401610c7a9061225d565b60405180910390fd5b610c95610c8f836112aa565b30611053565b8160008085815260200190815260200160002060030181905550600080600085815260200190815260200160002060040160006101000a81548160ff0219169083151502179055503060008085815260200190815260200160002060020160006101000a81548173ffffffffffffffffffffffffffffffffffffffff021916908373ffffffffffffffffffffffffffffffffffffffff1602179055503360008085815260200190815260200160002060010160006101000a81548173ffffffffffffffffffffffffffffffffffffffff021916908373ffffffffffffffffffffffffffffffffffffffff1602179055507fddf252ad1be2c89b69c2b068fc378daa952ba7f163c4a11628f55a4df523b3ef333085604051610db893929190612119565b60405180910390a16001600754610dcf9190612484565b600781905550505050565b610de2610a9d565b565b6000806000838152602001908152602001600020600301549050600080600084815260200190815260200160002060010160009054906101000a900473ffffffffffffffffffffffffffffffffffffffff169050813414610e7a576040517f08c379a0000000000000000000000000000000000000000000000000000000008152600401610e719061223d565b60405180910390fd5b3360008085815260200190815260200160002060020160006101000a81548173ffffffffffffffffffffffffffffffffffffffff021916908373ffffffffffffffffffffffffffffffffffffffff160217905550600160008085815260200190815260200160002060040160006101000a81548160ff021916908315150217905550600080600085815260200190815260200160002060010160006101000a81548173ffffffffffffffffffffffffffffffffffffffff021916908373ffffffffffffffffffffffffffffffffffffffff1602179055506001600754610f6091906123a3565b6007819055507fddf252ad1be2c89b69c2b068fc378daa952ba7f163c4a11628f55a4df523b3ef303385604051610f9993929190612119565b60405180910390a1610fab8282611053565b60008084815260200190815260200160002060030154600260003373ffffffffffffffffffffffffffffffffffffffff1673ffffffffffffffffffffffffffffffffffffffff1681526020019081526020016000205461100b91906123a3565b600260003373ffffffffffffffffffffffffffffffffffffffff1673ffffffffffffffffffffffffffffffffffffffff16815260200190815260200160002081905550505050565b6000600560009054906101000a900473ffffffffffffffffffffffffffffffffffffffff1673ffffffffffffffffffffffffffffffffffffffff166370a08231336040518263ffffffff1660e01b81526004016110b091906120fe565b60206040518083038186803b1580156110c857600080fd5b505afa1580156110dc573d6000803e3d6000fd5b505050506040513d601f19601f820116820180604052508101906111009190611dcb565b905080831115611145576040517f08c379a000000000000000000000000000000000000000000000000000000000815260040161113c9061227d565b60405180910390fd5b600560009054906101000a900473ffffffffffffffffffffffffffffffffffffffff1673ffffffffffffffffffffffffffffffffffffffff1663095ea7b333856040518363ffffffff1660e01b81526004016111a2929190612195565b602060405180830381600087803b1580156111bc57600080fd5b505af11580156111d0573d6000803e3d6000fd5b505050506040513d601f19601f820116820180604052508101906111f49190611d25565b50600560009054906101000a900473ffffffffffffffffffffffffffffffffffffffff1673ffffffffffffffffffffffffffffffffffffffff1663a9059cbb83856040518363ffffffff1660e01b8152600401611252929190612195565b602060405180830381600087803b15801561126c57600080fd5b505af1158015611280573d6000803e3d6000fd5b505050506040513d601f19601f820116820180604052508101906112a49190611d25565b50505050565b600060646002836112bb919061242a565b6112c591906123f9565b9050919050565b60606000600854905060006007546008546112e79190612484565b90506000808267ffffffffffffffff81111561132c577f4e487b7100000000000000000000000000000000000000000000000000000000600052604160045260246000fd5b60405190808252806020026020018201604052801561136557816020015b611352611bc6565b81526020019060019003908161134a5790505b50905060005b8481101561155f573073ffffffffffffffffffffffffffffffffffffffff1660008060018461139a91906123a3565b815260200190815260200160002060020160009054906101000a900473ffffffffffffffffffffffffffffffffffffffff1673ffffffffffffffffffffffffffffffffffffffff16141561154c5760006001826113f791906123a3565b905060008060008381526020019081526020016000209050806040518060a0016040529081600082015481526020016001820160009054906101000a900473ffffffffffffffffffffffffffffffffffffffff1673ffffffffffffffffffffffffffffffffffffffff1673ffffffffffffffffffffffffffffffffffffffff1681526020016002820160009054906101000a900473ffffffffffffffffffffffffffffffffffffffff1673ffffffffffffffffffffffffffffffffffffffff1673ffffffffffffffffffffffffffffffffffffffff168152602001600382015481526020016004820160009054906101000a900460ff16151515158152505084868151811061152f577f4e487b7100000000000000000000000000000000000000000000000000000000600052603260045260246000fd5b602002602001018190525060018561154791906123a3565b945050505b8080611557906125b7565b91505061136b565b508094505050505090565b6000600a600260003373ffffffffffffffffffffffffffffffffffffffff1673ffffffffffffffffffffffffffffffffffffffff168152602001908152602001600020541061161857600060646001600260003373ffffffffffffffffffffffffffffffffffffffff1673ffffffffffffffffffffffffffffffffffffffff16815260200190815260200160002054611603919061242a565b61160d91906123f9565b90508091505061161d565b600090505b90565b60606000600854905060008060005b838110156116cf573373ffffffffffffffffffffffffffffffffffffffff1660008060018461165e91906123a3565b815260200190815260200160002060020160009054906101000a900473ffffffffffffffffffffffffffffffffffffffff1673ffffffffffffffffffffffffffffffffffffffff1614156116bc576001836116b991906123a3565b92505b80806116c7906125b7565b91505061162f565b5060008267ffffffffffffffff811115611712577f4e487b7100000000000000000000000000000000000000000000000000000000600052604160045260246000fd5b60405190808252806020026020018201604052801561174b57816020015b611738611bc6565b8152602001906001900390816117305790505b50905060005b84811015611945573373ffffffffffffffffffffffffffffffffffffffff1660008060018461178091906123a3565b815260200190815260200160002060020160009054906101000a900473ffffffffffffffffffffffffffffffffffffffff1673ffffffffffffffffffffffffffffffffffffffff1614156119325760006001826117dd91906123a3565b905060008060008381526020019081526020016000209050806040518060a0016040529081600082015481526020016001820160009054906101000a900473ffffffffffffffffffffffffffffffffffffffff1673ffffffffffffffffffffffffffffffffffffffff1673ffffffffffffffffffffffffffffffffffffffff1681526020016002820160009054906101000a900473ffffffffffffffffffffffffffffffffffffffff1673ffffffffffffffffffffffffffffffffffffffff1673ffffffffffffffffffffffffffffffffffffffff168152602001600382015481526020016004820160009054906101000a900460ff161515151581525050848681518110611915577f4e487b7100000000000000000000000000000000000000000000000000000000600052603260045260246000fd5b602002602001018190525060018561192d91906123a3565b945050505b808061193d906125b7565b915050611751565b508094505050505090565b8060008111611994576040517f08c379a000000000000000000000000000000000000000000000000000000000815260040161198b9061229d565b60405180910390fd5b6040518060a001604052808481526020013373ffffffffffffffffffffffffffffffffffffffff1681526020013073ffffffffffffffffffffffffffffffffffffffff168152602001838152602001600015158152506000808581526020019081526020016000206000820151816000015560208201518160010160006101000a81548173ffffffffffffffffffffffffffffffffffffffff021916908373ffffffffffffffffffffffffffffffffffffffff16021790555060408201518160020160006101000a81548173ffffffffffffffffffffffffffffffffffffffff021916908373ffffffffffffffffffffffffffffffffffffffff1602179055506060820151816003015560808201518160040160006101000a81548160ff0219169083151502179055509050507fddf252ad1be2c89b69c2b068fc378daa952ba7f163c4a11628f55a4df523b3ef333085604051611af493929190612119565b60405180910390a1827fc21cfd0d9c9fb774f22eea9a4809adf2815033c77141d2032225e05cab6cf5dd3330856000604051611b339493929190612150565b60405180910390a2505050565b828054611b4c90612554565b90600052602060002090601f016020900481019282611b6e5760008555611bb5565b82601f10611b8757805160ff1916838001178555611bb5565b82800160010185558215611bb5579182015b82811115611bb4578251825591602001919060010190611b99565b5b509050611bc29190611c23565b5090565b6040518060a0016040528060008152602001600073ffffffffffffffffffffffffffffffffffffffff168152602001600073ffffffffffffffffffffffffffffffffffffffff168152602001600081526020016000151581525090565b5b80821115611c3c576000816000905550600101611c24565b5090565b6000611c53611c4e8461231d565b6122f8565b905082815260208101848484011115611c6b57600080fd5b611c76848285612512565b509392505050565b600081359050611c8d8161285b565b92915050565b600081519050611ca281612872565b92915050565b600082601f830112611cb957600080fd5b8135611cc9848260208601611c40565b91505092915050565b600081359050611ce181612889565b92915050565b600081519050611cf681612889565b92915050565b600060208284031215611d0e57600080fd5b6000611d1c84828501611c7e565b91505092915050565b600060208284031215611d3757600080fd5b6000611d4584828501611c93565b91505092915050565b60008060408385031215611d6157600080fd5b600083013567ffffffffffffffff811115611d7b57600080fd5b611d8785828601611ca8565b9250506020611d9885828601611cd2565b9150509250929050565b600060208284031215611db457600080fd5b6000611dc284828501611cd2565b91505092915050565b600060208284031215611ddd57600080fd5b6000611deb84828501611ce7565b91505092915050565b60008060408385031215611e0757600080fd5b6000611e1585828601611cd2565b9250506020611e2685828601611c7e565b9150509250929050565b600080600060608486031215611e4557600080fd5b6000611e5386828701611cd2565b9350506020611e6486828701611c7e565b9250506040611e7586828701611c7e565b9150509250925092565b60008060408385031215611e9257600080fd5b6000611ea085828601611cd2565b9250506020611eb185828601611cd2565b9150509250929050565b6000611ec78383612078565b60a08301905092915050565b611edc816124ca565b82525050565b611eeb816124b8565b82525050565b6000611efc8261235e565b611f068185612381565b9350611f118361234e565b8060005b83811015611f42578151611f298882611ebb565b9750611f3483612374565b925050600181019050611f15565b5085935050505092915050565b611f58816124dc565b82525050565b611f67816124dc565b82525050565b6000611f7882612369565b611f828185612392565b9350611f92818560208601612521565b611f9b816126bc565b840191505092915050565b6000611fb3603e83612392565b9150611fbe826126cd565b604082019050919050565b6000611fd6602f83612392565b9150611fe18261271c565b604082019050919050565b6000611ff9601f83612392565b91506120048261276b565b602082019050919050565b600061201c600e83612392565b915061202782612794565b602082019050919050565b600061203f602583612392565b915061204a826127bd565b604082019050919050565b6000612062603d83612392565b915061206d8261280c565b604082019050919050565b60a08201600082015161208e60008501826120e0565b5060208201516120a16020850182611ed3565b5060408201516120b46040850182611ed3565b5060608201516120c760608501826120e0565b5060808201516120da6080850182611f4f565b50505050565b6120e981612508565b82525050565b6120f881612508565b82525050565b60006020820190506121136000830184611ee2565b92915050565b600060608201905061212e6000830186611ee2565b61213b6020830185611ee2565b61214860408301846120ef565b949350505050565b60006080820190506121656000830187611ee2565b6121726020830186611ee2565b61217f60408301856120ef565b61218c6060830184611f5e565b95945050505050565b60006040820190506121aa6000830185611ee2565b6121b760208301846120ef565b9392505050565b600060208201905081810360008301526121d88184611ef1565b905092915050565b60006020820190506121f56000830184611f5e565b92915050565b600060208201905081810360008301526122158184611f6d565b905092915050565b6000602082019050818103600083015261223681611fa6565b9050919050565b6000602082019050818103600083015261225681611fc9565b9050919050565b6000602082019050818103600083015261227681611fec565b9050919050565b600060208201905081810360008301526122968161200f565b9050919050565b600060208201905081810360008301526122b681612032565b9050919050565b600060208201905081810360008301526122d681612055565b9050919050565b60006020820190506122f260008301846120ef565b92915050565b6000612302612313565b905061230e8282612586565b919050565b6000604051905090565b600067ffffffffffffffff8211156123385761233761268d565b5b612341826126bc565b9050602081019050919050565b6000819050602082019050919050565b600081519050919050565b600081519050919050565b6000602082019050919050565b600082825260208201905092915050565b600082825260208201905092915050565b60006123ae82612508565b91506123b983612508565b9250827fffffffffffffffffffffffffffffffffffffffffffffffffffffffffffffffff038211156123ee576123ed612600565b5b828201905092915050565b600061240482612508565b915061240f83612508565b92508261241f5761241e61262f565b5b828204905092915050565b600061243582612508565b915061244083612508565b9250817fffffffffffffffffffffffffffffffffffffffffffffffffffffffffffffffff048311821515161561247957612478612600565b5b828202905092915050565b600061248f82612508565b915061249a83612508565b9250828210156124ad576124ac612600565b5b828203905092915050565b60006124c3826124e8565b9050919050565b60006124d5826124e8565b9050919050565b60008115159050919050565b600073ffffffffffffffffffffffffffffffffffffffff82169050919050565b6000819050919050565b82818337600083830152505050565b60005b8381101561253f578082015181840152602081019050612524565b8381111561254e576000848401525b50505050565b6000600282049050600182168061256c57607f821691505b602082108114156125805761257f61265e565b5b50919050565b61258f826126bc565b810181811067ffffffffffffffff821117156125ae576125ad61268d565b5b80604052505050565b60006125c282612508565b91507fffffffffffffffffffffffffffffffffffffffffffffffffffffffffffffffff8214156125f5576125f4612600565b5b600182019050919050565b7f4e487b7100000000000000000000000000000000000000000000000000000000600052601160045260246000fd5b7f4e487b7100000000000000000000000000000000000000000000000000000000600052601260045260246000fd5b7f4e487b7100000000000000000000000000000000000000000000000000000000600052602260045260246000fd5b7f4e487b7100000000000000000000000000000000000000000000000000000000600052604160045260246000fd5b6000601f19601f8301169050919050565b7f536d61727420636f6e74726163742062616c616e63652073686f756c6420617460008201527f206c656173742062652067726561746572207468616e20726577617264200000602082015250565b7f506c656173652070617920746865206d656e74696f6e65642076616c7565206660008201527f6f72207472616e73616374696f6e2e0000000000000000000000000000000000602082015250565b7f4f6e6c792068616e64696372616674206f776e65722063616e2073656c6c2e00600082015250565b7f62616c616e6365206973206c6f77000000000000000000000000000000000000600082015250565b7f506c6561736520656e7465722070726963652067726561746572207468616e2060008201527f7a65726f2e000000000000000000000000000000000000000000000000000000602082015250565b7f546f74616c2070757263686173652076616c75652073686f756c642061746c6560008201527f6173742062652067726561746572207468616e20313020457468657273000000602082015250565b612864816124b8565b811461286f57600080fd5b50565b61287b816124dc565b811461288657600080fd5b50565b61289281612508565b811461289d57600080fd5b5056fea264697066735822122014915f2dc531423edfe603ffe5e5f4128c99151a4a0843f53cb0655b999af43c64736f6c63430008040033",
  "immutableReferences": {},
  "source": "// SPDX-License-Identifier: MIT\r\npragma solidity ^0.8.4;\r\n\r\nimport \"./UNIQ.sol\";\r\n\r\ncontract BitCrafty_Contract {\r\n\r\n    mapping(uint256 => Handicraft) private idToHandicraft;\r\n    mapping(uint256 => string) private tokenUriMapping;\r\n\r\n    mapping(address => uint256) private totalPurchaseValue;\r\n\r\n    address private owner;\r\n\r\n    struct Handicraft {uint256 handicraftId;\r\n        address payable seller;\r\n        address payable owner;\r\n        uint256 price;\r\n        bool sold;}\r\n\r\n    mapping(address => bool) public isPresent;\r\n    UNIQ private uniq;\r\n    address private uniqContract;\r\n\r\n    event HandicraftCreated (uint256 indexed handicraftId, address seller, address owner, uint256 price, bool sold);\r\n\r\n    event Transfer(address seller, address owner, uint256 handicraftId);\r\n    event Mint(address to, uint256 handicraftId);\r\n\r\n    uint private handicraftsSold;\r\n    uint private handicraftIds;\r\n\r\n    modifier priceGreaterThanZero(uint256 price){require(price > 0, \"Please enter price greater than zero.\");\r\n        _;}\r\n\r\n    modifier onlyItemOwner(uint256 handicraftId){require(idToHandicraft[handicraftId].owner == msg.sender, \"Only handicraft owner can sell.\");\r\n        _;}\r\n    modifier amountSpentIsGreaterThan10{require(totalPurchaseValue[msg.sender] >= 10000000000000000000, \"Total purchase value should atleast be greater than 10 Ethers\");\r\n        _;}\r\n\r\n    modifier ownerBalanceIsGreaterThanReward{require(address(this).balance > msg.value, \"Smart contract balance should at least be greater than reward \");\r\n        _;}\r\n\r\n\r\n    constructor(address token){\r\n        owner = msg.sender;\r\n        uniq = UNIQ(token);\r\n        uniqContract = token;\r\n    }\r\n\r\n    function getTokens() public{\r\n        registrationReward();\r\n    }\r\n\r\n    function createHandicraftToken(string memory tokenURI, uint256 price) public payable returns (uint) {transferTokens(getListingPrice(price), address(this));\r\n        handicraftIds = handicraftIds + 1;\r\n        emit Mint(msg.sender, handicraftIds);\r\n        tokenUriMapping[handicraftIds] = tokenURI;\r\n        createHandicraft(handicraftIds, price);\r\n        return handicraftIds;}\r\n\r\n    function createHandicraft(uint256 handicraftId, uint256 price) private priceGreaterThanZero(price) {idToHandicraft[handicraftId] = Handicraft(handicraftId, payable(msg.sender), payable(address(this)), price, false);\r\n        emit Transfer(msg.sender, address(this), handicraftId);\r\n        emit HandicraftCreated(handicraftId, msg.sender, address(this), price, false);}\r\n\r\n    function getTokenURI(uint256 handicraftId) public view returns (string memory) {return tokenUriMapping[handicraftId];}\r\n\r\n    function getListingPrice(uint256 price) public pure returns (uint256) {return (price * 2) / 100;}\r\n\r\n    function createMarketSale(uint256 handicraftId) public payable {uint price = idToHandicraft[handicraftId].price;\r\n        address seller = idToHandicraft[handicraftId].seller;\r\n        require(msg.value == price, \"Please pay the mentioned value for transaction.\");\r\n        idToHandicraft[handicraftId].owner = payable(msg.sender);\r\n        idToHandicraft[handicraftId].sold = true;\r\n        idToHandicraft[handicraftId].seller = payable(address(0));\r\n        handicraftsSold = handicraftsSold + 1;\r\n        emit Transfer(address(this), msg.sender, handicraftId);\r\n        transferTokens(price, seller);\r\n        //        payable(seller).transfer(msg.value);\r\n        totalPurchaseValue[msg.sender] = totalPurchaseValue[msg.sender] + idToHandicraft[handicraftId].price;}\r\n\r\n    function resellHandicraft(uint256 handicraftId, uint256 price) public payable onlyItemOwner(handicraftId) {transferTokens(getListingPrice(price), address(this));\r\n        idToHandicraft[handicraftId].price = price;\r\n        idToHandicraft[handicraftId].sold = false;\r\n        idToHandicraft[handicraftId].owner = payable(address(this));\r\n        idToHandicraft[handicraftId].seller = payable(msg.sender);\r\n        emit Transfer(msg.sender, address(this), handicraftId);\r\n        handicraftsSold = handicraftsSold - 1;}\r\n\r\n    function fetchHandicrafts() public view returns (Handicraft[] memory) {\r\n        uint itemCount = handicraftIds;\r\n        uint unsoldItemCount = handicraftIds - handicraftsSold;\r\n        uint currentIndex = 0;\r\n        Handicraft[] memory items = new Handicraft[](unsoldItemCount);\r\n        for (uint i = 0; i < itemCount; i++) {if (idToHandicraft[i + 1].owner == address(this)) {uint currentId = i + 1;\r\n            Handicraft storage currentItem = idToHandicraft[currentId];\r\n            items[currentIndex] = currentItem;\r\n            currentIndex += 1;}}\r\n        return items;}\r\n\r\n    function fetchMyHandicrafts() public view returns (Handicraft[] memory) {uint totalItemCount = handicraftIds;\r\n        uint itemCount = 0;\r\n        uint currentIndex = 0;\r\n        for (uint i = 0; i < totalItemCount; i++) {if (idToHandicraft[i + 1].owner == msg.sender) {itemCount += 1;}}\r\n        Handicraft[] memory items = new Handicraft[](itemCount);\r\n        for (uint i = 0; i < totalItemCount; i++) {if (idToHandicraft[i + 1].owner == msg.sender) {uint currentId = i + 1;\r\n            Handicraft storage currentItem = idToHandicraft[currentId];\r\n            items[currentIndex] = currentItem;\r\n            currentIndex += 1;}}\r\n        return items;}\r\n\r\n    function fetchMyListedHandicrafts() public view returns (Handicraft[] memory) {uint totalItemCount = handicraftIds;\r\n        uint itemCount = 0;\r\n        uint currentIndex = 0;\r\n        for (uint i = 0; i < totalItemCount; i++) {if (idToHandicraft[i + 1].seller == msg.sender) {itemCount += 1;}}\r\n        Handicraft[] memory items = new Handicraft[](itemCount);\r\n        for (uint i = 0; i < totalItemCount; i++) {if (idToHandicraft[i + 1].seller == msg.sender) {uint currentId = i + 1;\r\n            Handicraft storage currentItem = idToHandicraft[currentId];\r\n            items[currentIndex] = currentItem;\r\n            currentIndex += 1;}}\r\n        return items;}\r\n\r\n    function fetchRewards() public view returns (uint256) {if (totalPurchaseValue[msg.sender] >= 10) {uint reward = (totalPurchaseValue[msg.sender] * 1) / 100;\r\n        return reward;}\r\n        return 0;}\r\n\r\n    function redeemReward(uint reward) public amountSpentIsGreaterThan10 ownerBalanceIsGreaterThanReward payable {\r\n        transferTokensFrom(reward, msg.sender, address(this));\r\n        //        payable(msg.sender).transfer(reward);\r\n        totalPurchaseValue[msg.sender] = 0;}\r\n\r\n\r\n    function transferTokens(uint256 amount, address to) public payable{\r\n        uint256 erc20balance = uniq.balanceOf(msg.sender);\r\n        require(amount <= erc20balance, \"balance is low\");\r\n        uniq.approve(msg.sender,amount);\r\n        uniq.transfer(to, amount);\r\n    }\r\n\r\n    function transferTokensFrom(uint256 amount, address to, address from) public payable{\r\n        uint256 erc20balance = uniq.balanceOf(msg.sender);\r\n        require(amount <= erc20balance, \"balance is low\");\r\n        //        uniq.approve(address(this),amount);\r\n        uniq.transferFrom(address(this),msg.sender,amount);\r\n    }\r\n\r\n    function registrationReward() public{\r\n        if (!isPresent[msg.sender] == true) {\r\n            isPresent[msg.sender] = true;\r\n            uniq.airdrop(msg.sender);\r\n        }}\r\n\r\n}",
  "sourcePath": "D:\\Blockchain\\Final Project\\BitCrafty-UNIQ-Dapp\\bitcrafty-contract\\contracts\\BitCrafty_Contract.sol",
  "compiler": {
    "name": "solc",
    "version": "0.8.4+commit.c7e474f2.Emscripten.clang"
  },
  "schemaVersion": "3.4.6",
  "updatedAt": "2022-05-02T04:26:01.472Z",
  "networkType": "ethereum",
  "devdoc": {
    "kind": "dev",
    "methods": {},
    "version": 1
  },
  "userdoc": {
    "kind": "user",
    "methods": {},
    "version": 1
  }
}