{
  "contractName": "BitCrafty_Contract",
  "abi": [
    {
      "inputs": [
        {
          "internalType": "address",
          "name": "token",
          "type": "address"
        }
      ],
      "stateMutability": "nonpayable",
      "type": "constructor"
    },
    {
      "anonymous": false,
      "inputs": [
        {
          "indexed": true,
          "internalType": "uint256",
          "name": "handicraftId",
          "type": "uint256"
        },
        {
          "indexed": false,
          "internalType": "address",
          "name": "seller",
          "type": "address"
        },
        {
          "indexed": false,
          "internalType": "address",
          "name": "owner",
          "type": "address"
        },
        {
          "indexed": false,
          "internalType": "uint256",
          "name": "price",
          "type": "uint256"
        },
        {
          "indexed": false,
          "internalType": "bool",
          "name": "sold",
          "type": "bool"
        }
      ],
      "name": "HandicraftCreated",
      "type": "event"
    },
    {
      "anonymous": false,
      "inputs": [
        {
          "indexed": false,
          "internalType": "address",
          "name": "to",
          "type": "address"
        },
        {
          "indexed": false,
          "internalType": "uint256",
          "name": "handicraftId",
          "type": "uint256"
        }
      ],
      "name": "Mint",
      "type": "event"
    },
    {
      "anonymous": false,
      "inputs": [
        {
          "indexed": false,
          "internalType": "address",
          "name": "seller",
          "type": "address"
        },
        {
          "indexed": false,
          "internalType": "address",
          "name": "owner",
          "type": "address"
        },
        {
          "indexed": false,
          "internalType": "uint256",
          "name": "handicraftId",
          "type": "uint256"
        }
      ],
      "name": "Transfer",
      "type": "event"
    },
    {
      "inputs": [
        {
          "internalType": "address",
          "name": "",
          "type": "address"
        }
      ],
      "name": "isPresent",
      "outputs": [
        {
          "internalType": "bool",
          "name": "",
          "type": "bool"
        }
      ],
      "stateMutability": "view",
      "type": "function",
      "constant": true
    },
    {
      "inputs": [],
      "name": "uniqContract",
      "outputs": [
        {
          "internalType": "address",
          "name": "",
          "type": "address"
        }
      ],
      "stateMutability": "view",
      "type": "function",
      "constant": true
    },
    {
      "inputs": [],
      "name": "getTokens",
      "outputs": [],
      "stateMutability": "nonpayable",
      "type": "function"
    },
    {
      "inputs": [
        {
          "internalType": "string",
          "name": "tokenURI",
          "type": "string"
        },
        {
          "internalType": "uint256",
          "name": "price",
          "type": "uint256"
        }
      ],
      "name": "createHandicraftToken",
      "outputs": [
        {
          "internalType": "uint256",
          "name": "",
          "type": "uint256"
        }
      ],
      "stateMutability": "payable",
      "type": "function",
      "payable": true
    },
    {
      "inputs": [
        {
          "internalType": "uint256",
          "name": "handicraftId",
          "type": "uint256"
        }
      ],
      "name": "getTokenURI",
      "outputs": [
        {
          "internalType": "string",
          "name": "",
          "type": "string"
        }
      ],
      "stateMutability": "view",
      "type": "function",
      "constant": true
    },
    {
      "inputs": [
        {
          "internalType": "uint256",
          "name": "price",
          "type": "uint256"
        }
      ],
      "name": "getListingPrice",
      "outputs": [
        {
          "internalType": "uint256",
          "name": "",
          "type": "uint256"
        }
      ],
      "stateMutability": "pure",
      "type": "function",
      "constant": true
    },
    {
      "inputs": [
        {
          "internalType": "uint256",
          "name": "handicraftId",
          "type": "uint256"
        }
      ],
      "name": "createMarketSale",
      "outputs": [],
      "stateMutability": "payable",
      "type": "function",
      "payable": true
    },
    {
      "inputs": [
        {
          "internalType": "uint256",
          "name": "handicraftId",
          "type": "uint256"
        },
        {
          "internalType": "uint256",
          "name": "price",
          "type": "uint256"
        }
      ],
      "name": "resellHandicraft",
      "outputs": [],
      "stateMutability": "payable",
      "type": "function",
      "payable": true
    },
    {
      "inputs": [],
      "name": "fetchHandicrafts",
      "outputs": [
        {
          "components": [
            {
              "internalType": "uint256",
              "name": "handicraftId",
              "type": "uint256"
            },
            {
              "internalType": "address payable",
              "name": "seller",
              "type": "address"
            },
            {
              "internalType": "address payable",
              "name": "owner",
              "type": "address"
            },
            {
              "internalType": "uint256",
              "name": "price",
              "type": "uint256"
            },
            {
              "internalType": "bool",
              "name": "sold",
              "type": "bool"
            }
          ],
          "internalType": "struct BitCrafty_Contract.Handicraft[]",
          "name": "",
          "type": "tuple[]"
        }
      ],
      "stateMutability": "view",
      "type": "function",
      "constant": true
    },
    {
      "inputs": [],
      "name": "fetchMyHandicrafts",
      "outputs": [
        {
          "components": [
            {
              "internalType": "uint256",
              "name": "handicraftId",
              "type": "uint256"
            },
            {
              "internalType": "address payable",
              "name": "seller",
              "type": "address"
            },
            {
              "internalType": "address payable",
              "name": "owner",
              "type": "address"
            },
            {
              "internalType": "uint256",
              "name": "price",
              "type": "uint256"
            },
            {
              "internalType": "bool",
              "name": "sold",
              "type": "bool"
            }
          ],
          "internalType": "struct BitCrafty_Contract.Handicraft[]",
          "name": "",
          "type": "tuple[]"
        }
      ],
      "stateMutability": "view",
      "type": "function",
      "constant": true
    },
    {
      "inputs": [],
      "name": "fetchMyListedHandicrafts",
      "outputs": [
        {
          "components": [
            {
              "internalType": "uint256",
              "name": "handicraftId",
              "type": "uint256"
            },
            {
              "internalType": "address payable",
              "name": "seller",
              "type": "address"
            },
            {
              "internalType": "address payable",
              "name": "owner",
              "type": "address"
            },
            {
              "internalType": "uint256",
              "name": "price",
              "type": "uint256"
            },
            {
              "internalType": "bool",
              "name": "sold",
              "type": "bool"
            }
          ],
          "internalType": "struct BitCrafty_Contract.Handicraft[]",
          "name": "",
          "type": "tuple[]"
        }
      ],
      "stateMutability": "view",
      "type": "function",
      "constant": true
    },
    {
      "inputs": [],
      "name": "fetchRewards",
      "outputs": [
        {
          "internalType": "uint256",
          "name": "",
          "type": "uint256"
        }
      ],
      "stateMutability": "view",
      "type": "function",
      "constant": true
    },
    {
      "inputs": [
        {
          "internalType": "uint256",
          "name": "reward",
          "type": "uint256"
        }
      ],
      "name": "redeemReward",
      "outputs": [],
      "stateMutability": "payable",
      "type": "function",
      "payable": true
    },
    {
      "inputs": [
        {
          "internalType": "uint256",
          "name": "amount",
          "type": "uint256"
        },
        {
          "internalType": "address",
          "name": "to",
          "type": "address"
        },
        {
          "internalType": "address",
          "name": "from",
          "type": "address"
        }
      ],
      "name": "transferTokens",
      "outputs": [],
      "stateMutability": "payable",
      "type": "function",
      "payable": true
    },
    {
      "inputs": [],
      "name": "registrationReward",
      "outputs": [],
      "stateMutability": "nonpayable",
      "type": "function"
    },
    {
      "inputs": [],
      "name": "getAddressesRegisteredForToken",
      "outputs": [
        {
          "internalType": "address[]",
          "name": "",
          "type": "address[]"
        }
      ],
      "stateMutability": "view",
      "type": "function",
      "constant": true
    }
  ],
  "bytecode": "0x60806040523480156200001157600080fd5b506040516200273d3803806200273d833981810160405281019062000037919062000118565b33600460006101000a81548173ffffffffffffffffffffffffffffffffffffffff021916908373ffffffffffffffffffffffffffffffffffffffff16021790555080600660006101000a81548173ffffffffffffffffffffffffffffffffffffffff021916908373ffffffffffffffffffffffffffffffffffffffff16021790555080600760006101000a81548173ffffffffffffffffffffffffffffffffffffffff021916908373ffffffffffffffffffffffffffffffffffffffff1602179055505062000192565b600081519050620001128162000178565b92915050565b6000602082840312156200012b57600080fd5b60006200013b8482850162000101565b91505092915050565b6000620001518262000158565b9050919050565b600073ffffffffffffffffffffffffffffffffffffffff82169050919050565b620001838162000144565b81146200018f57600080fd5b50565b61259b80620001a26000396000f3fe6080604052600436106100f35760003560e01c8063aa6ca8081161008a578063df1c80e311610059578063df1c80e3146102e2578063e0461eb91461030d578063ed21aa8914610329578063eef544c814610354576100f3565b8063aa6ca80814610247578063be9af5361461025e578063d166c8851461027a578063d6077fbf146102a5576100f3565b8063761bdc1e116100c6578063761bdc1e146101ac578063865909f6146101e957806390d18c53146102005780639a98bce21461021c576100f3565b8063278d2576146100f85780633bb3a24d146101285780633d256d0e1461016557806351a71b1714610190575b600080fd5b610112600480360381019061010d9190611aad565b61037f565b60405161011f9190611ff8565b60405180910390f35b34801561013457600080fd5b5061014f600480360381019061014a9190611b01565b610425565b60405161015c9190611f56565b60405180910390f35b34801561017157600080fd5b5061017a6104ca565b6040516101879190611f19565b60405180910390f35b6101aa60048036038101906101a59190611b01565b6107fa565b005b3480156101b857600080fd5b506101d360048036038101906101ce9190611a84565b610919565b6040516101e09190611f3b565b60405180910390f35b3480156101f557600080fd5b506101fe610939565b005b61021a60048036038101906102159190611b79565b610ade565b005b34801561022857600080fd5b50610231610cda565b60405161023e9190611e37565b60405180910390f35b34801561025357600080fd5b5061025c610d00565b005b61027860048036038101906102739190611b01565b610d0a565b005b34801561028657600080fd5b5061028f610f38565b60405161029c9190611ef7565b60405180910390f35b3480156102b157600080fd5b506102cc60048036038101906102c79190611b01565b610fc6565b6040516102d99190611ff8565b60405180910390f35b3480156102ee57600080fd5b506102f7610fe8565b6040516103049190611f19565b60405180910390f35b61032760048036038101906103229190611b2a565b611286565b005b34801561033557600080fd5b5061033e61131c565b60405161034b9190611ff8565b60405180910390f35b34801561036057600080fd5b506103696113d2565b6040516103769190611f19565b60405180910390f35b6000600160095461039091906120f7565b6009819055507f0f6798a560793a54c3bcfe86a93cde1e73087d944c0ea20544137d4121396885336009546040516103c9929190611ece565b60405180910390a18260016000600954815260200190815260200160002090805190602001906103fa9291906118f2565b5061040760095483611702565b61041a61041383610fc6565b3033611286565b600954905092915050565b6060600160008381526020019081526020016000208054610445906122a8565b80601f0160208091040260200160405190810160405280929190818152602001828054610471906122a8565b80156104be5780601f10610493576101008083540402835291602001916104be565b820191906000526020600020905b8154815290600101906020018083116104a157829003601f168201915b50505050509050919050565b60606000600954905060008060005b83811015610579573373ffffffffffffffffffffffffffffffffffffffff1660008060018461050891906120f7565b815260200190815260200160002060010160009054906101000a900473ffffffffffffffffffffffffffffffffffffffff1673ffffffffffffffffffffffffffffffffffffffff1614156105665760018361056391906120f7565b92505b80806105719061230b565b9150506104d9565b5060008267ffffffffffffffff8111156105bc577f4e487b7100000000000000000000000000000000000000000000000000000000600052604160045260246000fd5b6040519080825280602002602001820160405280156105f557816020015b6105e2611978565b8152602001906001900390816105da5790505b50905060005b848110156107ef573373ffffffffffffffffffffffffffffffffffffffff1660008060018461062a91906120f7565b815260200190815260200160002060010160009054906101000a900473ffffffffffffffffffffffffffffffffffffffff1673ffffffffffffffffffffffffffffffffffffffff1614156107dc57600060018261068791906120f7565b905060008060008381526020019081526020016000209050806040518060a0016040529081600082015481526020016001820160009054906101000a900473ffffffffffffffffffffffffffffffffffffffff1673ffffffffffffffffffffffffffffffffffffffff1673ffffffffffffffffffffffffffffffffffffffff1681526020016002820160009054906101000a900473ffffffffffffffffffffffffffffffffffffffff1673ffffffffffffffffffffffffffffffffffffffff1673ffffffffffffffffffffffffffffffffffffffff168152602001600382015481526020016004820160009054906101000a900460ff1615151515815250508486815181106107bf577f4e487b7100000000000000000000000000000000000000000000000000000000600052603260045260246000fd5b60200260200101819052506001856107d791906120f7565b945050505b80806107e79061230b565b9150506105fb565b508094505050505090565b678ac7230489e80000600260003373ffffffffffffffffffffffffffffffffffffffff1673ffffffffffffffffffffffffffffffffffffffff168152602001908152602001600020541015610884576040517f08c379a000000000000000000000000000000000000000000000000000000000815260040161087b90611fd8565b60405180910390fd5b3447116108c6576040517f08c379a00000000000000000000000000000000000000000000000000000000081526004016108bd90611f78565b60405180910390fd5b6108d1813330611286565b6000600260003373ffffffffffffffffffffffffffffffffffffffff1673ffffffffffffffffffffffffffffffffffffffff1681526020019081526020016000208190555050565b60056020528060005260406000206000915054906101000a900460ff1681565b60011515600560003373ffffffffffffffffffffffffffffffffffffffff1673ffffffffffffffffffffffffffffffffffffffff16815260200190815260200160002060009054906101000a900460ff161515151415610adc576001600560003373ffffffffffffffffffffffffffffffffffffffff1673ffffffffffffffffffffffffffffffffffffffff16815260200190815260200160002060006101000a81548160ff021916908315150217905550600660009054906101000a900473ffffffffffffffffffffffffffffffffffffffff1673ffffffffffffffffffffffffffffffffffffffff166321860a05336040518263ffffffff1660e01b8152600401610a469190611e37565b600060405180830381600087803b158015610a6057600080fd5b505af1158015610a74573d6000803e3d6000fd5b505050506003339080600181540180825580915050600190039060005260206000200160009091909190916101000a81548173ffffffffffffffffffffffffffffffffffffffff021916908373ffffffffffffffffffffffffffffffffffffffff1602179055505b565b813373ffffffffffffffffffffffffffffffffffffffff1660008083815260200190815260200160002060020160009054906101000a900473ffffffffffffffffffffffffffffffffffffffff1673ffffffffffffffffffffffffffffffffffffffff1614610b82576040517f08c379a0000000000000000000000000000000000000000000000000000000008152600401610b7990611f98565b60405180910390fd5b8160008085815260200190815260200160002060030181905550600080600085815260200190815260200160002060040160006101000a81548160ff0219169083151502179055503060008085815260200190815260200160002060020160006101000a81548173ffffffffffffffffffffffffffffffffffffffff021916908373ffffffffffffffffffffffffffffffffffffffff1602179055503360008085815260200190815260200160002060010160006101000a81548173ffffffffffffffffffffffffffffffffffffffff021916908373ffffffffffffffffffffffffffffffffffffffff1602179055507fddf252ad1be2c89b69c2b068fc378daa952ba7f163c4a11628f55a4df523b3ef333085604051610ca593929190611e52565b60405180910390a1610cc0610cb983610fc6565b3033611286565b6001600854610ccf91906121d8565b600881905550505050565b600760009054906101000a900473ffffffffffffffffffffffffffffffffffffffff1681565b610d08610939565b565b6000806000838152602001908152602001600020600301549050600080600084815260200190815260200160002060010160009054906101000a900473ffffffffffffffffffffffffffffffffffffffff1690503360008085815260200190815260200160002060020160006101000a81548173ffffffffffffffffffffffffffffffffffffffff021916908373ffffffffffffffffffffffffffffffffffffffff160217905550600160008085815260200190815260200160002060040160006101000a81548160ff021916908315150217905550600080600085815260200190815260200160002060010160006101000a81548173ffffffffffffffffffffffffffffffffffffffff021916908373ffffffffffffffffffffffffffffffffffffffff1602179055506001600854610e4491906120f7565b6008819055507fddf252ad1be2c89b69c2b068fc378daa952ba7f163c4a11628f55a4df523b3ef303385604051610e7d93929190611e52565b60405180910390a1610e90828233611286565b60008084815260200190815260200160002060030154600260003373ffffffffffffffffffffffffffffffffffffffff1673ffffffffffffffffffffffffffffffffffffffff16815260200190815260200160002054610ef091906120f7565b600260003373ffffffffffffffffffffffffffffffffffffffff1673ffffffffffffffffffffffffffffffffffffffff16815260200190815260200160002081905550505050565b60606003805480602002602001604051908101604052809291908181526020018280548015610fbc57602002820191906000526020600020905b8160009054906101000a900473ffffffffffffffffffffffffffffffffffffffff1673ffffffffffffffffffffffffffffffffffffffff1681526020019060010190808311610f72575b5050505050905090565b60006064600283610fd7919061217e565b610fe1919061214d565b9050919050565b606060006009549050600060085460095461100391906121d8565b90506000808267ffffffffffffffff811115611048577f4e487b7100000000000000000000000000000000000000000000000000000000600052604160045260246000fd5b60405190808252806020026020018201604052801561108157816020015b61106e611978565b8152602001906001900390816110665790505b50905060005b8481101561127b573073ffffffffffffffffffffffffffffffffffffffff166000806001846110b691906120f7565b815260200190815260200160002060020160009054906101000a900473ffffffffffffffffffffffffffffffffffffffff1673ffffffffffffffffffffffffffffffffffffffff16141561126857600060018261111391906120f7565b905060008060008381526020019081526020016000209050806040518060a0016040529081600082015481526020016001820160009054906101000a900473ffffffffffffffffffffffffffffffffffffffff1673ffffffffffffffffffffffffffffffffffffffff1673ffffffffffffffffffffffffffffffffffffffff1681526020016002820160009054906101000a900473ffffffffffffffffffffffffffffffffffffffff1673ffffffffffffffffffffffffffffffffffffffff1673ffffffffffffffffffffffffffffffffffffffff168152602001600382015481526020016004820160009054906101000a900460ff16151515158152505084868151811061124b577f4e487b7100000000000000000000000000000000000000000000000000000000600052603260045260246000fd5b602002602001018190525060018561126391906120f7565b945050505b80806112739061230b565b915050611087565b508094505050505090565b600660009054906101000a900473ffffffffffffffffffffffffffffffffffffffff1673ffffffffffffffffffffffffffffffffffffffff1663385717088284866040518463ffffffff1660e01b81526004016112e593929190611e52565b600060405180830381600087803b1580156112ff57600080fd5b505af1158015611313573d6000803e3d6000fd5b50505050505050565b6000600a600260003373ffffffffffffffffffffffffffffffffffffffff1673ffffffffffffffffffffffffffffffffffffffff16815260200190815260200160002054106113ca57600060646001600260003373ffffffffffffffffffffffffffffffffffffffff1673ffffffffffffffffffffffffffffffffffffffff168152602001908152602001600020546113b5919061217e565b6113bf919061214d565b9050809150506113cf565b600090505b90565b60606000600954905060008060005b83811015611481573373ffffffffffffffffffffffffffffffffffffffff1660008060018461141091906120f7565b815260200190815260200160002060020160009054906101000a900473ffffffffffffffffffffffffffffffffffffffff1673ffffffffffffffffffffffffffffffffffffffff16141561146e5760018361146b91906120f7565b92505b80806114799061230b565b9150506113e1565b5060008267ffffffffffffffff8111156114c4577f4e487b7100000000000000000000000000000000000000000000000000000000600052604160045260246000fd5b6040519080825280602002602001820160405280156114fd57816020015b6114ea611978565b8152602001906001900390816114e25790505b50905060005b848110156116f7573373ffffffffffffffffffffffffffffffffffffffff1660008060018461153291906120f7565b815260200190815260200160002060020160009054906101000a900473ffffffffffffffffffffffffffffffffffffffff1673ffffffffffffffffffffffffffffffffffffffff1614156116e457600060018261158f91906120f7565b905060008060008381526020019081526020016000209050806040518060a0016040529081600082015481526020016001820160009054906101000a900473ffffffffffffffffffffffffffffffffffffffff1673ffffffffffffffffffffffffffffffffffffffff1673ffffffffffffffffffffffffffffffffffffffff1681526020016002820160009054906101000a900473ffffffffffffffffffffffffffffffffffffffff1673ffffffffffffffffffffffffffffffffffffffff1673ffffffffffffffffffffffffffffffffffffffff168152602001600382015481526020016004820160009054906101000a900460ff1615151515815250508486815181106116c7577f4e487b7100000000000000000000000000000000000000000000000000000000600052603260045260246000fd5b60200260200101819052506001856116df91906120f7565b945050505b80806116ef9061230b565b915050611503565b508094505050505090565b8060008111611746576040517f08c379a000000000000000000000000000000000000000000000000000000000815260040161173d90611fb8565b60405180910390fd5b6040518060a001604052808481526020013373ffffffffffffffffffffffffffffffffffffffff1681526020013073ffffffffffffffffffffffffffffffffffffffff168152602001838152602001600015158152506000808581526020019081526020016000206000820151816000015560208201518160010160006101000a81548173ffffffffffffffffffffffffffffffffffffffff021916908373ffffffffffffffffffffffffffffffffffffffff16021790555060408201518160020160006101000a81548173ffffffffffffffffffffffffffffffffffffffff021916908373ffffffffffffffffffffffffffffffffffffffff1602179055506060820151816003015560808201518160040160006101000a81548160ff0219169083151502179055509050507fddf252ad1be2c89b69c2b068fc378daa952ba7f163c4a11628f55a4df523b3ef3330856040516118a693929190611e52565b60405180910390a1827fc21cfd0d9c9fb774f22eea9a4809adf2815033c77141d2032225e05cab6cf5dd33308560006040516118e59493929190611e89565b60405180910390a2505050565b8280546118fe906122a8565b90600052602060002090601f0160209004810192826119205760008555611967565b82601f1061193957805160ff1916838001178555611967565b82800160010185558215611967579182015b8281111561196657825182559160200191906001019061194b565b5b50905061197491906119d5565b5090565b6040518060a0016040528060008152602001600073ffffffffffffffffffffffffffffffffffffffff168152602001600073ffffffffffffffffffffffffffffffffffffffff168152602001600081526020016000151581525090565b5b808211156119ee5760008160009055506001016119d6565b5090565b6000611a05611a0084612038565b612013565b905082815260208101848484011115611a1d57600080fd5b611a28848285612266565b509392505050565b600081359050611a3f81612537565b92915050565b600082601f830112611a5657600080fd5b8135611a668482602086016119f2565b91505092915050565b600081359050611a7e8161254e565b92915050565b600060208284031215611a9657600080fd5b6000611aa484828501611a30565b91505092915050565b60008060408385031215611ac057600080fd5b600083013567ffffffffffffffff811115611ada57600080fd5b611ae685828601611a45565b9250506020611af785828601611a6f565b9150509250929050565b600060208284031215611b1357600080fd5b6000611b2184828501611a6f565b91505092915050565b600080600060608486031215611b3f57600080fd5b6000611b4d86828701611a6f565b9350506020611b5e86828701611a30565b9250506040611b6f86828701611a30565b9150509250925092565b60008060408385031215611b8c57600080fd5b6000611b9a85828601611a6f565b9250506020611bab85828601611a6f565b9150509250929050565b6000611bc18383611bf4565b60208301905092915050565b6000611bd98383611db1565b60a08301905092915050565b611bee8161221e565b82525050565b611bfd8161220c565b82525050565b611c0c8161220c565b82525050565b6000611c1d82612089565b611c2781856120c4565b9350611c3283612069565b8060005b83811015611c63578151611c4a8882611bb5565b9750611c55836120aa565b925050600181019050611c36565b5085935050505092915050565b6000611c7b82612094565b611c8581856120d5565b9350611c9083612079565b8060005b83811015611cc1578151611ca88882611bcd565b9750611cb3836120b7565b925050600181019050611c94565b5085935050505092915050565b611cd781612230565b82525050565b611ce681612230565b82525050565b6000611cf78261209f565b611d0181856120e6565b9350611d11818560208601612275565b611d1a81612410565b840191505092915050565b6000611d32603e836120e6565b9150611d3d82612421565b604082019050919050565b6000611d55601f836120e6565b9150611d6082612470565b602082019050919050565b6000611d786025836120e6565b9150611d8382612499565b604082019050919050565b6000611d9b603d836120e6565b9150611da6826124e8565b604082019050919050565b60a082016000820151611dc76000850182611e19565b506020820151611dda6020850182611be5565b506040820151611ded6040850182611be5565b506060820151611e006060850182611e19565b506080820151611e136080850182611cce565b50505050565b611e228161225c565b82525050565b611e318161225c565b82525050565b6000602082019050611e4c6000830184611c03565b92915050565b6000606082019050611e676000830186611c03565b611e746020830185611c03565b611e816040830184611e28565b949350505050565b6000608082019050611e9e6000830187611c03565b611eab6020830186611c03565b611eb86040830185611e28565b611ec56060830184611cdd565b95945050505050565b6000604082019050611ee36000830185611c03565b611ef06020830184611e28565b9392505050565b60006020820190508181036000830152611f118184611c12565b905092915050565b60006020820190508181036000830152611f338184611c70565b905092915050565b6000602082019050611f506000830184611cdd565b92915050565b60006020820190508181036000830152611f708184611cec565b905092915050565b60006020820190508181036000830152611f9181611d25565b9050919050565b60006020820190508181036000830152611fb181611d48565b9050919050565b60006020820190508181036000830152611fd181611d6b565b9050919050565b60006020820190508181036000830152611ff181611d8e565b9050919050565b600060208201905061200d6000830184611e28565b92915050565b600061201d61202e565b905061202982826122da565b919050565b6000604051905090565b600067ffffffffffffffff821115612053576120526123e1565b5b61205c82612410565b9050602081019050919050565b6000819050602082019050919050565b6000819050602082019050919050565b600081519050919050565b600081519050919050565b600081519050919050565b6000602082019050919050565b6000602082019050919050565b600082825260208201905092915050565b600082825260208201905092915050565b600082825260208201905092915050565b60006121028261225c565b915061210d8361225c565b9250827fffffffffffffffffffffffffffffffffffffffffffffffffffffffffffffffff0382111561214257612141612354565b5b828201905092915050565b60006121588261225c565b91506121638361225c565b92508261217357612172612383565b5b828204905092915050565b60006121898261225c565b91506121948361225c565b9250817fffffffffffffffffffffffffffffffffffffffffffffffffffffffffffffffff04831182151516156121cd576121cc612354565b5b828202905092915050565b60006121e38261225c565b91506121ee8361225c565b92508282101561220157612200612354565b5b828203905092915050565b60006122178261223c565b9050919050565b60006122298261223c565b9050919050565b60008115159050919050565b600073ffffffffffffffffffffffffffffffffffffffff82169050919050565b6000819050919050565b82818337600083830152505050565b60005b83811015612293578082015181840152602081019050612278565b838111156122a2576000848401525b50505050565b600060028204905060018216806122c057607f821691505b602082108114156122d4576122d36123b2565b5b50919050565b6122e382612410565b810181811067ffffffffffffffff82111715612302576123016123e1565b5b80604052505050565b60006123168261225c565b91507fffffffffffffffffffffffffffffffffffffffffffffffffffffffffffffffff82141561234957612348612354565b5b600182019050919050565b7f4e487b7100000000000000000000000000000000000000000000000000000000600052601160045260246000fd5b7f4e487b7100000000000000000000000000000000000000000000000000000000600052601260045260246000fd5b7f4e487b7100000000000000000000000000000000000000000000000000000000600052602260045260246000fd5b7f4e487b7100000000000000000000000000000000000000000000000000000000600052604160045260246000fd5b6000601f19601f8301169050919050565b7f536d61727420636f6e74726163742062616c616e63652073686f756c6420617460008201527f206c656173742062652067726561746572207468616e20726577617264200000602082015250565b7f4f6e6c792068616e64696372616674206f776e65722063616e2073656c6c2e00600082015250565b7f506c6561736520656e7465722070726963652067726561746572207468616e2060008201527f7a65726f2e000000000000000000000000000000000000000000000000000000602082015250565b7f546f74616c2070757263686173652076616c75652073686f756c642061746c6560008201527f6173742062652067726561746572207468616e20313020457468657273000000602082015250565b6125408161220c565b811461254b57600080fd5b50565b6125578161225c565b811461256257600080fd5b5056fea2646970667358221220012319fbe06d556292aef843942a4cd597036ceda9cd8299cffeb48ee5b5aef264736f6c63430008040033",
  "immutableReferences": {},
  "source": "// SPDX-License-Identifier: MIT\r\npragma solidity ^0.8.4;\r\n\r\nimport \"./UNIQ.sol\";\r\n\r\ncontract BitCrafty_Contract {\r\n\r\n    mapping(uint256 => Handicraft) private idToHandicraft;\r\n    mapping(uint256 => string) private tokenUriMapping;\r\n\r\n    mapping(address => uint256) private totalPurchaseValue;\r\n    address[] private listOfAddress;\r\n    address private owner;\r\n\r\n    struct Handicraft {uint256 handicraftId;\r\n        address payable seller;\r\n        address payable owner;\r\n        uint256 price;\r\n        bool sold;}\r\n\r\n    mapping(address => bool) public isPresent;\r\n    UNIQ private uniq;\r\n    address public uniqContract;\r\n\r\n    event HandicraftCreated (uint256 indexed handicraftId, address seller, address owner, uint256 price, bool sold);\r\n\r\n    event Transfer(address seller, address owner, uint256 handicraftId);\r\n    event Mint(address to, uint256 handicraftId);\r\n\r\n    uint private handicraftsSold;\r\n    uint private handicraftIds;\r\n\r\n    modifier priceGreaterThanZero(uint256 price){require(price > 0, \"Please enter price greater than zero.\");\r\n        _;}\r\n\r\n    modifier onlyItemOwner(uint256 handicraftId){require(idToHandicraft[handicraftId].owner == msg.sender, \"Only handicraft owner can sell.\");\r\n        _;}\r\n    modifier amountSpentIsGreaterThan10{require(totalPurchaseValue[msg.sender] >= 10000000000000000000, \"Total purchase value should atleast be greater than 10 Ethers\");\r\n        _;}\r\n\r\n    modifier ownerBalanceIsGreaterThanReward{require(address(this).balance > msg.value, \"Smart contract balance should at least be greater than reward \");\r\n        _;}\r\n\r\n\r\n    constructor(address token){\r\n        owner = msg.sender;\r\n        uniq = UNIQ(token);\r\n        uniqContract = token;\r\n    }\r\n\r\n    function getTokens() public {\r\n        registrationReward();\r\n    }\r\n\r\n    function createHandicraftToken(string memory tokenURI, uint256 price) public payable returns (uint) {\r\n        handicraftIds = handicraftIds + 1;\r\n        emit Mint(msg.sender, handicraftIds);\r\n        tokenUriMapping[handicraftIds] = tokenURI;\r\n        createHandicraft(handicraftIds, price);\r\n        transferTokens(getListingPrice(price), address(this), msg.sender);\r\n        return handicraftIds;}\r\n\r\n    function createHandicraft(uint256 handicraftId, uint256 price) private priceGreaterThanZero(price) {idToHandicraft[handicraftId] = Handicraft(handicraftId, payable(msg.sender), payable(address(this)), price, false);\r\n        emit Transfer(msg.sender, address(this), handicraftId);\r\n        emit HandicraftCreated(handicraftId, msg.sender, address(this), price, false);\r\n    }\r\n\r\n    function getTokenURI(uint256 handicraftId) public view returns (string memory) {return tokenUriMapping[handicraftId];}\r\n\r\n    function getListingPrice(uint256 price) public pure returns (uint256) {return (price * 2) / 100;}\r\n\r\n    function createMarketSale(uint256 handicraftId) public payable {uint price = idToHandicraft[handicraftId].price;\r\n        address seller = idToHandicraft[handicraftId].seller;\r\n//        require(msg.value == price, \"Please pay the mentioned value for transaction.\");\r\n        idToHandicraft[handicraftId].owner = payable(msg.sender);\r\n        idToHandicraft[handicraftId].sold = true;\r\n        idToHandicraft[handicraftId].seller = payable(address(0));\r\n        handicraftsSold = handicraftsSold + 1;\r\n        emit Transfer(address(this), msg.sender, handicraftId);\r\n        transferTokens(price, seller, msg.sender);\r\n        //        payable(seller).transfer(msg.value);\r\n        totalPurchaseValue[msg.sender] = totalPurchaseValue[msg.sender] + idToHandicraft[handicraftId].price;}\r\n\r\n    function resellHandicraft(uint256 handicraftId, uint256 price) public payable onlyItemOwner(handicraftId) {\r\n        idToHandicraft[handicraftId].price = price;\r\n        idToHandicraft[handicraftId].sold = false;\r\n        idToHandicraft[handicraftId].owner = payable(address(this));\r\n        idToHandicraft[handicraftId].seller = payable(msg.sender);\r\n        emit Transfer(msg.sender, address(this), handicraftId);\r\n        transferTokens(getListingPrice(price), address(this), msg.sender);\r\n        handicraftsSold = handicraftsSold - 1;}\r\n\r\n    function fetchHandicrafts() public view returns (Handicraft[] memory) {\r\n        uint itemCount = handicraftIds;\r\n        uint unsoldItemCount = handicraftIds - handicraftsSold;\r\n        uint currentIndex = 0;\r\n        Handicraft[] memory items = new Handicraft[](unsoldItemCount);\r\n        for (uint i = 0; i < itemCount; i++) {if (idToHandicraft[i + 1].owner == address(this)) {uint currentId = i + 1;\r\n            Handicraft storage currentItem = idToHandicraft[currentId];\r\n            items[currentIndex] = currentItem;\r\n            currentIndex += 1;}}\r\n        return items;}\r\n\r\n    function fetchMyHandicrafts() public view returns (Handicraft[] memory) {uint totalItemCount = handicraftIds;\r\n        uint itemCount = 0;\r\n        uint currentIndex = 0;\r\n        for (uint i = 0; i < totalItemCount; i++) {if (idToHandicraft[i + 1].owner == msg.sender) {itemCount += 1;}}\r\n        Handicraft[] memory items = new Handicraft[](itemCount);\r\n        for (uint i = 0; i < totalItemCount; i++) {if (idToHandicraft[i + 1].owner == msg.sender) {uint currentId = i + 1;\r\n            Handicraft storage currentItem = idToHandicraft[currentId];\r\n            items[currentIndex] = currentItem;\r\n            currentIndex += 1;}}\r\n        return items;}\r\n\r\n    function fetchMyListedHandicrafts() public view returns (Handicraft[] memory) {uint totalItemCount = handicraftIds;\r\n        uint itemCount = 0;\r\n        uint currentIndex = 0;\r\n        for (uint i = 0; i < totalItemCount; i++) {if (idToHandicraft[i + 1].seller == msg.sender) {itemCount += 1;}}\r\n        Handicraft[] memory items = new Handicraft[](itemCount);\r\n        for (uint i = 0; i < totalItemCount; i++) {if (idToHandicraft[i + 1].seller == msg.sender) {uint currentId = i + 1;\r\n            Handicraft storage currentItem = idToHandicraft[currentId];\r\n            items[currentIndex] = currentItem;\r\n            currentIndex += 1;}}\r\n        return items;}\r\n\r\n    function fetchRewards() public view returns (uint256) {if (totalPurchaseValue[msg.sender] >= 10) {uint reward = (totalPurchaseValue[msg.sender] * 1) / 100;\r\n        return reward;}\r\n        return 0;}\r\n\r\n    function redeemReward(uint reward) public amountSpentIsGreaterThan10 ownerBalanceIsGreaterThanReward payable {\r\n        //        payable(msg.sender).transfer(reward);\r\n        transferTokens(reward, msg.sender, address(this));\r\n        totalPurchaseValue[msg.sender] = 0;\r\n    }\r\n\r\n\r\n    function transferTokens(uint256 amount, address to, address from) public payable {\r\n//        uint256 erc20balance = uniq.balanceOf(msg.sender);\r\n//        require(amount <= erc20balance, \"balance is low\");\r\n        // uniq.increaseAllowance(address(this), 10000);\r\n        // uniqContract.delegatecall(abi.encodeWithSignature(\"increaseAllowance(address,uint256)\", address(this), 10000));\r\n        // uniqContract.delegatecall(abi.encodeWithSignature(\"transferFrom(address,address,uint256)\", msg.sender, address(this), 10000));\r\n        // uniq.transferFrom(msg.sender, address(this),amount);\r\n        uniq.transferTokensTo(from, to, amount);\r\n        // uniqContract.delegatecall(abi.encodeWithSignature(\"transferTokensTo(address,address,uint256)\", msg.sender, to, 10000));\r\n    }\r\n\r\n    function registrationReward() public {\r\n        if (!isPresent[msg.sender] == true) {\r\n            isPresent[msg.sender] = true;\r\n            uniq.airdrop(msg.sender);\r\n            listOfAddress.push(msg.sender);\r\n        }}\r\n\r\n    function getAddressesRegisteredForToken() public view returns (address[] memory)  {\r\n        return listOfAddress;\r\n    }\r\n}",
  "sourcePath": "D:\\Blockchain\\Final Project\\BitCrafty-UNIQ-Dapp\\bitcrafty-contract\\contracts\\BitCrafty_Contract.sol",
  "compiler": {
    "name": "solc",
    "version": "0.8.4+commit.c7e474f2.Emscripten.clang"
  },
  "schemaVersion": "3.4.6",
  "updatedAt": "2022-05-03T05:45:12.825Z",
  "networkType": "ethereum",
  "devdoc": {
    "kind": "dev",
    "methods": {},
    "version": 1
  },
  "userdoc": {
    "kind": "user",
    "methods": {},
    "version": 1
  }
}