{
  "contractName": "BitCrafty_Contract",
  "abi": [
    {
      "inputs": [],
      "stateMutability": "payable",
      "type": "constructor",
      "payable": true
    },
    {
      "anonymous": false,
      "inputs": [
        {
          "indexed": true,
          "internalType": "uint256",
          "name": "handicraftId",
          "type": "uint256"
        },
        {
          "indexed": false,
          "internalType": "address",
          "name": "seller",
          "type": "address"
        },
        {
          "indexed": false,
          "internalType": "address",
          "name": "owner",
          "type": "address"
        },
        {
          "indexed": false,
          "internalType": "uint256",
          "name": "price",
          "type": "uint256"
        },
        {
          "indexed": false,
          "internalType": "bool",
          "name": "sold",
          "type": "bool"
        }
      ],
      "name": "HandicraftCreated",
      "type": "event"
    },
    {
      "anonymous": false,
      "inputs": [
        {
          "indexed": false,
          "internalType": "address",
          "name": "to",
          "type": "address"
        },
        {
          "indexed": false,
          "internalType": "uint256",
          "name": "handicraftId",
          "type": "uint256"
        }
      ],
      "name": "Mint",
      "type": "event"
    },
    {
      "anonymous": false,
      "inputs": [
        {
          "indexed": false,
          "internalType": "address",
          "name": "seller",
          "type": "address"
        },
        {
          "indexed": false,
          "internalType": "address",
          "name": "owner",
          "type": "address"
        },
        {
          "indexed": false,
          "internalType": "uint256",
          "name": "handicraftId",
          "type": "uint256"
        }
      ],
      "name": "Transfer",
      "type": "event"
    },
    {
      "inputs": [
        {
          "internalType": "address",
          "name": "",
          "type": "address"
        }
      ],
      "name": "isPresent",
      "outputs": [
        {
          "internalType": "bool",
          "name": "",
          "type": "bool"
        }
      ],
      "stateMutability": "view",
      "type": "function",
      "constant": true
    },
    {
      "inputs": [],
      "name": "uniq",
      "outputs": [
        {
          "internalType": "contract UNIQ",
          "name": "",
          "type": "address"
        }
      ],
      "stateMutability": "view",
      "type": "function",
      "constant": true
    },
    {
      "inputs": [],
      "name": "getTokens",
      "outputs": [],
      "stateMutability": "nonpayable",
      "type": "function"
    },
    {
      "inputs": [
        {
          "internalType": "string",
          "name": "tokenURI",
          "type": "string"
        },
        {
          "internalType": "uint256",
          "name": "price",
          "type": "uint256"
        }
      ],
      "name": "createHandicraftToken",
      "outputs": [
        {
          "internalType": "uint256",
          "name": "",
          "type": "uint256"
        }
      ],
      "stateMutability": "payable",
      "type": "function",
      "payable": true
    },
    {
      "inputs": [
        {
          "internalType": "uint256",
          "name": "handicraftId",
          "type": "uint256"
        }
      ],
      "name": "getTokenURI",
      "outputs": [
        {
          "internalType": "string",
          "name": "",
          "type": "string"
        }
      ],
      "stateMutability": "view",
      "type": "function",
      "constant": true
    },
    {
      "inputs": [
        {
          "internalType": "uint256",
          "name": "price",
          "type": "uint256"
        }
      ],
      "name": "getListingPrice",
      "outputs": [
        {
          "internalType": "uint256",
          "name": "",
          "type": "uint256"
        }
      ],
      "stateMutability": "pure",
      "type": "function",
      "constant": true
    },
    {
      "inputs": [
        {
          "internalType": "uint256",
          "name": "handicraftId",
          "type": "uint256"
        }
      ],
      "name": "createMarketSale",
      "outputs": [],
      "stateMutability": "payable",
      "type": "function",
      "payable": true
    },
    {
      "inputs": [
        {
          "internalType": "uint256",
          "name": "handicraftId",
          "type": "uint256"
        },
        {
          "internalType": "uint256",
          "name": "price",
          "type": "uint256"
        }
      ],
      "name": "resellHandicraft",
      "outputs": [],
      "stateMutability": "payable",
      "type": "function",
      "payable": true
    },
    {
      "inputs": [],
      "name": "fetchHandicrafts",
      "outputs": [
        {
          "components": [
            {
              "internalType": "uint256",
              "name": "handicraftId",
              "type": "uint256"
            },
            {
              "internalType": "address payable",
              "name": "seller",
              "type": "address"
            },
            {
              "internalType": "address payable",
              "name": "owner",
              "type": "address"
            },
            {
              "internalType": "uint256",
              "name": "price",
              "type": "uint256"
            },
            {
              "internalType": "bool",
              "name": "sold",
              "type": "bool"
            }
          ],
          "internalType": "struct BitCrafty_Contract.Handicraft[]",
          "name": "",
          "type": "tuple[]"
        }
      ],
      "stateMutability": "view",
      "type": "function",
      "constant": true
    },
    {
      "inputs": [],
      "name": "fetchMyHandicrafts",
      "outputs": [
        {
          "components": [
            {
              "internalType": "uint256",
              "name": "handicraftId",
              "type": "uint256"
            },
            {
              "internalType": "address payable",
              "name": "seller",
              "type": "address"
            },
            {
              "internalType": "address payable",
              "name": "owner",
              "type": "address"
            },
            {
              "internalType": "uint256",
              "name": "price",
              "type": "uint256"
            },
            {
              "internalType": "bool",
              "name": "sold",
              "type": "bool"
            }
          ],
          "internalType": "struct BitCrafty_Contract.Handicraft[]",
          "name": "",
          "type": "tuple[]"
        }
      ],
      "stateMutability": "view",
      "type": "function",
      "constant": true
    },
    {
      "inputs": [],
      "name": "fetchMyListedHandicrafts",
      "outputs": [
        {
          "components": [
            {
              "internalType": "uint256",
              "name": "handicraftId",
              "type": "uint256"
            },
            {
              "internalType": "address payable",
              "name": "seller",
              "type": "address"
            },
            {
              "internalType": "address payable",
              "name": "owner",
              "type": "address"
            },
            {
              "internalType": "uint256",
              "name": "price",
              "type": "uint256"
            },
            {
              "internalType": "bool",
              "name": "sold",
              "type": "bool"
            }
          ],
          "internalType": "struct BitCrafty_Contract.Handicraft[]",
          "name": "",
          "type": "tuple[]"
        }
      ],
      "stateMutability": "view",
      "type": "function",
      "constant": true
    },
    {
      "inputs": [],
      "name": "fetchRewards",
      "outputs": [
        {
          "internalType": "uint256",
          "name": "",
          "type": "uint256"
        }
      ],
      "stateMutability": "view",
      "type": "function",
      "constant": true
    },
    {
      "inputs": [
        {
          "internalType": "uint256",
          "name": "reward",
          "type": "uint256"
        }
      ],
      "name": "redeemReward",
      "outputs": [],
      "stateMutability": "payable",
      "type": "function",
      "payable": true
    }
  ],
  "bytecode": "0x608060405233600460006101000a81548173ffffffffffffffffffffffffffffffffffffffff021916908373ffffffffffffffffffffffffffffffffffffffff160217905550612665806100546000396000f3fe6080604052600436106100c25760003560e01c8063aa6ca8081161007f578063d6077fbf11610059578063d6077fbf14610232578063df1c80e31461026f578063ed21aa891461029a578063eef544c8146102c5576100c2565b8063aa6ca808146101d4578063ae9320a4146101eb578063be9af53614610216576100c2565b8063278d2576146100c75780633bb3a24d146100f75780633d256d0e1461013457806351a71b171461015f578063761bdc1e1461017b57806390d18c53146101b8575b600080fd5b6100e160048036038101906100dc9190611b65565b6102f0565b6040516100ee919061200c565b60405180910390f35b34801561010357600080fd5b5061011e60048036038101906101199190611bb9565b61043e565b60405161012b9190611f4a565b60405180910390f35b34801561014057600080fd5b506101496104e3565b6040516101569190611ef2565b60405180910390f35b61017960048036038101906101749190611bb9565b610813565b005b34801561018757600080fd5b506101a2600480360381019061019d9190611b3c565b6109dc565b6040516101af9190611f14565b60405180910390f35b6101d260048036038101906101cd9190611be2565b6109fc565b005b3480156101e057600080fd5b506101e9610ca0565b005b3480156101f757600080fd5b50610200610dd6565b60405161020d9190611f2f565b60405180910390f35b610230600480360381019061022b9190611bb9565b610dfc565b005b34801561023e57600080fd5b5061025960048036038101906102549190611bb9565b611114565b604051610266919061200c565b60405180910390f35b34801561027b57600080fd5b50610284611136565b6040516102919190611ef2565b60405180910390f35b3480156102a657600080fd5b506102af6113d4565b6040516102bc919061200c565b60405180910390f35b3480156102d157600080fd5b506102da61148a565b6040516102e79190611ef2565b60405180910390f35b6000600460009054906101000a900473ffffffffffffffffffffffffffffffffffffffff1673ffffffffffffffffffffffffffffffffffffffff1663e0461eb961033984611114565b30600460009054906101000a900473ffffffffffffffffffffffffffffffffffffffff166040518463ffffffff1660e01b815260040161037b93929190612027565b600060405180830381600087803b15801561039557600080fd5b505af11580156103a9573d6000803e3d6000fd5b5050505060016006546103bc919061214e565b6006819055507f0f6798a560793a54c3bcfe86a93cde1e73087d944c0ea20544137d4121396885336006546040516103f5929190611ec9565b60405180910390a18260016000600654815260200190815260200160002090805190602001906104269291906119aa565b50610433600654836117ba565b600654905092915050565b606060016000838152602001908152602001600020805461045e90612323565b80601f016020809104026020016040519081016040528092919081815260200182805461048a90612323565b80156104d75780601f106104ac576101008083540402835291602001916104d7565b820191906000526020600020905b8154815290600101906020018083116104ba57829003601f168201915b50505050509050919050565b60606000600654905060008060005b83811015610592573373ffffffffffffffffffffffffffffffffffffffff16600080600184610521919061214e565b815260200190815260200160002060010160009054906101000a900473ffffffffffffffffffffffffffffffffffffffff1673ffffffffffffffffffffffffffffffffffffffff16141561057f5760018361057c919061214e565b92505b808061058a90612386565b9150506104f2565b5060008267ffffffffffffffff8111156105d5577f4e487b7100000000000000000000000000000000000000000000000000000000600052604160045260246000fd5b60405190808252806020026020018201604052801561060e57816020015b6105fb611a30565b8152602001906001900390816105f35790505b50905060005b84811015610808573373ffffffffffffffffffffffffffffffffffffffff16600080600184610643919061214e565b815260200190815260200160002060010160009054906101000a900473ffffffffffffffffffffffffffffffffffffffff1673ffffffffffffffffffffffffffffffffffffffff1614156107f55760006001826106a0919061214e565b905060008060008381526020019081526020016000209050806040518060a0016040529081600082015481526020016001820160009054906101000a900473ffffffffffffffffffffffffffffffffffffffff1673ffffffffffffffffffffffffffffffffffffffff1673ffffffffffffffffffffffffffffffffffffffff1681526020016002820160009054906101000a900473ffffffffffffffffffffffffffffffffffffffff1673ffffffffffffffffffffffffffffffffffffffff1673ffffffffffffffffffffffffffffffffffffffff168152602001600382015481526020016004820160009054906101000a900460ff1615151515815250508486815181106107d8577f4e487b7100000000000000000000000000000000000000000000000000000000600052603260045260246000fd5b60200260200101819052506001856107f0919061214e565b945050505b808061080090612386565b915050610614565b508094505050505090565b678ac7230489e80000600260003373ffffffffffffffffffffffffffffffffffffffff1673ffffffffffffffffffffffffffffffffffffffff16815260200190815260200160002054101561089d576040517f08c379a000000000000000000000000000000000000000000000000000000000815260040161089490611fec565b60405180910390fd5b3447116108df576040517f08c379a00000000000000000000000000000000000000000000000000000000081526004016108d690611f6c565b60405180910390fd5b600460009054906101000a900473ffffffffffffffffffffffffffffffffffffffff1673ffffffffffffffffffffffffffffffffffffffff1663cb03bbf38233600460009054906101000a900473ffffffffffffffffffffffffffffffffffffffff16306040518563ffffffff1660e01b8152600401610962949392919061205e565b600060405180830381600087803b15801561097c57600080fd5b505af1158015610990573d6000803e3d6000fd5b505050506000600260003373ffffffffffffffffffffffffffffffffffffffff1673ffffffffffffffffffffffffffffffffffffffff1681526020019081526020016000208190555050565b60036020528060005260406000206000915054906101000a900460ff1681565b813373ffffffffffffffffffffffffffffffffffffffff1660008083815260200190815260200160002060020160009054906101000a900473ffffffffffffffffffffffffffffffffffffffff1673ffffffffffffffffffffffffffffffffffffffff1614610aa0576040517f08c379a0000000000000000000000000000000000000000000000000000000008152600401610a9790611fac565b60405180910390fd5b600460009054906101000a900473ffffffffffffffffffffffffffffffffffffffff1673ffffffffffffffffffffffffffffffffffffffff1663e0461eb9610ae784611114565b30600460009054906101000a900473ffffffffffffffffffffffffffffffffffffffff166040518463ffffffff1660e01b8152600401610b2993929190612027565b600060405180830381600087803b158015610b4357600080fd5b505af1158015610b57573d6000803e3d6000fd5b505050508160008085815260200190815260200160002060030181905550600080600085815260200190815260200160002060040160006101000a81548160ff0219169083151502179055503060008085815260200190815260200160002060020160006101000a81548173ffffffffffffffffffffffffffffffffffffffff021916908373ffffffffffffffffffffffffffffffffffffffff1602179055503360008085815260200190815260200160002060010160006101000a81548173ffffffffffffffffffffffffffffffffffffffff021916908373ffffffffffffffffffffffffffffffffffffffff1602179055507fddf252ad1be2c89b69c2b068fc378daa952ba7f163c4a11628f55a4df523b3ef333085604051610c7e93929190611e4d565b60405180910390a16001600554610c95919061222f565b600581905550505050565b60001515600360003373ffffffffffffffffffffffffffffffffffffffff1673ffffffffffffffffffffffffffffffffffffffff16815260200190815260200160002060009054906101000a900460ff1615151415610dd4576001600360003373ffffffffffffffffffffffffffffffffffffffff1673ffffffffffffffffffffffffffffffffffffffff16815260200190815260200160002060006101000a81548160ff021916908315150217905550600460009054906101000a900473ffffffffffffffffffffffffffffffffffffffff1673ffffffffffffffffffffffffffffffffffffffff1663eeb9635c6040518163ffffffff1660e01b8152600401600060405180830381600087803b158015610dbb57600080fd5b505af1158015610dcf573d6000803e3d6000fd5b505050505b565b600460009054906101000a900473ffffffffffffffffffffffffffffffffffffffff1681565b6000806000838152602001908152602001600020600301549050600080600084815260200190815260200160002060010160009054906101000a900473ffffffffffffffffffffffffffffffffffffffff169050813414610e92576040517f08c379a0000000000000000000000000000000000000000000000000000000008152600401610e8990611f8c565b60405180910390fd5b3360008085815260200190815260200160002060020160006101000a81548173ffffffffffffffffffffffffffffffffffffffff021916908373ffffffffffffffffffffffffffffffffffffffff160217905550600160008085815260200190815260200160002060040160006101000a81548160ff021916908315150217905550600080600085815260200190815260200160002060010160006101000a81548173ffffffffffffffffffffffffffffffffffffffff021916908373ffffffffffffffffffffffffffffffffffffffff1602179055506001600554610f78919061214e565b6005819055507fddf252ad1be2c89b69c2b068fc378daa952ba7f163c4a11628f55a4df523b3ef303385604051610fb193929190611e4d565b60405180910390a1600460009054906101000a900473ffffffffffffffffffffffffffffffffffffffff1673ffffffffffffffffffffffffffffffffffffffff1663e0461eb98383600460009054906101000a900473ffffffffffffffffffffffffffffffffffffffff166040518463ffffffff1660e01b815260040161103a93929190612027565b600060405180830381600087803b15801561105457600080fd5b505af1158015611068573d6000803e3d6000fd5b5050505060008084815260200190815260200160002060030154600260003373ffffffffffffffffffffffffffffffffffffffff1673ffffffffffffffffffffffffffffffffffffffff168152602001908152602001600020546110cc919061214e565b600260003373ffffffffffffffffffffffffffffffffffffffff1673ffffffffffffffffffffffffffffffffffffffff16815260200190815260200160002081905550505050565b6000606460028361112591906121d5565b61112f91906121a4565b9050919050565b6060600060065490506000600554600654611151919061222f565b90506000808267ffffffffffffffff811115611196577f4e487b7100000000000000000000000000000000000000000000000000000000600052604160045260246000fd5b6040519080825280602002602001820160405280156111cf57816020015b6111bc611a30565b8152602001906001900390816111b45790505b50905060005b848110156113c9573073ffffffffffffffffffffffffffffffffffffffff16600080600184611204919061214e565b815260200190815260200160002060020160009054906101000a900473ffffffffffffffffffffffffffffffffffffffff1673ffffffffffffffffffffffffffffffffffffffff1614156113b6576000600182611261919061214e565b905060008060008381526020019081526020016000209050806040518060a0016040529081600082015481526020016001820160009054906101000a900473ffffffffffffffffffffffffffffffffffffffff1673ffffffffffffffffffffffffffffffffffffffff1673ffffffffffffffffffffffffffffffffffffffff1681526020016002820160009054906101000a900473ffffffffffffffffffffffffffffffffffffffff1673ffffffffffffffffffffffffffffffffffffffff1673ffffffffffffffffffffffffffffffffffffffff168152602001600382015481526020016004820160009054906101000a900460ff161515151581525050848681518110611399577f4e487b7100000000000000000000000000000000000000000000000000000000600052603260045260246000fd5b60200260200101819052506001856113b1919061214e565b945050505b80806113c190612386565b9150506111d5565b508094505050505090565b6000600a600260003373ffffffffffffffffffffffffffffffffffffffff1673ffffffffffffffffffffffffffffffffffffffff168152602001908152602001600020541061148257600060646001600260003373ffffffffffffffffffffffffffffffffffffffff1673ffffffffffffffffffffffffffffffffffffffff1681526020019081526020016000205461146d91906121d5565b61147791906121a4565b905080915050611487565b600090505b90565b60606000600654905060008060005b83811015611539573373ffffffffffffffffffffffffffffffffffffffff166000806001846114c8919061214e565b815260200190815260200160002060020160009054906101000a900473ffffffffffffffffffffffffffffffffffffffff1673ffffffffffffffffffffffffffffffffffffffff16141561152657600183611523919061214e565b92505b808061153190612386565b915050611499565b5060008267ffffffffffffffff81111561157c577f4e487b7100000000000000000000000000000000000000000000000000000000600052604160045260246000fd5b6040519080825280602002602001820160405280156115b557816020015b6115a2611a30565b81526020019060019003908161159a5790505b50905060005b848110156117af573373ffffffffffffffffffffffffffffffffffffffff166000806001846115ea919061214e565b815260200190815260200160002060020160009054906101000a900473ffffffffffffffffffffffffffffffffffffffff1673ffffffffffffffffffffffffffffffffffffffff16141561179c576000600182611647919061214e565b905060008060008381526020019081526020016000209050806040518060a0016040529081600082015481526020016001820160009054906101000a900473ffffffffffffffffffffffffffffffffffffffff1673ffffffffffffffffffffffffffffffffffffffff1673ffffffffffffffffffffffffffffffffffffffff1681526020016002820160009054906101000a900473ffffffffffffffffffffffffffffffffffffffff1673ffffffffffffffffffffffffffffffffffffffff1673ffffffffffffffffffffffffffffffffffffffff168152602001600382015481526020016004820160009054906101000a900460ff16151515158152505084868151811061177f577f4e487b7100000000000000000000000000000000000000000000000000000000600052603260045260246000fd5b6020026020010181905250600185611797919061214e565b945050505b80806117a790612386565b9150506115bb565b508094505050505090565b80600081116117fe576040517f08c379a00000000000000000000000000000000000000000000000000000000081526004016117f590611fcc565b60405180910390fd5b6040518060a001604052808481526020013373ffffffffffffffffffffffffffffffffffffffff1681526020013073ffffffffffffffffffffffffffffffffffffffff168152602001838152602001600015158152506000808581526020019081526020016000206000820151816000015560208201518160010160006101000a81548173ffffffffffffffffffffffffffffffffffffffff021916908373ffffffffffffffffffffffffffffffffffffffff16021790555060408201518160020160006101000a81548173ffffffffffffffffffffffffffffffffffffffff021916908373ffffffffffffffffffffffffffffffffffffffff1602179055506060820151816003015560808201518160040160006101000a81548160ff0219169083151502179055509050507fddf252ad1be2c89b69c2b068fc378daa952ba7f163c4a11628f55a4df523b3ef33308560405161195e93929190611e4d565b60405180910390a1827fc21cfd0d9c9fb774f22eea9a4809adf2815033c77141d2032225e05cab6cf5dd333085600060405161199d9493929190611e84565b60405180910390a2505050565b8280546119b690612323565b90600052602060002090601f0160209004810192826119d85760008555611a1f565b82601f106119f157805160ff1916838001178555611a1f565b82800160010185558215611a1f579182015b82811115611a1e578251825591602001919060010190611a03565b5b509050611a2c9190611a8d565b5090565b6040518060a0016040528060008152602001600073ffffffffffffffffffffffffffffffffffffffff168152602001600073ffffffffffffffffffffffffffffffffffffffff168152602001600081526020016000151581525090565b5b80821115611aa6576000816000905550600101611a8e565b5090565b6000611abd611ab8846120c8565b6120a3565b905082815260208101848484011115611ad557600080fd5b611ae08482856122e1565b509392505050565b600081359050611af781612601565b92915050565b600082601f830112611b0e57600080fd5b8135611b1e848260208601611aaa565b91505092915050565b600081359050611b3681612618565b92915050565b600060208284031215611b4e57600080fd5b6000611b5c84828501611ae8565b91505092915050565b60008060408385031215611b7857600080fd5b600083013567ffffffffffffffff811115611b9257600080fd5b611b9e85828601611afd565b9250506020611baf85828601611b27565b9150509250929050565b600060208284031215611bcb57600080fd5b6000611bd984828501611b27565b91505092915050565b60008060408385031215611bf557600080fd5b6000611c0385828601611b27565b9250506020611c1485828601611b27565b9150509250929050565b6000611c2a8383611dc7565b60a08301905092915050565b611c3f81612275565b82525050565b611c4e81612263565b82525050565b6000611c5f82612109565b611c69818561212c565b9350611c74836120f9565b8060005b83811015611ca5578151611c8c8882611c1e565b9750611c978361211f565b925050600181019050611c78565b5085935050505092915050565b611cbb81612287565b82525050565b611cca81612287565b82525050565b611cd9816122bd565b82525050565b6000611cea82612114565b611cf4818561213d565b9350611d048185602086016122f0565b611d0d8161248b565b840191505092915050565b6000611d25603e8361213d565b9150611d308261249c565b604082019050919050565b6000611d48602f8361213d565b9150611d53826124eb565b604082019050919050565b6000611d6b601f8361213d565b9150611d768261253a565b602082019050919050565b6000611d8e60258361213d565b9150611d9982612563565b604082019050919050565b6000611db1603d8361213d565b9150611dbc826125b2565b604082019050919050565b60a082016000820151611ddd6000850182611e2f565b506020820151611df06020850182611c36565b506040820151611e036040850182611c36565b506060820151611e166060850182611e2f565b506080820151611e296080850182611cb2565b50505050565b611e38816122b3565b82525050565b611e47816122b3565b82525050565b6000606082019050611e626000830186611c45565b611e6f6020830185611c45565b611e7c6040830184611e3e565b949350505050565b6000608082019050611e996000830187611c45565b611ea66020830186611c45565b611eb36040830185611e3e565b611ec06060830184611cc1565b95945050505050565b6000604082019050611ede6000830185611c45565b611eeb6020830184611e3e565b9392505050565b60006020820190508181036000830152611f0c8184611c54565b905092915050565b6000602082019050611f296000830184611cc1565b92915050565b6000602082019050611f446000830184611cd0565b92915050565b60006020820190508181036000830152611f648184611cdf565b905092915050565b60006020820190508181036000830152611f8581611d18565b9050919050565b60006020820190508181036000830152611fa581611d3b565b9050919050565b60006020820190508181036000830152611fc581611d5e565b9050919050565b60006020820190508181036000830152611fe581611d81565b9050919050565b6000602082019050818103600083015261200581611da4565b9050919050565b60006020820190506120216000830184611e3e565b92915050565b600060608201905061203c6000830186611e3e565b6120496020830185611c45565b6120566040830184611cd0565b949350505050565b60006080820190506120736000830187611e3e565b6120806020830186611c45565b61208d6040830185611cd0565b61209a6060830184611c45565b95945050505050565b60006120ad6120be565b90506120b98282612355565b919050565b6000604051905090565b600067ffffffffffffffff8211156120e3576120e261245c565b5b6120ec8261248b565b9050602081019050919050565b6000819050602082019050919050565b600081519050919050565b600081519050919050565b6000602082019050919050565b600082825260208201905092915050565b600082825260208201905092915050565b6000612159826122b3565b9150612164836122b3565b9250827fffffffffffffffffffffffffffffffffffffffffffffffffffffffffffffffff03821115612199576121986123cf565b5b828201905092915050565b60006121af826122b3565b91506121ba836122b3565b9250826121ca576121c96123fe565b5b828204905092915050565b60006121e0826122b3565b91506121eb836122b3565b9250817fffffffffffffffffffffffffffffffffffffffffffffffffffffffffffffffff0483118215151615612224576122236123cf565b5b828202905092915050565b600061223a826122b3565b9150612245836122b3565b925082821015612258576122576123cf565b5b828203905092915050565b600061226e82612293565b9050919050565b600061228082612293565b9050919050565b60008115159050919050565b600073ffffffffffffffffffffffffffffffffffffffff82169050919050565b6000819050919050565b60006122c8826122cf565b9050919050565b60006122da82612293565b9050919050565b82818337600083830152505050565b60005b8381101561230e5780820151818401526020810190506122f3565b8381111561231d576000848401525b50505050565b6000600282049050600182168061233b57607f821691505b6020821081141561234f5761234e61242d565b5b50919050565b61235e8261248b565b810181811067ffffffffffffffff8211171561237d5761237c61245c565b5b80604052505050565b6000612391826122b3565b91507fffffffffffffffffffffffffffffffffffffffffffffffffffffffffffffffff8214156123c4576123c36123cf565b5b600182019050919050565b7f4e487b7100000000000000000000000000000000000000000000000000000000600052601160045260246000fd5b7f4e487b7100000000000000000000000000000000000000000000000000000000600052601260045260246000fd5b7f4e487b7100000000000000000000000000000000000000000000000000000000600052602260045260246000fd5b7f4e487b7100000000000000000000000000000000000000000000000000000000600052604160045260246000fd5b6000601f19601f8301169050919050565b7f536d61727420636f6e74726163742062616c616e63652073686f756c6420617460008201527f206c656173742062652067726561746572207468616e20726577617264200000602082015250565b7f506c656173652070617920746865206d656e74696f6e65642076616c7565206660008201527f6f72207472616e73616374696f6e2e0000000000000000000000000000000000602082015250565b7f4f6e6c792068616e64696372616674206f776e65722063616e2073656c6c2e00600082015250565b7f506c6561736520656e7465722070726963652067726561746572207468616e2060008201527f7a65726f2e000000000000000000000000000000000000000000000000000000602082015250565b7f546f74616c2070757263686173652076616c75652073686f756c642061746c6560008201527f6173742062652067726561746572207468616e20313020457468657273000000602082015250565b61260a81612263565b811461261557600080fd5b50565b612621816122b3565b811461262c57600080fd5b5056fea264697066735822122000cfd98587831c7dbaeca0543ea115d36937443a710b37e9128f7d3c0eaf596c64736f6c63430008040033",
  "immutableReferences": {},
  "source": "// SPDX-License-Identifier: MIT\r\npragma solidity ^0.8.4;\r\n\r\nimport \"./UNIQ.sol\";\r\n\r\ncontract BitCrafty_Contract {\r\n\r\n    mapping(uint256 => Handicraft) private idToHandicraft;\r\n    mapping(uint256 => string) private tokenUriMapping;\r\n\r\n    mapping(address => uint256) private totalPurchaseValue;\r\n\r\n    struct Handicraft {uint256 handicraftId;\r\n        address payable seller;\r\n        address payable owner;\r\n        uint256 price;\r\n        bool sold;}\r\n\r\n    mapping(address => bool) public isPresent;\r\n    UNIQ public uniq;\r\n\r\n    event HandicraftCreated (uint256 indexed handicraftId, address seller, address owner, uint256 price, bool sold);\r\n\r\n    event Transfer(address seller, address owner, uint256 handicraftId);\r\n    event Mint(address to, uint256 handicraftId);\r\n\r\n    uint private handicraftsSold;\r\n    uint private handicraftIds;\r\n\r\n    modifier priceGreaterThanZero(uint256 price){require(price > 0, \"Please enter price greater than zero.\");\r\n        _;}\r\n\r\n    modifier onlyItemOwner(uint256 handicraftId){require(idToHandicraft[handicraftId].owner == msg.sender, \"Only handicraft owner can sell.\");\r\n        _;}\r\n    modifier amountSpentIsGreaterThan10{require(totalPurchaseValue[msg.sender] >= 10000000000000000000, \"Total purchase value should atleast be greater than 10 Ethers\");\r\n        _;}\r\n\r\n    modifier ownerBalanceIsGreaterThanReward{require(address(this).balance > msg.value, \"Smart contract balance should at least be greater than reward \");\r\n        _;}\r\n\r\n    constructor() payable{\r\n        uniq = UNIQ(msg.sender);\r\n    }\r\n\r\n    function getTokens()public{\r\n        if (isPresent[msg.sender] == false) {\r\n            isPresent[msg.sender] = true;\r\n            uniq.mintTokens();\r\n        }\r\n    }\r\n\r\n    function createHandicraftToken(string memory tokenURI, uint256 price) public payable returns (uint) {\r\n        uniq.transferTokens(getListingPrice(price), address(this), uniq);\r\n        handicraftIds = handicraftIds + 1;\r\n        emit Mint(msg.sender, handicraftIds);\r\n        tokenUriMapping[handicraftIds] = tokenURI;\r\n        createHandicraft(handicraftIds, price);\r\n        return handicraftIds;\r\n    }\r\n\r\n    function createHandicraft(uint256 handicraftId, uint256 price) private priceGreaterThanZero(price) {\r\n        idToHandicraft[handicraftId] = Handicraft(handicraftId, payable(msg.sender), payable(address(this)), price, false);\r\n        emit Transfer(msg.sender, address(this), handicraftId);\r\n        emit HandicraftCreated(handicraftId, msg.sender, address(this), price, false);\r\n    }\r\n\r\n    function getTokenURI(uint256 handicraftId) public view returns (string memory) {return tokenUriMapping[handicraftId];}\r\n\r\n    function getListingPrice(uint256 price) public pure returns (uint256) {return (price * 2) / 100;}\r\n\r\n    function createMarketSale(uint256 handicraftId) public payable {\r\n        uint price = idToHandicraft[handicraftId].price;\r\n        address seller = idToHandicraft[handicraftId].seller;\r\n        require(msg.value == price, \"Please pay the mentioned value for transaction.\");\r\n        idToHandicraft[handicraftId].owner = payable(msg.sender);\r\n        idToHandicraft[handicraftId].sold = true;\r\n        idToHandicraft[handicraftId].seller = payable(address(0));\r\n        handicraftsSold = handicraftsSold + 1;\r\n        emit Transfer(address(this), msg.sender, handicraftId);\r\n        uniq.transferTokens(price, seller, uniq);\r\n        //        payable(seller).transfer(msg.value);\r\n        totalPurchaseValue[msg.sender] = totalPurchaseValue[msg.sender] + idToHandicraft[handicraftId].price;}\r\n\r\n    function resellHandicraft(uint256 handicraftId, uint256 price) public payable onlyItemOwner(handicraftId) {\r\n        uniq.transferTokens(getListingPrice(price), address(this), uniq);\r\n        idToHandicraft[handicraftId].price = price;\r\n        idToHandicraft[handicraftId].sold = false;\r\n        idToHandicraft[handicraftId].owner = payable(address(this));\r\n        idToHandicraft[handicraftId].seller = payable(msg.sender);\r\n        emit Transfer(msg.sender, address(this), handicraftId);\r\n        handicraftsSold = handicraftsSold - 1;}\r\n\r\n    function fetchHandicrafts() public view returns (Handicraft[] memory) {uint itemCount = handicraftIds;\r\n        uint unsoldItemCount = handicraftIds - handicraftsSold;\r\n        uint currentIndex = 0;\r\n        Handicraft[] memory items = new Handicraft[](unsoldItemCount);\r\n        for (uint i = 0; i < itemCount; i++) {if (idToHandicraft[i + 1].owner == address(this)) {uint currentId = i + 1;\r\n            Handicraft storage currentItem = idToHandicraft[currentId];\r\n            items[currentIndex] = currentItem;\r\n            currentIndex += 1;}}\r\n        return items;}\r\n\r\n    function fetchMyHandicrafts() public view returns (Handicraft[] memory) {uint totalItemCount = handicraftIds;\r\n        uint itemCount = 0;\r\n        uint currentIndex = 0;\r\n        for (uint i = 0; i < totalItemCount; i++) {if (idToHandicraft[i + 1].owner == msg.sender) {itemCount += 1;}}\r\n        Handicraft[] memory items = new Handicraft[](itemCount);\r\n        for (uint i = 0; i < totalItemCount; i++) {if (idToHandicraft[i + 1].owner == msg.sender) {uint currentId = i + 1;\r\n            Handicraft storage currentItem = idToHandicraft[currentId];\r\n            items[currentIndex] = currentItem;\r\n            currentIndex += 1;}}\r\n        return items;}\r\n\r\n    function fetchMyListedHandicrafts() public view returns (Handicraft[] memory) {uint totalItemCount = handicraftIds;\r\n        uint itemCount = 0;\r\n        uint currentIndex = 0;\r\n        for (uint i = 0; i < totalItemCount; i++) {if (idToHandicraft[i + 1].seller == msg.sender) {itemCount += 1;}}\r\n        Handicraft[] memory items = new Handicraft[](itemCount);\r\n        for (uint i = 0; i < totalItemCount; i++) {if (idToHandicraft[i + 1].seller == msg.sender) {uint currentId = i + 1;\r\n            Handicraft storage currentItem = idToHandicraft[currentId];\r\n            items[currentIndex] = currentItem;\r\n            currentIndex += 1;}}\r\n        return items;}\r\n\r\n    function fetchRewards() public view returns (uint256) {if (totalPurchaseValue[msg.sender] >= 10) {uint reward = (totalPurchaseValue[msg.sender] * 1) / 100;\r\n        return reward;}\r\n        return 0;}\r\n\r\n    function redeemReward(uint reward) public amountSpentIsGreaterThan10 ownerBalanceIsGreaterThanReward payable {\r\n        uniq.transferTokensFrom(reward, msg.sender, uniq, address(this));\r\n        //        payable(msg.sender).transfer(reward);\r\n        totalPurchaseValue[msg.sender] = 0;}\r\n\r\n}",
  "sourcePath": "C:\\Data\\BitCrafty-UNIQ-Dapp\\bitcrafty-contract\\contracts\\BitCrafty_Contract.sol",
  "compiler": {
    "name": "solc",
    "version": "0.8.4+commit.c7e474f2.Emscripten.clang"
  },
  "schemaVersion": "3.4.6",
  "updatedAt": "2022-05-01T07:20:17.076Z",
  "networkType": "ethereum",
  "devdoc": {
    "kind": "dev",
    "methods": {},
    "version": 1
  },
  "userdoc": {
    "kind": "user",
    "methods": {},
    "version": 1
  }
}