{
  "contractName": "UNIQ",
  "abi": [
    {
      "inputs": [
        {
          "internalType": "address",
          "name": "sender",
          "type": "address"
        }
      ],
      "stateMutability": "nonpayable",
      "type": "constructor"
    },
    {
      "anonymous": false,
      "inputs": [
        {
          "indexed": true,
          "internalType": "address",
          "name": "owner",
          "type": "address"
        },
        {
          "indexed": true,
          "internalType": "address",
          "name": "spender",
          "type": "address"
        },
        {
          "indexed": false,
          "internalType": "uint256",
          "name": "value",
          "type": "uint256"
        }
      ],
      "name": "Approval",
      "type": "event"
    },
    {
      "anonymous": false,
      "inputs": [
        {
          "indexed": true,
          "internalType": "address",
          "name": "from",
          "type": "address"
        },
        {
          "indexed": true,
          "internalType": "address",
          "name": "to",
          "type": "address"
        },
        {
          "indexed": false,
          "internalType": "uint256",
          "name": "value",
          "type": "uint256"
        }
      ],
      "name": "Transfer",
      "type": "event"
    },
    {
      "inputs": [
        {
          "internalType": "address",
          "name": "owner",
          "type": "address"
        },
        {
          "internalType": "address",
          "name": "spender",
          "type": "address"
        }
      ],
      "name": "allowance",
      "outputs": [
        {
          "internalType": "uint256",
          "name": "",
          "type": "uint256"
        }
      ],
      "stateMutability": "view",
      "type": "function"
    },
    {
      "inputs": [
        {
          "internalType": "address",
          "name": "spender",
          "type": "address"
        },
        {
          "internalType": "uint256",
          "name": "amount",
          "type": "uint256"
        }
      ],
      "name": "approve",
      "outputs": [
        {
          "internalType": "bool",
          "name": "",
          "type": "bool"
        }
      ],
      "stateMutability": "nonpayable",
      "type": "function"
    },
    {
      "inputs": [
        {
          "internalType": "address",
          "name": "account",
          "type": "address"
        }
      ],
      "name": "balanceOf",
      "outputs": [
        {
          "internalType": "uint256",
          "name": "",
          "type": "uint256"
        }
      ],
      "stateMutability": "view",
      "type": "function"
    },
    {
      "inputs": [
        {
          "internalType": "address",
          "name": "spender",
          "type": "address"
        },
        {
          "internalType": "uint256",
          "name": "subtractedValue",
          "type": "uint256"
        }
      ],
      "name": "decreaseAllowance",
      "outputs": [
        {
          "internalType": "bool",
          "name": "",
          "type": "bool"
        }
      ],
      "stateMutability": "nonpayable",
      "type": "function"
    },
    {
      "inputs": [
        {
          "internalType": "address",
          "name": "spender",
          "type": "address"
        },
        {
          "internalType": "uint256",
          "name": "addedValue",
          "type": "uint256"
        }
      ],
      "name": "increaseAllowance",
      "outputs": [
        {
          "internalType": "bool",
          "name": "",
          "type": "bool"
        }
      ],
      "stateMutability": "nonpayable",
      "type": "function"
    },
    {
      "inputs": [
        {
          "internalType": "address",
          "name": "",
          "type": "address"
        }
      ],
      "name": "isPresent",
      "outputs": [
        {
          "internalType": "bool",
          "name": "",
          "type": "bool"
        }
      ],
      "stateMutability": "view",
      "type": "function"
    },
    {
      "inputs": [],
      "name": "name",
      "outputs": [
        {
          "internalType": "string",
          "name": "",
          "type": "string"
        }
      ],
      "stateMutability": "view",
      "type": "function"
    },
    {
      "inputs": [],
      "name": "symbol",
      "outputs": [
        {
          "internalType": "string",
          "name": "",
          "type": "string"
        }
      ],
      "stateMutability": "view",
      "type": "function"
    },
    {
      "inputs": [],
      "name": "totalSupply",
      "outputs": [
        {
          "internalType": "uint256",
          "name": "",
          "type": "uint256"
        }
      ],
      "stateMutability": "view",
      "type": "function"
    },
    {
      "inputs": [
        {
          "internalType": "address",
          "name": "to",
          "type": "address"
        },
        {
          "internalType": "uint256",
          "name": "amount",
          "type": "uint256"
        }
      ],
      "name": "transfer",
      "outputs": [
        {
          "internalType": "bool",
          "name": "",
          "type": "bool"
        }
      ],
      "stateMutability": "nonpayable",
      "type": "function"
    },
    {
      "inputs": [
        {
          "internalType": "address",
          "name": "from",
          "type": "address"
        },
        {
          "internalType": "address",
          "name": "to",
          "type": "address"
        },
        {
          "internalType": "uint256",
          "name": "amount",
          "type": "uint256"
        }
      ],
      "name": "transferFrom",
      "outputs": [
        {
          "internalType": "bool",
          "name": "",
          "type": "bool"
        }
      ],
      "stateMutability": "nonpayable",
      "type": "function"
    },
    {
      "inputs": [],
      "name": "mintTokens",
      "outputs": [],
      "stateMutability": "nonpayable",
      "type": "function"
    },
    {
      "inputs": [],
      "name": "decimals",
      "outputs": [
        {
          "internalType": "uint8",
          "name": "",
          "type": "uint8"
        }
      ],
      "stateMutability": "view",
      "type": "function"
    },
    {
      "inputs": [
        {
          "internalType": "uint256",
          "name": "amount",
          "type": "uint256"
        },
        {
          "internalType": "address",
          "name": "to",
          "type": "address"
        },
        {
          "internalType": "contract UNIQ",
          "name": "uniq",
          "type": "address"
        }
      ],
      "name": "transferTokens",
      "outputs": [],
      "stateMutability": "nonpayable",
      "type": "function"
    },
    {
      "inputs": [
        {
          "internalType": "uint256",
          "name": "amount",
          "type": "uint256"
        },
        {
          "internalType": "address",
          "name": "to",
          "type": "address"
        },
        {
          "internalType": "contract UNIQ",
          "name": "uniq",
          "type": "address"
        },
        {
          "internalType": "address",
          "name": "from",
          "type": "address"
        }
      ],
      "name": "transferTokensFrom",
      "outputs": [],
      "stateMutability": "nonpayable",
      "type": "function"
    }
  ],
  "bytecode": "0x60806040523480156200001157600080fd5b5060405162001fc338038062001fc383398181016040528101906200003791906200033d565b6040518060400160405280600481526020017f554e4951000000000000000000000000000000000000000000000000000000008152506040518060400160405280600481526020017f554e4951000000000000000000000000000000000000000000000000000000008152508160039080519060200190620000bb92919062000276565b508060049080519060200190620000d492919062000276565b505050620000ec816207a120620000f360201b60201c565b5062000563565b600073ffffffffffffffffffffffffffffffffffffffff168273ffffffffffffffffffffffffffffffffffffffff16141562000166576040517f08c379a00000000000000000000000000000000000000000000000000000000081526004016200015d90620003a1565b60405180910390fd5b6200017a600083836200026c60201b60201c565b80600260008282546200018e9190620003f1565b92505081905550806000808473ffffffffffffffffffffffffffffffffffffffff1673ffffffffffffffffffffffffffffffffffffffff1681526020019081526020016000206000828254620001e59190620003f1565b925050819055508173ffffffffffffffffffffffffffffffffffffffff16600073ffffffffffffffffffffffffffffffffffffffff167fddf252ad1be2c89b69c2b068fc378daa952ba7f163c4a11628f55a4df523b3ef836040516200024c9190620003c3565b60405180910390a362000268600083836200027160201b60201c565b5050565b505050565b505050565b82805462000284906200048c565b90600052602060002090601f016020900481019282620002a85760008555620002f4565b82601f10620002c357805160ff1916838001178555620002f4565b82800160010185558215620002f4579182015b82811115620002f3578251825591602001919060010190620002d6565b5b50905062000303919062000307565b5090565b5b808211156200032257600081600090555060010162000308565b5090565b600081519050620003378162000549565b92915050565b6000602082840312156200035057600080fd5b6000620003608482850162000326565b91505092915050565b600062000378601f83620003e0565b9150620003858262000520565b602082019050919050565b6200039b8162000482565b82525050565b60006020820190508181036000830152620003bc8162000369565b9050919050565b6000602082019050620003da600083018462000390565b92915050565b600082825260208201905092915050565b6000620003fe8262000482565b91506200040b8362000482565b9250827fffffffffffffffffffffffffffffffffffffffffffffffffffffffffffffffff03821115620004435762000442620004c2565b5b828201905092915050565b60006200045b8262000462565b9050919050565b600073ffffffffffffffffffffffffffffffffffffffff82169050919050565b6000819050919050565b60006002820490506001821680620004a557607f821691505b60208210811415620004bc57620004bb620004f1565b5b50919050565b7f4e487b7100000000000000000000000000000000000000000000000000000000600052601160045260246000fd5b7f4e487b7100000000000000000000000000000000000000000000000000000000600052602260045260246000fd5b7f45524332303a206d696e7420746f20746865207a65726f206164647265737300600082015250565b62000554816200044e565b81146200056057600080fd5b50565b611a5080620005736000396000f3fe608060405234801561001057600080fd5b50600436106100f55760003560e01c8063761bdc1e11610097578063cb03bbf311610066578063cb03bbf3146102c2578063dd62ed3e146102de578063e0461eb91461030e578063eeb9635c1461032a576100f5565b8063761bdc1e1461021457806395d89b4114610244578063a457c2d714610262578063a9059cbb14610292576100f5565b806323b872dd116100d357806323b872dd14610166578063313ce5671461019657806339509351146101b457806370a08231146101e4576100f5565b806306fdde03146100fa578063095ea7b31461011857806318160ddd14610148575b600080fd5b610102610334565b60405161010f9190611444565b60405180910390f35b610132600480360381019061012d91906110be565b6103c6565b60405161013f9190611429565b60405180910390f35b6101506103e9565b60405161015d9190611586565b60405180910390f35b610180600480360381019061017b919061106f565b6103f3565b60405161018d9190611429565b60405180910390f35b61019e610422565b6040516101ab91906115a1565b60405180910390f35b6101ce60048036038101906101c991906110be565b61042b565b6040516101db9190611429565b60405180910390f35b6101fe60048036038101906101f9919061100a565b610462565b60405161020b9190611586565b60405180910390f35b61022e6004803603810190610229919061100a565b6104aa565b60405161023b9190611429565b60405180910390f35b61024c6104ca565b6040516102599190611444565b60405180910390f35b61027c600480360381019061027791906110be565b61055c565b6040516102899190611429565b60405180910390f35b6102ac60048036038101906102a791906110be565b6105d3565b6040516102b99190611429565b60405180910390f35b6102dc60048036038101906102d7919061119b565b6105f6565b005b6102f860048036038101906102f39190611033565b61075d565b6040516103059190611586565b60405180910390f35b6103286004803603810190610323919061114c565b6107e4565b005b610332610948565b005b606060038054610343906116c8565b80601f016020809104026020016040519081016040528092919081815260200182805461036f906116c8565b80156103bc5780601f10610391576101008083540402835291602001916103bc565b820191906000526020600020905b81548152906001019060200180831161039f57829003601f168201915b5050505050905090565b6000806103d1610957565b90506103de81858561095f565b600191505092915050565b6000600254905090565b6000806103fe610957565b905061040b858285610b2a565b610416858585610bb6565b60019150509392505050565b60006002905090565b600080610436610957565b9050610457818585610448858961075d565b61045291906115d8565b61095f565b600191505092915050565b60008060008373ffffffffffffffffffffffffffffffffffffffff1673ffffffffffffffffffffffffffffffffffffffff168152602001908152602001600020549050919050565b60056020528060005260406000206000915054906101000a900460ff1681565b6060600480546104d9906116c8565b80601f0160208091040260200160405190810160405280929190818152602001828054610505906116c8565b80156105525780601f1061052757610100808354040283529160200191610552565b820191906000526020600020905b81548152906001019060200180831161053557829003601f168201915b5050505050905090565b600080610567610957565b90506000610575828661075d565b9050838110156105ba576040517f08c379a00000000000000000000000000000000000000000000000000000000081526004016105b190611546565b60405180910390fd5b6105c7828686840361095f565b60019250505092915050565b6000806105de610957565b90506105eb818585610bb6565b600191505092915050565b60008273ffffffffffffffffffffffffffffffffffffffff166370a08231836040518263ffffffff1660e01b815260040161063191906113ae565b60206040518083038186803b15801561064957600080fd5b505afa15801561065d573d6000803e3d6000fd5b505050506040513d601f19601f820116820180604052508101906106819190611123565b9050808511156106c6576040517f08c379a00000000000000000000000000000000000000000000000000000000081526004016106bd906114e6565b60405180910390fd5b8273ffffffffffffffffffffffffffffffffffffffff166323b872dd8386886040518463ffffffff1660e01b8152600401610703939291906113c9565b602060405180830381600087803b15801561071d57600080fd5b505af1158015610731573d6000803e3d6000fd5b505050506040513d601f19601f8201168201806040525081019061075591906110fa565b505050505050565b6000600160008473ffffffffffffffffffffffffffffffffffffffff1673ffffffffffffffffffffffffffffffffffffffff16815260200190815260200160002060008373ffffffffffffffffffffffffffffffffffffffff1673ffffffffffffffffffffffffffffffffffffffff16815260200190815260200160002054905092915050565b60008173ffffffffffffffffffffffffffffffffffffffff166370a08231336040518263ffffffff1660e01b815260040161081f91906113ae565b60206040518083038186803b15801561083757600080fd5b505afa15801561084b573d6000803e3d6000fd5b505050506040513d601f19601f8201168201806040525081019061086f9190611123565b9050808411156108b4576040517f08c379a00000000000000000000000000000000000000000000000000000000081526004016108ab906114e6565b60405180910390fd5b8173ffffffffffffffffffffffffffffffffffffffff1663a9059cbb84866040518363ffffffff1660e01b81526004016108ef929190611400565b602060405180830381600087803b15801561090957600080fd5b505af115801561091d573d6000803e3d6000fd5b505050506040513d601f19601f8201168201806040525081019061094191906110fa565b5050505050565b61095533620186a0610e37565b565b600033905090565b600073ffffffffffffffffffffffffffffffffffffffff168373ffffffffffffffffffffffffffffffffffffffff1614156109cf576040517f08c379a00000000000000000000000000000000000000000000000000000000081526004016109c690611526565b60405180910390fd5b600073ffffffffffffffffffffffffffffffffffffffff168273ffffffffffffffffffffffffffffffffffffffff161415610a3f576040517f08c379a0000000000000000000000000000000000000000000000000000000008152600401610a3690611486565b60405180910390fd5b80600160008573ffffffffffffffffffffffffffffffffffffffff1673ffffffffffffffffffffffffffffffffffffffff16815260200190815260200160002060008473ffffffffffffffffffffffffffffffffffffffff1673ffffffffffffffffffffffffffffffffffffffff168152602001908152602001600020819055508173ffffffffffffffffffffffffffffffffffffffff168373ffffffffffffffffffffffffffffffffffffffff167f8c5be1e5ebec7d5bd14f71427d1e84f3dd0314c0f7b2291e5b200ac8c7c3b92583604051610b1d9190611586565b60405180910390a3505050565b6000610b36848461075d565b90507fffffffffffffffffffffffffffffffffffffffffffffffffffffffffffffffff8114610bb05781811015610ba2576040517f08c379a0000000000000000000000000000000000000000000000000000000008152600401610b99906114a6565b60405180910390fd5b610baf848484840361095f565b5b50505050565b600073ffffffffffffffffffffffffffffffffffffffff168373ffffffffffffffffffffffffffffffffffffffff161415610c26576040517f08c379a0000000000000000000000000000000000000000000000000000000008152600401610c1d90611506565b60405180910390fd5b600073ffffffffffffffffffffffffffffffffffffffff168273ffffffffffffffffffffffffffffffffffffffff161415610c96576040517f08c379a0000000000000000000000000000000000000000000000000000000008152600401610c8d90611466565b60405180910390fd5b610ca1838383610f97565b60008060008573ffffffffffffffffffffffffffffffffffffffff1673ffffffffffffffffffffffffffffffffffffffff16815260200190815260200160002054905081811015610d27576040517f08c379a0000000000000000000000000000000000000000000000000000000008152600401610d1e906114c6565b60405180910390fd5b8181036000808673ffffffffffffffffffffffffffffffffffffffff1673ffffffffffffffffffffffffffffffffffffffff16815260200190815260200160002081905550816000808573ffffffffffffffffffffffffffffffffffffffff1673ffffffffffffffffffffffffffffffffffffffff1681526020019081526020016000206000828254610dba91906115d8565b925050819055508273ffffffffffffffffffffffffffffffffffffffff168473ffffffffffffffffffffffffffffffffffffffff167fddf252ad1be2c89b69c2b068fc378daa952ba7f163c4a11628f55a4df523b3ef84604051610e1e9190611586565b60405180910390a3610e31848484610f9c565b50505050565b600073ffffffffffffffffffffffffffffffffffffffff168273ffffffffffffffffffffffffffffffffffffffff161415610ea7576040517f08c379a0000000000000000000000000000000000000000000000000000000008152600401610e9e90611566565b60405180910390fd5b610eb360008383610f97565b8060026000828254610ec591906115d8565b92505081905550806000808473ffffffffffffffffffffffffffffffffffffffff1673ffffffffffffffffffffffffffffffffffffffff1681526020019081526020016000206000828254610f1a91906115d8565b925050819055508173ffffffffffffffffffffffffffffffffffffffff16600073ffffffffffffffffffffffffffffffffffffffff167fddf252ad1be2c89b69c2b068fc378daa952ba7f163c4a11628f55a4df523b3ef83604051610f7f9190611586565b60405180910390a3610f9360008383610f9c565b5050565b505050565b505050565b600081359050610fb0816119be565b92915050565b600081519050610fc5816119d5565b92915050565b600081359050610fda816119ec565b92915050565b600081359050610fef81611a03565b92915050565b60008151905061100481611a03565b92915050565b60006020828403121561101c57600080fd5b600061102a84828501610fa1565b91505092915050565b6000806040838503121561104657600080fd5b600061105485828601610fa1565b925050602061106585828601610fa1565b9150509250929050565b60008060006060848603121561108457600080fd5b600061109286828701610fa1565b93505060206110a386828701610fa1565b92505060406110b486828701610fe0565b9150509250925092565b600080604083850312156110d157600080fd5b60006110df85828601610fa1565b92505060206110f085828601610fe0565b9150509250929050565b60006020828403121561110c57600080fd5b600061111a84828501610fb6565b91505092915050565b60006020828403121561113557600080fd5b600061114384828501610ff5565b91505092915050565b60008060006060848603121561116157600080fd5b600061116f86828701610fe0565b935050602061118086828701610fa1565b925050604061119186828701610fcb565b9150509250925092565b600080600080608085870312156111b157600080fd5b60006111bf87828801610fe0565b94505060206111d087828801610fa1565b93505060406111e187828801610fcb565b92505060606111f287828801610fa1565b91505092959194509250565b6112078161162e565b82525050565b61121681611640565b82525050565b6000611227826115bc565b61123181856115c7565b9350611241818560208601611695565b61124a81611758565b840191505092915050565b60006112626023836115c7565b915061126d82611769565b604082019050919050565b60006112856022836115c7565b9150611290826117b8565b604082019050919050565b60006112a8601d836115c7565b91506112b382611807565b602082019050919050565b60006112cb6026836115c7565b91506112d682611830565b604082019050919050565b60006112ee600e836115c7565b91506112f98261187f565b602082019050919050565b60006113116025836115c7565b915061131c826118a8565b604082019050919050565b60006113346024836115c7565b915061133f826118f7565b604082019050919050565b60006113576025836115c7565b915061136282611946565b604082019050919050565b600061137a601f836115c7565b915061138582611995565b602082019050919050565b6113998161167e565b82525050565b6113a881611688565b82525050565b60006020820190506113c360008301846111fe565b92915050565b60006060820190506113de60008301866111fe565b6113eb60208301856111fe565b6113f86040830184611390565b949350505050565b600060408201905061141560008301856111fe565b6114226020830184611390565b9392505050565b600060208201905061143e600083018461120d565b92915050565b6000602082019050818103600083015261145e818461121c565b905092915050565b6000602082019050818103600083015261147f81611255565b9050919050565b6000602082019050818103600083015261149f81611278565b9050919050565b600060208201905081810360008301526114bf8161129b565b9050919050565b600060208201905081810360008301526114df816112be565b9050919050565b600060208201905081810360008301526114ff816112e1565b9050919050565b6000602082019050818103600083015261151f81611304565b9050919050565b6000602082019050818103600083015261153f81611327565b9050919050565b6000602082019050818103600083015261155f8161134a565b9050919050565b6000602082019050818103600083015261157f8161136d565b9050919050565b600060208201905061159b6000830184611390565b92915050565b60006020820190506115b6600083018461139f565b92915050565b600081519050919050565b600082825260208201905092915050565b60006115e38261167e565b91506115ee8361167e565b9250827fffffffffffffffffffffffffffffffffffffffffffffffffffffffffffffffff03821115611623576116226116fa565b5b828201905092915050565b60006116398261165e565b9050919050565b60008115159050919050565b60006116578261162e565b9050919050565b600073ffffffffffffffffffffffffffffffffffffffff82169050919050565b6000819050919050565b600060ff82169050919050565b60005b838110156116b3578082015181840152602081019050611698565b838111156116c2576000848401525b50505050565b600060028204905060018216806116e057607f821691505b602082108114156116f4576116f3611729565b5b50919050565b7f4e487b7100000000000000000000000000000000000000000000000000000000600052601160045260246000fd5b7f4e487b7100000000000000000000000000000000000000000000000000000000600052602260045260246000fd5b6000601f19601f8301169050919050565b7f45524332303a207472616e7366657220746f20746865207a65726f206164647260008201527f6573730000000000000000000000000000000000000000000000000000000000602082015250565b7f45524332303a20617070726f766520746f20746865207a65726f20616464726560008201527f7373000000000000000000000000000000000000000000000000000000000000602082015250565b7f45524332303a20696e73756666696369656e7420616c6c6f77616e6365000000600082015250565b7f45524332303a207472616e7366657220616d6f756e742065786365656473206260008201527f616c616e63650000000000000000000000000000000000000000000000000000602082015250565b7f62616c616e6365206973206c6f77000000000000000000000000000000000000600082015250565b7f45524332303a207472616e736665722066726f6d20746865207a65726f20616460008201527f6472657373000000000000000000000000000000000000000000000000000000602082015250565b7f45524332303a20617070726f76652066726f6d20746865207a65726f2061646460008201527f7265737300000000000000000000000000000000000000000000000000000000602082015250565b7f45524332303a2064656372656173656420616c6c6f77616e63652062656c6f7760008201527f207a65726f000000000000000000000000000000000000000000000000000000602082015250565b7f45524332303a206d696e7420746f20746865207a65726f206164647265737300600082015250565b6119c78161162e565b81146119d257600080fd5b50565b6119de81611640565b81146119e957600080fd5b50565b6119f58161164c565b8114611a0057600080fd5b50565b611a0c8161167e565b8114611a1757600080fd5b5056fea2646970667358221220d807f96832c3af5aef2267433a96aa94abe763bdacbd781fbb66fa5e212b29ee64736f6c63430008040033",
  "immutableReferences": {},
  "source": "// SPDX-License-Identifier: MIT\r\npragma solidity ^0.8.4;\r\n\r\nimport \"@openzeppelin/contracts/token/ERC20/ERC20.sol\";\r\n\r\ncontract UNIQ is ERC20 {\r\n    mapping(address => bool) public isPresent;\r\n    constructor(address sender) ERC20(\"UNIQ\", \"UNIQ\") {\r\n        _mint(sender, 500000);\r\n    }\r\n\r\n    function mintTokens() public {\r\n        _mint(msg.sender, 100000);\r\n    }\r\n\r\n    function decimals() public view virtual override returns (uint8) {\r\n        return 2;\r\n    }\r\n\r\n    function transferTokens(uint256 amount, address to, UNIQ uniq)public{\r\n        uint256 erc20balance = uniq.balanceOf(msg.sender);\r\n        require(amount <= erc20balance, \"balance is low\");\r\n        uniq.transfer(to, amount);\r\n    }\r\n\r\n    function transferTokensFrom(uint256 amount, address to, UNIQ uniq, address from)public{\r\n        uint256 erc20balance = uniq.balanceOf(from);\r\n        require(amount <= erc20balance, \"balance is low\");\r\n        uniq.transferFrom(from, to, amount);\r\n    }\r\n}",
  "sourcePath": "C:\\Data\\BitCrafty-UNIQ-Dapp\\bitcrafty-contract\\contracts\\UNIQ.sol",
  "compiler": {
    "name": "solc",
    "version": "0.8.4+commit.c7e474f2.Emscripten.clang"
  },
  "schemaVersion": "3.4.6",
  "updatedAt": "2022-05-01T07:20:16.923Z",
  "networkType": "ethereum",
  "devdoc": {
    "kind": "dev",
    "methods": {
      "allowance(address,address)": {
        "details": "See {IERC20-allowance}."
      },
      "approve(address,uint256)": {
        "details": "See {IERC20-approve}. NOTE: If `amount` is the maximum `uint256`, the allowance is not updated on `transferFrom`. This is semantically equivalent to an infinite approval. Requirements: - `spender` cannot be the zero address."
      },
      "balanceOf(address)": {
        "details": "See {IERC20-balanceOf}."
      },
      "decimals()": {
        "details": "Returns the number of decimals used to get its user representation. For example, if `decimals` equals `2`, a balance of `505` tokens should be displayed to a user as `5.05` (`505 / 10 ** 2`). Tokens usually opt for a value of 18, imitating the relationship between Ether and Wei. This is the value {ERC20} uses, unless this function is overridden; NOTE: This information is only used for _display_ purposes: it in no way affects any of the arithmetic of the contract, including {IERC20-balanceOf} and {IERC20-transfer}."
      },
      "decreaseAllowance(address,uint256)": {
        "details": "Atomically decreases the allowance granted to `spender` by the caller. This is an alternative to {approve} that can be used as a mitigation for problems described in {IERC20-approve}. Emits an {Approval} event indicating the updated allowance. Requirements: - `spender` cannot be the zero address. - `spender` must have allowance for the caller of at least `subtractedValue`."
      },
      "increaseAllowance(address,uint256)": {
        "details": "Atomically increases the allowance granted to `spender` by the caller. This is an alternative to {approve} that can be used as a mitigation for problems described in {IERC20-approve}. Emits an {Approval} event indicating the updated allowance. Requirements: - `spender` cannot be the zero address."
      },
      "name()": {
        "details": "Returns the name of the token."
      },
      "symbol()": {
        "details": "Returns the symbol of the token, usually a shorter version of the name."
      },
      "totalSupply()": {
        "details": "See {IERC20-totalSupply}."
      },
      "transfer(address,uint256)": {
        "details": "See {IERC20-transfer}. Requirements: - `to` cannot be the zero address. - the caller must have a balance of at least `amount`."
      },
      "transferFrom(address,address,uint256)": {
        "details": "See {IERC20-transferFrom}. Emits an {Approval} event indicating the updated allowance. This is not required by the EIP. See the note at the beginning of {ERC20}. NOTE: Does not update the allowance if the current allowance is the maximum `uint256`. Requirements: - `from` and `to` cannot be the zero address. - `from` must have a balance of at least `amount`. - the caller must have allowance for ``from``'s tokens of at least `amount`."
      }
    },
    "version": 1
  },
  "userdoc": {
    "kind": "user",
    "methods": {},
    "version": 1
  }
}